:020000040800F2
:1000000090600020E9020008D9370008B3320008E8
:10001000D5370008CB05000869440008000000003F
:10002000000000000000000000000000290200089D
:10003000E30C00080000000085020008293A0008CF
:100040000303000803030008030300080303000878
:100050000303000803030008030300080303000868
:100060000303000803030008030300080303000858
:10007000690B000803030008790B0008030300085C
:10008000890B0008990B000803030008030300080C
:10009000D105000803030008030300080303000858
:1000A0000303000803030008030300080303000818
:1000B000413B000803030008030300080303000892
:1000C00003030008030300080303000803030008F8
:1000D000030300082D4200084142000819430008AC
:1000E00003030008030300080303000803030008D8
:1000F00003030008030300080303000803030008C8
:1001000003030008030300080303000803030008B7
:1001100003030008030300080303000803030008A7
:1001200003030008A90B0008B90B0008030300082B
:100130000303000803030008030300080303000887
:10014000490700080303000803030008030300082D
:1001500003030008C90B0008030300082943000833
:100160000303000803030008030300080303000857
:100170000303000803030008030300080000000055
:10018000030300080303000800F002F800F03CF845
:100190000AA090E8000C82448344AAF10107DA45E2
:1001A00001D100F031F8AFF2090EBAE80F0013F0F8
:1001B000010F18BFFB1A43F001031847306200001B
:1001C00050620000103A24BF78C878C1FAD85207AC
:1001D00024BF30C830C144BF04680C6070470000C1
:1001E0000023002400250026103A28BF78C1FBD840
:1001F000520728BF30C148BF0B6070471FB506F0DB
:1002000055F81FBD10B510BD00F0A6F91146FFF757
:10021000F5FF04F063FC00F0C4F903B4FFF7F2FF4C
:1002200003BC00F0CBF900002C4B19680868B0E85B
:10023000F04F80F30988BFF36F8F4FF0000080F319
:10024000118870470000000008480068006880F3CB
:1002500008884FF0000080F3148862B661B6BFF3DF
:100260004F8FBFF36F8F00DF00BF00BF08ED00E0CE
:10027000DFF80C00016841F470010160704700BFB5
:1002800088ED00E0EFF30980BFF36F8F134B1A681E
:100290001EF0100F08BF20ED108A20E9F04F10600B
:1002A00009B44FF0500080F31188BFF34F8FBFF3B4
:1002B0006F8F05F0BBF94FF0000080F3118809BC87
:1002C00019680868B0E8F04F1EF0100F08BFB0ECD6
:1002D000108A80F30988BFF36F8F704728000020D1
:1002E000EFF3058070470000094880470948004740
:1002F000FEE7FEE7FEE7FEE7FEE7FEE7FEE7FEE7D6
:10030000FEE7FEE704480549054A064B7047000032
:10031000113B000889010008905A002090600020DD
:10032000905C0020905C002053EA020C00F0698091
:100330002DE9F04B4FF00006002B1FBFB3FA83F5F9
:1003400003FA05F424FA05F65E4012BF1643B2FA2A
:1003500082F502FA05F4C5F120051EBF22FA05FC5C
:1003600044EA0C04203556EA044C4FEA144418BF02
:10037000641C4FF000084FF00009904271EB030C31
:1003800039D3002919BFB1FA81F701FA07F6B0FA9B
:1003900080F700FA07F6C7F120071EBF20FA07FC16
:1003A00046EA0C062037B6FBF4FCA7EB0507103F26
:1003B00007F01F0BCBF120060CFA0BFB2CFA06F60C
:1003C00044BFB3460026202FA4BF5E464FF0000B6B
:1003D0005BEA060C08BF4FF0010B19EB0B09ABFBF6
:1003E000027C48EB0608C01B06FB02CC0BFB03CCCF
:1003F00071EB0C01C1E70B46024641464846BDE899
:10040000F08B13B54FF000004FF00001AFF3008008
:10041000BDE81C407047032A40F2308010F0030C06
:1004200000F0158011F8013BBCF1020F624498BF47
:1004300011F801CB00F8013B38BF11F8013BA2F1E4
:10044000040298BF00F801CB38BF00F8013B11F05F
:10045000030300F02580083AC0F0088051F8043BFF
:10046000083A51F804CBA0E80810F5E7121D5CBF6C
:1004700051F8043B40F8043BAFF30080D20724BF9F
:1004800011F8013B11F801CB48BF11F8012B24BF33
:1004900000F8013B00F801CB48BF00F8012B704782
:1004A00010B5203AC0F00B80B1E81850203AA0E80F
:1004B0001850B1E81850A0E81850BFF4F5AF5FEA43
:1004C000027C24BFB1E81850A0E8185044BF18C9F6
:1004D00018C0BDE810405FEA827C24BF51F8043B9D
:1004E00040F8043B08BF7047D20728BF31F8023BF1
:1004F00048BF11F8012B28BF20F8023B48BF00F885
:10050000012B70474FF0000200B513469446964603
:10051000203922BFA0E80C50A0E80C50B1F1200116
:10052000BFF4F7AF090728BFA0E80C5048BF0CC0C4
:100530005DF804EB890028BF40F8042B08BF704722
:1005400048BF20F8022B11F0804F18BF00F8012B94
:100550007047704770477047754600F02BF8AE46FD
:1005600005006946534620F00700854618B020B5BF
:10057000FFF7C8FEBDE820404FF000064FF000072F
:100580004FF000084FF0000B21F00701AC46ACE83B
:10059000C009ACE8C009ACE8C009ACE8C0098D46A8
:1005A000704710B50446AFF300802046BDE8104008
:1005B000FFF733BE004870472C5A0020014918202D
:1005C000ABBEFEE726000200704700BFFEE700005A
:1005D00010B5024800F002FF10BD000048030020E3
:1005E00030B52DED088B89B005466B4602AA002177
:1005F000284600F036FE002874D10298012821D048
:10060000A0F2012000286BD19DF801009DF8001098
:1006100000EB0120354908809DF803009DF8021089
:1006200000EB012000B2314948809DF805009DF89B
:10063000041040EA012000B22C4988809DF8060091
:1006400088714EE09DF806004FF6FF7101EA0060E8
:100650009DF805104FF6FF7202EA014108439DF82C
:10066000041040EA01209DF8031008432049088047
:1006700008460088002809DB08460088962805DC23
:100680000846008800F55D70088004E0184800887E
:100690008C38174908801648008815498861084633
:1006A00080694FF4B47100FB01F4E11704EB915140
:1006B000881205F0A6FC9FED0F0B53EC102B05F0F4
:1006C00019FB9FED0E0B53EC102B05F005FD05F00B
:1006D0005DFA05F067FC0649486102E002E0FFE7C9
:1006E00000BF00BF09B0BDEC088B30BDD84400206E
:1006F00064450020000000000000F83F00000000FA
:100700000000694000B58BB00120099000200790DF
:100710000120089000200190029003900490069020
:100720000E200A900020059001A9064800F006FD61
:10073000044801F0FEF80221024800F03FFC0BB033
:1007400000BD00004803002010B5024800F046FE3E
:1007500010BD00007003002010B58AB0044601AB44
:1007600003AA0021204600F07CFD30B90398A0F2D6
:10077000012000B900E000BF00BF0AB010BD0000BA
:1007800000B58BB00120099000200790012008904F
:10079000002001900290039004900E2006900A9091
:1007A0000020059001A9064800F0C8FC044801F0AB
:1007B000C0F80221024800F001FC0BB000BD0000AF
:1007C000700300209FED020A024981ED000A704784
:1007D00000007A45B000002070470000FEB50746D3
:1007E0000C4615461E464FF4007012490860002062
:1007F0008860C86008200861380A8DF80000F8B2E7
:100800008DF80100200A8DF80200E0B28DF8030097
:10081000280A8DF80400E8B28DF80500300A8DF83A
:100820000600F0B28DF8070002AB6A46024800F0FD
:10083000DAFBFEBD804500204803002010B50446C9
:100840002068B0F9000000EE100AB8EEC00A0648B1
:1008500080ED000A00F07CFA0449087000F088FA84
:100860000349087010BD0000A8000020BD00002052
:10087000BE0000200022828440210A52A0F85C20A1
:10088000A0F878209FED050A054981ED000A054989
:1008900081ED000A044981ED000A70470000000064
:1008A000B0000020AC000020A8000020052004F0CB
:1008B0002FFE104803F0FAFE1AE041F288310020C2
:1008C00003F02EF80C4908800A4803F09BFE002034
:1008D0000A490860074CB4F97830B4F95C20B4F9DF
:1008E0004010B4F92400FFF779FF022004F010FE55
:1008F000E3E70000B4450020DC000020840242420F
:1009000010B504469FED160A164880EDA00A9FED2B
:10091000140A80EDA10A9FED120A80ED060A9FEDF0
:10092000100A80ED0D0A9FED0E0A80ED140A9FED6E
:100930000C0A80ED1B0A00218184A0F84010A0F869
:100940005C10A0F878100020064981F85C0234B1F0
:1009500000231A4619461846FFF740FF00BF10BD96
:1009600000000000B44500207CB504460D46164644
:1009700020887B490988401A00B2ADF80000288819
:1009800077494988401A00B2ADF8020030887449AE
:100990008988401A00B2ADF80400724890F85C02F1
:1009A000092867D1BDF9000000EE900AF8EEE00AD0
:1009B000B0EE600A04F044F8F1EE060AB4EEE00A84
:1009C000F1EE10FA22DDBDF9000000EE900AF8EE1B
:1009D000E00AB0EE600A04F033F8BDF9000000EE62
:1009E000900AB8EEE01AC1EE000A5D48B0F90000C6
:1009F00000EE100AB8EEC00AB1EE061A00EE810A47
:100A0000BDEEC00A10EE100A00B22080BDF902004F
:100A100000EE900AF8EEE00AB0EE600A04F010F87A
:100A2000F0EE0C0AB4EEE00AF1EE10FA22DDBDF9A8
:100A3000020000EE900AF8EEE00AB0EE600A03F061
:100A4000FFFFBDF9020000EE900AB8EEE01AC1EE19
:100A5000000A4348B0F9020000EE100AB8EEC00ADE
:100A6000B0EE0C1A00EE810ABDEEC00A10EE100ABC
:100A700000B228803B4890F85C02082867D1BDF995
:100A8000000000EE900AF8EEE00AB0EE600A03F013
:100A9000D7FFF1EE060AB4EEE00AF1EE10FA22DD1D
:100AA000BDF9000000EE900AF8EEE00AB0EE600A30
:100AB00003F0C6FFBDF9000000EE900AB8EEE01AA0
:100AC000C1EE000A2648B0F9000000EE100AB8EEA8
:100AD000C00AB1EE061A00EE810ABDEEC00A10EEA1
:100AE000100A00B22080BDF9020000EE900AF8EE74
:100AF000E00AB0EE600A03F0A3FFF0EE0C0AB4EED9
:100B0000E00AF1EE10FA22DDBDF9020000EE900AD3
:100B1000F8EEE00AB0EE600A03F092FFBDF90200C1
:100B200000EE900AB8EEE01AC1EE000A0C48B0F9E7
:100B3000020000EE100AB8EEC00AB0EE0C1A00EE89
:100B4000810ABDEEC00A10EE100A00B2288020888B
:100B50000349088028884880308888807CBD000050
:100B6000E0000020B445002010B5024800F02CFF42
:100B700010BD0000C805002010B5024800F024FF99
:100B800010BD00002806002010B5024800F01CFF30
:100B900010BD00000805002010B5024800F014FF49
:100BA00010BD00006805002010B5024800F00CFFE1
:100BB00010BD00008806002010B5024800F004FFB8
:100BC00010BD0000A804002010B5024800F0FCFE93
:100BD00010BD0000E80600200146087810381823F0
:100BE000B0FBF3F20848805CC865032A05D90868A1
:100BF0006FF30900001D886503E008686FF30900C2
:100C00008865886D70470000446300080146002035
:100C10008A6A8B69CBB932B1012A0DD0022A03D07E
:100C2000032A10D10EE000BFCB6A03F08073B3F14A
:100C3000807F00D1012007E0CB6AB3F1C07F00D1F3
:100C4000012001E000E000BF34E08B69B3F5005FF4
:100C50001AD132B1012A07D0022A03D0032A11D1B6
:100C60000AE000BF01200EE0CB6A03F08073B3F10D
:100C7000807F00D1012006E0CB6AB3F1C07F00D1B4
:100C8000012000E000BF15E032B1012A05D0022AA0
:100C900004D0032A0CD103E000BF00BF012008E00C
:100CA000CB6A03F08073B3F1807F00D1012000E0B4
:100CB00000BF00BF704730B50468246824F4802466
:100CC00005682C60046863608468402C04D1046863
:100CD000A2600468E16003E00468A1600468E26067
:100CE00030BD7047052004F013FC05E000200349E7
:100CF0000860022004F00CFCF8E700009002424279
:100D000072B600BFFEE70000052004F001FC05E01C
:100D1000002003490860022004F0FAFBF8E7000015
:100D20008C024242052004F0F3FB074800F0B0F8C3
:100D300008E0002005490860034803F0AFFE0220E8
:100D400004F0E6FBF5E70000444800208802424238
:100D500010B58021044801F017F940B2034908702A
:100D60000846007810BD000000000240BF000020CF
:100D700010B54021044801F007F940B2034908705A
:100D80000846007810BD000000000240C0000020AE
:100D9000004870476445002000487047984500208F
:100DA00070477047704700000022A0F8B629A0F8ED
:100DB0004A2B0221064A11709FED060A064981ED71
:100DC000000A9FED040A054981ED000A7047000002
:100DD000D800002000000000D4000020D000002037
:100DE00070B504462068C07A401EC5B22068807A7B
:100DF000401EC6B205EB450022490844805D2071C3
:100E000020790B283AD2DFE800F02B390A39311F5C
:100E10001925063510002046FFF7C2FF2FE002F02B
:100E200091FD2046FFF7C0FF29E02046FFF7B8FFFD
:100E30000220154908701549087020E0042020712F
:100E40000020114908701AE00420207102200E4988
:100E5000087014E00420207101200B4908700EE096
:100E600002F070FD2046FFF79FFF08E02046FFF7E5
:100E700099FF04E02046FFF794FF00E000BF00BFA9
:100E800070BD0000C4000020D8000020D900002060
:100E900010B5044603F0EAFD2060FFF77DFFC4F8BB
:100EA000B809FFF775FFA06002F0EEFC9FED360A6F
:100EB00004F5CE7003F0ACFD04F5D67002F088FDA9
:100EC0009FED322ADFED321A9FED321AF7EE080A53
:100ED0009FED310A04F10C0003F06CFE9FED2F0A28
:100EE00084ED0D0A9FED2E0A84ED0E0AB2EE040A7F
:100EF00084ED0A0AB7EE000A84ED0C0AB2EE000A8D
:100F000084ED0B0A9FED212ADFED201AB1EE081ABD
:100F1000DFED1E0AB2EE050A04F16C0003F04AFE92
:100F20009FED1A2ADFED1A1AB2EE021ADFED1D0A42
:100F30009FED1D0A04F1CC0003F03CFE9FED170A63
:100F400084ED3D0A9FED190A84ED3E0AB1EE0C0ACC
:100F500084ED3A0AB2EE040A84ED3C0AB3EE0E0ABE
:100F600084ED3B0A9FED092ADFED081A9FED071A71
:100F7000DFED060AB2EE040A04F5967003F01AFEDD
:100F800003F094FD10BD00000F0BB53D0000000004
:100F90000000FA4400009642000070420000344312
:100FA000000048C3CDCCCC3D0000104200007AC305
:100FB00010B504462046FFF713FF10BD10B50246DA
:100FC00092F82030012B01D0022B06D11068406925
:100FD000084314686061002010BD506A40F480200E
:100FE00050620120F8E7F0B504460D461E4694F81D
:100FF000207020688368A86800B900E000BF012F56
:1010000001D0022F7CD103F0806030B903F0006082
:1010100018B903F08050002873D0C3F3016102298E
:1010200005D9606A40F4000060620120F0BD012033
:1010300088403060A86860B9B5F800C0E86840EA48
:101040004C5C206800F5C07000EB0110C0F800C0D7
:101050000FE0D5E901C040EACC00D5F80CC040EA69
:101060000C00D4F800C00CF5C07C0CEB011CCCF8D3
:101070000000D5F810C0206800F5C07000EB01102A
:10108000C0F804C0287D01280ED1206800F5C0708A
:1010900000EB0110406840F4807C206800F5C070CF
:1010A00000EB0110C0F804C0D079000692F806C029
:1010B00040EA0C4092F805C040EA0C2C10794CEA4A
:1010C000000C206800F5C07000EB0110C0F80CC0E7
:1010D000D078000692F802C040EA0C4092F801C0B5
:1010E00040EA0C2092F800C040EA0C00D4F800C09E
:1010F0000CF5C07C0CEB011CCCF80800206801E06A
:1011000016E00FE000F5C07000EB0110006840F041
:10111000010C206800F5C07000EB0110C0F800C0A1
:10112000002083E7606A40F40010606201207DE7E0
:10113000606A40F480206062012077E7F0B50446E1
:101140000A46216894F82050012D01D0022D7ED14D
:10115000424901F50071086840F001000860086824
:1011600020F47C5008600868566A40EA062008604F
:10117000107D00F01F06012000FA06F3C8699843AD
:10118000C861A1F50071D069C8B9D1F80C029843C3
:10119000C1F80C02908880B2968940EA064601F5B3
:1011A0001070576940F83760108880B2168940EA9D
:1011B000064601F51070576900EBC7004660D0691C
:1011C000012819D1D1F80C021843C1F80C029088FB
:1011D00080B2168840EA064601F51070576940F85B
:1011E0003760908980B2168940EA064601F5107092
:1011F000576900EBC7004660906928B9D1F804022E
:101200009843C1F8040204E0D1F804021843C1F87D
:101210000402106928B9D1F814029843C1F81402E5
:1012200004E0D1F814021843C1F81402106A01282E
:1012300004D1D1F81C021843C1F81C02D1F80002F5
:1012400020F00100C1F800020020F0BDFFE7606A55
:1012500040F4802060620120F7E700000064004055
:10126000704770B5044694F82050012D01D0022D2E
:101270007DD151B92068C06800F0030080B9606A70
:1012800040F400106062012070BD2068006900F029
:10129000030028B9606A40F4001060620120F3E79F
:1012A000206800F5D87000EB0110006800F0040021
:1012B0009060906840B9206800F5D87000EB01108C
:1012C0000068400D106007E0206800F5D87000EB62
:1012D00001100068C0085060206800F5D87000EB6D
:1012E0000110006800F00200D060206800F5D8709E
:1012F00000EB0110406800F00F001061206800F55D
:10130000D87000EB0110406800F47F40000A906143
:10131000206800F5D87000EB01104068000C5061A7
:10132000206800F5D87000EB011080681870206804
:1013300000F5D87000EB0110806800F47F40000ACF
:101340005870206800F5D87000EB0110806800F438
:101350007F00000C9870206800F5D87000EB011039
:101360008068000ED870206800F5D87000E02FE08B
:1013700000EB0110C0681871206800F5D87000EB10
:101380000110C06800F47F40000A5871206800F521
:10139000D87000EB0110C06800F47F00000C987159
:1013A000206800F5D87000EB0110C068000ED871FD
:1013B00031B92068C06840F020002668F06005E080
:1013C0002068006940F020002668306100205BE75B
:1013D000606A40F480206062012055E72DE9F05FEB
:1013E00004460025206846692068D0F804902068EB
:1013F00087682068D0F80CA02068D0F810B020686A
:10140000D0F8188006F00100002855D007F0010040
:10141000C0B101202168886007F0020018B12046A1
:1014200000F0B7FA0EE007F0040010B145F40065D3
:1014300008E007F0080010B145F4805502E02046AE
:1014400000F0A6FA07F48070C8B14FF480702168EC
:10145000886007F4007018B1204600F09CFA0EE096
:1014600007F4806010B145F4005508E007F400600F
:1014700010B145F4804502E0204600F08BFA07F4F5
:101480008030C8B14FF480302168886007F40030A4
:1014900018B1204600F081FA0EE007F4802010B168
:1014A00045F4004508E007F4002010B145F480350C
:1014B00002E0204600F070FA06F0080038B10AF0A9
:1014C000100020B145F4007510202168C86006F0B6
:1014D000040040B10AF0080028B108202168C86063
:1014E000204600F00DFA06F0020038B12068C0680E
:1014F00000F0030010B1204600F004FA06F04000AE
:1015000038B10BF0100020B145F48065102021683F
:10151000086106F0200040B10BF0080028B1082057
:1015200021680861204600F001FA06F0100038B189
:101530002068006900F0030010B1204600F0F7F9C0
:1015400006F4003040B109F0100028B110202168E5
:101550004860204600F0ECF906F4803040B109F014
:10156000080028B1082021684860204600F016FADB
:1015700006F4004088B309F0040078B306F48070E4
:1015800020B108F0010008B145F0010506F4007033
:1015900020B108F0020008B145F0020506F48060B1
:1015A00020B108F0040008B145F0040506F400601D
:1015B000A0B108F0700088B108F07000402817D082
:1015C00006DC10280BD020280CD0302819D10CE0D4
:1015D000502810D0602814D110E01DE019E045F02B
:1015E00008050FE045F010050CE045F0200509E086
:1015F00045F0400506E045F0800503E045F48075C0
:1016000000E000BF00BF2068806920F07000216802
:1016100088610420216848602DB1606A28436062B7
:101620002046FFF71DFEBDE8F09F70B504460CB9DB
:10163000012070BD94F8200010B9204600F0B0F8E9
:101640002068006820F002002168086000F0AAFC11
:1016500005460DE000F0A6FC401B0A2808D9606A88
:1016600040F400306062052084F820000120E0E7AB
:101670002068406800F002000028EBD12068006874
:1016800040F001002168086000F08CFC05460DE088
:1016900000F088FC401B0A2808D9606A40F400303A
:1016A0006062052084F820000120C2E720684068BD
:1016B00000F001000028EBD0207E012806D1206830
:1016C000006840F080002168086005E0206800683C
:1016D00020F0800021680860607E012806D1206823
:1016E000006840F040002168086005E0206800685C
:1016F00020F0400021680860A07E012806D1206803
:10170000006840F020002168086005E0206800685B
:1017100020F0200021680860E07E012806D12068C2
:10172000006820F010002168086005E0206800686B
:1017300040F0100021680860207F012806D1206851
:10174000006840F008002168086005E02068006833
:1017500020F0080021680860607F012806D1206819
:10176000006840F004002168086005E02068006817
:1017700020F0040021680860D4E9020108432169CF
:101780000843616908436168491E08432168C861CC
:1017900000206062012084F82000002049E700005A
:1017A00010B586B00446142101A8FEF7ABFE4E49E1
:1017B0002068884241D14D480068401C4B49086070
:1017C0000846006801280FD100BF0020009048485B
:1017D000006840F00070464908600846006800F064
:1017E0000070009000BF00BF00BF00200090404884
:1017F0001038006840F008003D491039086008467C
:10180000006800F00800009000BF00BF03200190B6
:1018100002200290002003900320049009200590EC
:1018200001A9344800F0B0FA00220521142000F08C
:1018300067FC142000F054FC54E02F4920688842D3
:1018400050D100BF002000902948006840F080601F
:10185000274908600846006800F08060009000BFDB
:1018600000BF22480068401C204908600846006804
:1018700001280FD100BF002000901D48006840F0F3
:1018800000701B4908600846006800F00070009076
:1018900000BF00BF00BF002000901548103800684E
:1018A00040F002001249103908600846006800F054
:1018B0000200009000BF00BF602001900220029053
:1018C00000200390032004900920059001A90B48F3
:1018D00000F05AFA00220521402000F011FC4020BF
:1018E00000F0FEFB06B010BD0064004014000020B4
:1018F00040380240000C02400068004000040240F2
:101900007047000010B504460648844202D12046C4
:10191000FEF766FE0448844202D12046FEF71CFF13
:1019200010BD00004803002070030020704770477E
:10193000704770B5044694F82000012822D1022097
:1019400084F820002068006820F001002168086009
:1019500000F028FB05460DE000F024FB401B0A28A0
:1019600008D9606A40F400306062052084F82000E5
:10197000012070BD2068406800F001000028EBD114
:101980006062F6E7606A40F4002060620120F0E7E0
:1019900070477047704770477047704770470146FF
:1019A00091F83500022803D0802048650120704757
:1019B000052081F835000868006820F001000A68F9
:1019C00010600020F3E70000F8B504460020009006
:1019D0008C4800684FF41651B0FBF1F7A56D2E68E6
:1019E00094F85C1008208840304098B12068006866
:1019F00000F0040070B12068006820F00400216845
:101A0000086094F85C1008208840A860606D40F081
:101A10000100606594F85C1001208840304068B196
:101A20002068406900F0800040B194F85C1001200B
:101A30008840A860606D40F00200606594F85C101A
:101A400004208840304068B12068006800F002003F
:101A500040B194F85C1004208840A860606D40F0AC
:101A60000400606594F85C1010208840304078B322
:101A70002068006800F0080050B394F85C10102053
:101A80008840A8602068006800F4802080B1206849
:101A9000006800F4002028B9206CC8B12046216CF1
:101AA000884715E0A06C98B12046A16C88470FE0EC
:101AB0002068006800F4807028B92068006820F071
:101AC000080021680860206C10B12046216C88470E
:101AD00094F85C10202088403040002865D02068B1
:101AE000006800F0100000285FD094F85C102020FF
:101AF0008840A86094F83500052828D1206800683F
:101B000020F01600216808602068406920F08000FD
:101B100021684861206C08B9A06C28B12068006871
:101B200020F008002168086094F85C103F2088408D
:101B3000A86000BF002084F8340000BF012084F8B2
:101B40003500206D10B12046216D8847F8BD206812
:101B5000006800F4802080B12068006800F4002054
:101B600028B9606C10B12046616C88471DE0E06BBD
:101B7000D8B12046E16B884717E02068006800F480
:101B8000807068B92068006820F010002168086043
:101B900000BF002084F8340000BF012084F8350025
:101BA000E06B10B12046E16B8847606D38B3606D23
:101BB00000F00100F0B1052084F8350020680068CD
:101BC00020F001002168086000BF0098401C0090D0
:101BD000B84200D905E02068006800F00100002844
:101BE000F3D100BF00BF002084F8340000BF012003
:101BF00084F83500E06C10B12046E16C884700BFE6
:101C0000A4E70000240000202DE9F041044600254F
:101C100000F0C8F9074614B90120BDE8F081606AF8
:101C200000B100BF00BF002084F8340000BF0220D4
:101C300084F835002068006820F001002168086001
:101C40000AE000F0AFF9C01B052805D92020606527
:101C5000032084F83500E0E72068006800F0010008
:101C60000028EED12068056821480540D4E901012B
:101C70000843E16808432169084361690843A16991
:101C80000843E1690843216A08430543606A042860
:101C900003D1D4E90B01084305432068056020689F
:101CA000456925F00705606A0543606A04280DD17F
:101CB000A06A0543E06A48B12046FEF7A7FF28B1B5
:101CC00040206065012084F83500A6E72068456162
:101CD0002046FEF781FF064694F85C103F208840BE
:101CE000B06000206065012084F83500002094E792
:101CF0003F8010F02DE9F04704460D4616461F467A
:101D00004FF00008D4F8589000BF94F83400012830
:101D100002D10220BDE8F087012084F8340000BF22
:101D200094F83500012825D1022084F835000020E0
:101D300060653B46324629462046FEF7BCFF94F8D4
:101D40005C103F208840C9F808002068006840F017
:101D5000160021680860206C28B12068006840F0F7
:101D60000800216808602068006840F001002168D0
:101D7000086006E000BF002084F8340000BF4FF088
:101D800002084046C6E70000F8B502460B460025AB
:101D9000002400200021DCE0012606FA01F51E687F
:101DA00006EA0504AC4273D15E68012E08D05E6875
:101DB000022E05D05E68112E02D05E68122E13D15D
:101DC00090684F000326BE40B0434F00DE68BE401F
:101DD00030439060506801268E40B0431E79C6F3B0
:101DE00000168E4030435060D0684F000326BE403E
:101DF000B0434F009E68BE403043D0605E68022E04
:101E000002D05E68122E13D1CF0802F1200656F8D8
:101E100027004E07F70E0F26BE40B0434F07FF0EB8
:101E20001E69BE403043CF0802F1200646F8270065
:101E300010684F000326BE40B0431E7906F003062B
:101E40004F00BE40304310605E6806F08056B6F129
:101E5000805F7DD100BF00260096404E366846F474
:101E600080463E4F3E603E46366806F48046009609
:101E700000BF00BF3A4E8F0856F827008E07370F75
:101E80000F26BE40B043374EB24202D1002624E0B6
:101E90005EE0354EB24201D101261EE0334EB24221
:101EA00001D1022619E0324EB24201D1032614E0DC
:101EB000304EB24201D104260FE02F4EB24201D182
:101EC00005260AE02D4EB24201D1062605E02C4E31
:101ED000B24201D1072600E008268F073F0FBE401F
:101EE00030431F4E8F0846F82700264E3068A04327
:101EF0005E6806F48036B6F5803F00D12043214E5F
:101F00003060361D3068A0435E6806F40036B6F5D2
:101F1000003F00D120431B4E361D3060361D306817
:101F2000A0435E6806F48016B6F5801F00D12043FA
:101F3000144E08363060361D3068A0435E6806F4E3
:101F40000016B6F5001F00D120430E4E0C3630604F
:101F5000491C1029FFF420AFF8BD000044380240AE
:101F6000083801400000024000040240000802401E
:101F7000000C024000100240001402400018024011
:101F8000001C0240003C0140024613690B400BB1AB
:101F9000012000E0002070470AB1816101E00B04DC
:101FA00083617047014800687047000018000020F6
:101FB00003480068034909780844014908607047EC
:101FC000180000202000002010B50D48006840F4E3
:101FD00000700B4908600846006840F480600860A3
:101FE0000846006840F480700860032000F0C6F8DE
:101FF000002000F007F800F049F8002010BD0000B4
:10200000003C024070B588B004460025002600223E
:1020100021461C2000F074F81C2000F061F800BF7D
:10202000002001901648006840F001001449086043
:102030000846006800F00100019000BF00BF02A93F
:1020400003A800F071F900F097F945000D48B5FBC1
:10205000F0F0461E4FF080400B49086040F2E73137
:102060000948C160466000210161816000F0B4FC54
:1020700020B9054800F0CBFC08B070BD0120FBE79B
:102080004038024040420F004807002008B500BF1A
:10209000002000901148006840F480400F4908601B
:1020A0000846006800F48040009000BF00BF00BFF9
:1020B00000200090081F006840F08050091F086051
:1020C0000846006800F08050009000BF00BF00226A
:1020D0000F21901E00F014F808BD000044380240A3
:1020E00001460846002809DB00F01F0301229A4040
:1020F00043099B0003F1E023C3F8002100BF7047B0
:102100002DE9F05F80460D461646002702F0AEF935
:10211000074639462A46334601F00700C0F1070A50
:10212000BAF1040F02D94FF0040A01E0C0F1070A26
:10213000D14600F1040ABAF1070F02D24FF0000AAB
:1021400001E0A0F1030AD4464FF0010A0AFA09FAA5
:10215000AAF1010A0AEA020A0AFA0CFA4FF0010B84
:102160000BFA0CFBABF1010B0BEA030B4AEA0B0475
:102170002146404602F082F9BDE8F09F00BF00F022
:102180000702064B19684FF6FF031940044B0B4337
:1021900043EA0221014B196000BF70470CED00E0DB
:1021A0000000FA0570B504460D460CB9012070BD5B
:1021B0005848006800F00F00A84209D255490D7038
:1021C0000846006800F00F00A84201D00120EEE7A9
:1021D000207800F0020002281DD1207800F00400D1
:1021E000042805D14C48006840F4E0504A49086092
:1021F000207800F00800082805D14748006840F41E
:102200006040454908604448006820F0F000A1683B
:10221000084341490860207800F00100A8B36068D5
:10222000012807D13C4808380068C0F34040B8B9DD
:102230000120BCE76068022802D06068032807D14B
:10224000354808380068C0F3406048B90120AEE75F
:10225000314808380068C0F3400008B90120A6E7FB
:102260002D48006820F00300616808432A4908608F
:10227000FFF798FE064609E0FFF794FE801B41F247
:102280008831884202D9032091E707E0224800689C
:1022900000F00C006168B0EB810FEDD11D480068C3
:1022A00000F00F00A84209D91A490D7008460068CD
:1022B00000F00F00A84201D0012078E7207800F05C
:1022C0000400042807D11448006820F4E050E168B5
:1022D000084311490860207800F00800082808D158
:1022E0000D48006820F46040216940EAC1000A49B5
:1022F000086000F061F808490968C1F30311074A52
:10230000515CC8400649086006480068FFF77AFE3D
:1023100000204CE7003C0240083802404C630008B3
:10232000240000201C0000200F2202600D4A1268C9
:1023300002F0030242600B4A126802F0F00282606F
:10234000084A126802F4E052C260064A126802F4B7
:102350006042D2080261044A126802F00F020A6069
:102360007047000008380240003C02400148006805
:10237000704700002400002000B5FFF7F7FF044974
:102380000968C1F38221034A515CC84000BD0000C6
:10239000083802405C63000800B5FFF7E7FF044916
:1023A0000968C1F34231034A515CC84000BD0000D6
:1023B000083802405C6300082DE9F047002400253E
:1023C0000026A1462548006800F00C0020B1042832
:1023D00005D008283AD105E0DFF8849039E0DFF82D
:1023E000849036E01D48001F006800F03F041B4841
:1023F000001F006800F4800078B11A481749091FCF
:102400000968C1F38811A0FB017001462246002330
:102410003846FDF789FF05460EE011480F49091FB0
:102420000968C1F38811A0FB017001462246002310
:102430003846FDF779FF05460848001F0068C0F3DD
:102440000140401C4600B5FBF6F902E0DFF81090B1
:1024500000BF00BF4846BDE8F087000008380240D2
:102460000024F40040787D01F8B504460CB9012041
:10247000F8BD207800F00100002874D0F948006809
:1024800000F00C0004280DD0F648006800F00C00A5
:10249000082813D1F348001F006800F48000B0F54D
:1024A000800F0BD1EF4808380068C0F34040002887
:1024B00059D06068002856D10120D9E700BF606874
:1024C000B0F5803F08D1E7480838006840F4803014
:1024D000E449083908601EE06068B0F5A02F0DD10E
:1024E000E0480838006840F48020DE490839086078
:1024F0000846006840F4803008600CE0D94808388D
:10250000006820F48030D749083908600846006820
:1025100020F48020086000BF606890B1FFF742FDA2
:10252000054606E0FFF73EFD401B642801D9032065
:102530009EE7CC4808380068C0F340400028F1D03E
:1025400011E0FFF72FFD054606E0FFF72BFD401BCE
:10255000642801D903208BE7C24808380068C0F31B
:1025600040400028F1D1207800F0020002285FD11D
:10257000BC48006800F00C0058B1BA48006800F090
:102580000C0008281CD1B748001F006800F4800028
:10259000B0B9B44808380068C0F3400020B1E06822
:1025A000012801D0012063E7AE480838006820F018
:1025B000F800216940EAC100AA490839086037E0FB
:1025C000E06800B30120A8490860FFF7EBFC05466E
:1025D00006E0FFF7E7FC401B022801D9032047E78C
:1025E000A04808380068C0F340000028F1D09D489A
:1025F0000838006820F0F800216940EAC1009949D4
:102600000839086014E0002097490860FFF7CAFC09
:10261000054606E0FFF7C6FC401B022801D903204F
:1026200026E7904808380068C0F340000028F1D140
:10263000207800F0080008282CD16069A8B101209A
:102640008A490860FFF7AEFC054606E0FFF7AAFCE2
:10265000401B022801D903200AE782486C30006839
:10266000C0F340000028F1D014E000207F4908604A
:10267000FFF798FC054606E0FFF794FC401B022894
:1026800001D90320F4E677486C300068C0F34000BD
:102690000028F1D1207800F00400042870D1002730
:1026A00070483830006800F0805090B900BF0020BA
:1026B00000906C483830006840F0805069493831EB
:1026C00008600846006800F08050009000BF00BF1E
:1026D00001276748006800F48070B0B9644800685A
:1026E00040F4807062490860FFF75CFC054606E034
:1026F000FFF758FC401B022801D90320B8E65C48CC
:10270000006800F480700028F2D000BFA0680128A3
:1027100008D154486830006840F0010051496831E0
:1027200008601DE0A06805280DD14E48683000689B
:1027300040F004004B49683108600846006840F0EA
:10274000010008600CE047486830006820F0010094
:102750004449683108600846006820F004000860B9
:1027600000BFA068A8B1FFF71DFC054609E0FFF710
:1027700019FC401B41F28831884202D9032077E6D8
:1027800026E0384868300068C0F340000028EED0EA
:1027900013E0FFF707FC054608E0FFF703FC401BCA
:1027A00041F28831884201D9032061E62D48683022
:1027B0000068C0F340000028EFD1012F07D129485D
:1027C0003830006820F0805026493831086000BF5A
:1027D000A069002845D02348006800F00C000828B4
:1027E0005DD0A069022845D100201F490866FFF787
:1027F000D9FB054606E0FFF7D5FB401B022801D9AF
:10280000032035E6174808380068C0F34060002808
:10281000F1D1D4E907010843616A40EA811101223C
:10282000A06AC2EB500041EA00412C20005D41EA61
:1028300000600C49091F086001200B490866FFF77A
:10284000B1FB054606E0FFF7ADFB401B022801D9AE
:1028500003200DE6034808380068C0F340600028F4
:10286000F1D03FE00838024000004742800E474266
:102870000070004000201C490866FFF793FB0546E6
:1028800006E0FFF78FFB401B022801D90320EFE58C
:1028900016480068C0F340600028F2D122E0A06929
:1028A000012800D1E4E51148001D066806F4800106
:1028B000E069814214D106F03F01206A81420FD1C4
:1028C00047F6C0703040616A884209D106F4403151
:1028D000A06A814204D106F07061E06A814201D0B1
:1028E0000120C5E50020C3E5000047420038024052
:1028F0002DE9F04104460E46002700BF207901284B
:1029000002D10220BDE8F0810120207100BF607972
:10291000012822D102206071FFF744FB05460EE03A
:10292000FFF740FB401B022809D9012060710220FB
:10293000A06000BF0020207100BF0120E2E72068F6
:10294000406800F001000028EAD020688068E0605C
:10295000E06830600120607102E00420A06001277F
:1029600000BF0020207100BF3846CBE710B50446F9
:102970000CB9012010BD607920B9002020712046DB
:1029800000F00EF8022060712068006840F004003A
:1029900021680860012060710020A06000BFE9E7A5
:1029A00008B50A4A016891420FD100BF0021009189
:1029B0000749096841F04001054A1160114609685C
:1029C00001F04001009100BF00BF08BD00080650A3
:1029D000343802407047704710B504460CB90120E6
:1029E00010BD94F83D0028B9002084F83C00204632
:1029F00000F00CF8022084F83D00211D206801F051
:102A0000A7F8012084F83D000020E9E7704701465F
:102A10000868C06840F001000B68D86008688068EA
:102A200000F00702062A05D00868006840F001009F
:102A30000B68186000207047704710B50446206886
:102A40000069C0F34000D8B12068C068C0F34000FE
:102A5000B0B16FF002002168086101202077206882
:102A6000806900F0030018B12046FFF7E5FF05E09C
:102A7000204600F0ADF8204600F0ABF800202077AB
:102A800020680069C0F38000D8B12068C068C0F336
:102A90008000B0B16FF00400216808610220207747
:102AA0002068806900F4407018B12046FFF7C4FF29
:102AB00005E0204600F08CF8204600F08AF800205F
:102AC000207720680069C0F3C000D8B12068C068D2
:102AD000C0F3C000B0B16FF00800216808610420A5
:102AE00020772068C06900F0030018B12046FFF786
:102AF000A3FF05E0204600F06BF8204600F069F8DF
:102B00000020207720680069C0F30010D8B1206849
:102B1000C068C0F30010B0B16FF010002168086108
:102B2000082020772068C06900F4407018B1204662
:102B3000FFF782FF05E0204600F04AF8204600F04B
:102B400048F8002020772068006900F0010058B1A3
:102B50002068C06800F0010030B16FF0010021680A
:102B60000861204600F036F820680069C0F3C01004
:102B700058B12068C068C0F3C01030B16FF0800059
:102B8000216808612046FFF725FF20680069C0F32F
:102B9000801058B12068C068C0F3801030B16FF069
:102BA000400021680861204600F01DF82068006997
:102BB000C0F3401058B12068C068C0F3401030B175
:102BC0006FF02000216808612046FFF704FF10BD68
:102BD0007047704710B504462068B0F1804F01D1AE
:102BE000FFF7E6F910BD7047704700002DE9F04788
:102BF0000446206805682068C668206847694FF069
:102C00000008C14605F00F08B8F1000F0AD105F021
:102C1000200038B106F0200020B1204601F08AF8EB
:102C2000BDE8F087B8F1000F72D007F0010018B9C5
:102C300006F4907000286BD005F0010030B106F466
:102C4000807018B1E06B40F00100E06305F0040013
:102C500030B107F0010018B1E06B40F00200E06312
:102C600005F0020030B107F0010018B1E06B40F050
:102C70000400E06305F0080048B106F0200010B938
:102C800007F0010018B1E06B40F00800E063E06B72
:102C900070B305F0200028B106F0200010B12046E6
:102CA00001F048F820684069C0F38019E06B00F03B
:102CB000080010B9B9F1000F23D0204601F010F838
:102CC0002068406900F04000402816D12068406923
:102CD00020F0400021684861606B50B11748616B7B
:102CE0000865606BFEF75BFE10B1606B016D884795
:102CF0000CE02046FFF778FF08E02046FFF774FF5E
:102D000004E02046FFF770FF0020E06388E7FFE75C
:102D100005F0800030B106F0800018B1204601F0C7
:102D200051FA7DE705F0400030B106F0400018B1DF
:102D3000204600F0E5FF73E700BF71E7293C00087B
:102D400010B504460CB9012010BDA06900B100E027
:102D500000BF94F8390028B9002084F838002046D4
:102D600000F028F8242084F839002068C06820F496
:102D700000502168C860204601F030F820680069E2
:102D800020F49040216808612068406920F02A0002
:102D9000216848612068C06840F400502168C8601C
:102DA0000020E063202084F8390084F83A000020F5
:102DB000CAE7000010B586B00446142101A8FDF74B
:102DC000A1FBF849206888425BD100BF0020009039
:102DD000F548006840F01000F349086008460068B4
:102DE00000F01000009000BF00BF00BF0020009066
:102DF000ED481438006840F00100EB4914390860D0
:102E00000846006800F00100009000BF00BF4FF4CA
:102E1000C0600190022002900020039003200490E3
:102E20000720059001A9E148FEF7AEFFE048E1491F
:102E300008604FF0006048600021DE488160C1609A
:102E40004FF4806101610021416181614FF4807123
:102E5000C1614FF44031016200214162FEF7D4FEAE
:102E600008B1FDF74DFF00BFD2486063846300BF27
:102E7000002205212520FFF743F92520FFF730F92F
:102E80008EE1CD49206888427FD100BF00200090AC
:102E9000C548001F006840F40030C349091F08609E
:102EA0000846006800F40030009000BF00BF00BF7B
:102EB00000200090BC481438006840F00800BA496F
:102EC000143908600846006800F00800009000BF50
:102ED00000BF602001900220029000200390032098
:102EE00004900720059001A9B448FEF74DFFB448AF
:102EF000B44908604FF0006048600021B14881602B
:102F0000C1604FF4806101610021416181614FF432
:102F10008071C1614FF44031016200214162FEF7CE
:102F200073FE08B1FDF7ECFE00BFA6486063846342
:102F300000BFA3481830A44908604FF00060486003
:102F40004021A14881600021C1604FF4806101618E
:102F5000002141618161C1614FF440310162002172
:102F60004162FEF751FE08B1FDF7CAFE00BF964868
:102F70002063846300BF002205212620FFF7C0F8EC
:102F80002620FFF7ADF80BE1FFE790492068884263
:102F90007DD100BF002000908348001F006840F4EE
:102FA00080208149091F08600846006800F48020DD
:102FB000009000BF00BF00BF002000907A48143886
:102FC000006840F008007849143908600846006835
:102FD00000F00800009000BF00BF4FF44070019067
:102FE0000220029000200390032004900720059007
:102FF00001A97248FEF7C8FE71486038744908603C
:103000004FF000604860002171488160C1604FF45A
:10301000806101610021416181614FF48071C16172
:103020004FF44031016200214162FEF7EDFD08B12D
:10303000FDF766FE00BF66486063846300BF6048BA
:103040003038644908604FF00060486040216148B2
:1030500081600021C1604FF4806101610021416104
:1030600081614FF48071C1614FF4403101620021F0
:103070004162FEF7C9FD08B1FDF742FE00BF5548A9
:103080002063846300BF00220521272000E005E0C3
:10309000FFF736F82720FFF723F881E04E49206834
:1030A00088427DD100BF002000903F48006840F07A
:1030B00020003D4908600846006800F020000090AC
:1030C00000BF00BF00BF00200090374814380068E0
:1030D00040F004003449143908600846006800F0E4
:1030E0000400009000BF00BFC020019002200290A9
:1030F00000200390032004900820059001A9374880
:10310000FEF742FE2A4818383549086080054860B5
:10311000002133488160C1604FF48061016100216A
:10312000416181614FF48071C1614FF440310162AE
:1031300000214162FEF768FD08B1FDF7E1FD00BF27
:1031400027486063846300BF1948603025490860E0
:103150004FF0206048604021224881600021C1601A
:103160004FF4806101610021416181614FF4807100
:10317000C1614FF44031016200214162FEF744FD1C
:1031800008B1FDF7BDFD00BF16482063846300BF92
:10319000002205214720FEF7B3FF4720FEF7A0FFDE
:1031A00006B010BD0010014044380240000002404B
:1031B00040640240A804002000440040000C02408B
:1031C0008860024008050020680500200048004093
:1031D000C805002028060020001401400008024015
:1031E00088060020E806002077B581B00446154621
:1031F00094F83A00202850D1029800B115B9012066
:1032000004B070BD00BF94F83800012801D102203D
:10321000F6E7012084F8380000BF0298A062A58577
:103220000020E063222084F83A001D48616BC863E7
:103230001C48616B08641C48616BC8640020616BAA
:10324000086502AE32682368191D2B46606BFEF7D5
:1032500051FD00BF002000902068006800902068A9
:103260004068009000BF00BF00BF002084F8380015
:1032700000BF2068C06840F480702168C860206882
:10328000406940F00100216848612068406940F0D1
:103290004000216848610020B2E70220B0E700004A
:1032A0008D3C0008D33C00083D3C00087047704747
:1032B000704700BFFEE70000022002F029F90FE08E
:1032C0000120084908600849C1F88402054908310D
:1032D0000860091D0860091D0860022002F018F945
:1032E000EEE70000800242420000424210B52DEDA0
:1032F000028B0446B0EE408A94ED050A30EE480A8F
:1033000084ED150A94ED150AD4ED160A30EE200A64
:10331000B0EE001AC0EE010A94ED110A30EE800AF8
:1033200084ED110A94ED110ABDEEC00A10EE100AE8
:10333000254A514201F0CAFB00EE100AB8EEC00A5D
:1033400084ED110A94ED150AD4ED160A30EE600AE8
:1033500084ED120A94ED000AD4ED150A20EE200A3D
:10336000D4ED010A94ED111A00EE810AD4ED020A9F
:1033700094ED121A00EE810A84ED0C0A94ED000A15
:10338000D4ED150A20EE200A84ED0E0A94ED010A10
:10339000D4ED110A20EE200A84ED0F0A94ED020A02
:1033A000D4ED120A20EE200A84ED100A94ED150ADD
:1033B00084ED160A94ED0C0ABDEEC00A10EE100A58
:1033C000BDEC028B10BD0000F0D8FFFF10B50E4819
:1033D0000E4908600320486000210C488160C160EC
:1033E0004FF4E02101614FF4800141610021017639
:1033F00041768176C17601774177FEF716F908B1FB
:10340000FDF77EFC10BD0000006400404803002072
:1034100010B50E480E4908600320486000210C4892
:103420008160C1604FF4E02101614FF4800141618E
:103430000021017641768176C17601774177FEF7EA
:10344000F4F808B1FDF75CFC10BD00000068004016
:103450007003002008B500BF002000902A480068D3
:1034600040F48000284908600846006800F48000A5
:10347000009000BF00BF00BF002000900846006819
:1034800040F4001008600846006800F40010009046
:1034900000BF00BF002205210C20FEF731FE0C20EA
:1034A000FEF71EFE002205210E20FEF729FE0E204B
:1034B000FEF716FE002205211020FEF721FE102047
:1034C000FEF70EFE002205211120FEF719FE112045
:1034D000FEF706FE002205213920FEF711FE3920F5
:1034E000FEF7FEFD002205213A20FEF709FE3A20F4
:1034F000FEF7F6FD002205214520FEF701FE4520DE
:10350000FEF7EEFD08BD00003038024000B5A3B064
:103510001C221E491CA8FCF7C3FF00211CA801F0B7
:103520001AFB1B4908601C2218491C3115A8FCF71E
:10353000B7FF002115A801F00EFB164908601C22F8
:10354000124938310EA8FCF7ABFF00210EA801F09C
:1035500002FB114908601C220C49543107A8FCF7F2
:103560009FFF002107A801F0F6FA0C4908601C2211
:10357000064970316846FCF793FF0021684601F068
:10358000EAFA0749086023B000BD0000B8620008ED
:103590000000002004000020080000200C00002093
:1035A0001000002000B587B0142102A8FCF7AAFF84
:1035B00000BF002001904248006840F010004049E0
:1035C00008600846006800F01000019000BF00BFCE
:1035D00000BF002001900846006840F080000860AD
:1035E0000846006800F08000019000BF00BF00BFE7
:1035F000002001900846006840F00100086008467D
:10360000006800F00100019000BF00BF00BF002073
:1036100001900846006840F008000860084600680D
:1036200000F00800019000BF00BF00BF0020019023
:103630000846006840F0040008600846006800F092
:103640000400019000BF00BF00BF002001900846A9
:10365000006840F0020008600846006800F00200C0
:10366000019000BF00BF01221F211648FEF794FC05
:10367000012280211448FEF78FFC1F2002900120B8
:10368000039004900220059002A90E48FEF77CFBEF
:10369000C0200290002003900220049002A90B4851
:1036A000FEF772FB8020029001200390049002201C
:1036B000059002A90448FEF767FB07B000BD0000B3
:1036C0003038024000100240000402400000024076
:1036D00010B50548054908600846FFF747F908B1E5
:1036E000FDF70EFB10BD00000008065098030020F7
:1036F00010B50B480B4908600B4848600021094889
:103700008160C1604FF4806101610C214161002141
:103710008161C161FFF714FB08B1FDF7F1FA10BD3B
:1037200000100140A8030020A086010010B50B483E
:103730000B4908604FF4E13048600021084881607F
:10374000C16001610C21416100218161C161FFF70C
:10375000F7FA08B1FDF7D4FA10BD000000440040AC
:10376000E803002010B50B480B4908604FF4E13026
:103770004860002108488160C16001610C214161FD
:1037800000218161C161FFF7DBFA08B1FDF7B8FAEA
:1037900010BD0000004800402804002010B50B4870
:1037A0000B4908604FF4E13048600021084881600F
:1037B000C16001610C21416100218161C161FFF79C
:1037C000BFFA08B1FDF79CFA10BD000000140140DB
:1037D0006804002000BFFEE700BFFEE710B5234BE2
:1037E0001B685B6943F04003204C246863611F4BF6
:1037F0001B68DB6843F010031C4C2468E3601C4B1F
:103800001B681B6823F00103194C2468236007E040
:10381000174B1B681B6823F00103154C24682360B9
:10382000134B1B681B6803F00103002BF0D1114BF5
:103830000F4C2468A3600E4B1B68D8600C4B1B68B0
:1038400019610B4B1B685A60094B1B681B6843F4DA
:103850008023074C24682360054B1B681B6843F0DA
:103860000103034C2468236010BD0000A80300205E
:10387000A8040020041001400146002901DD08468B
:103880007047484200B2FBE710B52449B1F9000087
:10389000FFF7F2FFB0F52F7F00DD24E01F49B1F9FB
:1038A0000200FFF7E9FFB0F52F7F00DD1BE01B49A9
:1038B000B1F90400FFF7E0FFB0F52F7F00DD12E063
:1038C0001649B1F90600FFF7D7FFB0F52F7F00DDED
:1038D00009E01248807A00B905E01048C07A00B9C2
:1038E00001E0002010BD00200C490880488088803D
:1038F000C88008810220887202210848C172002015
:103900000649888100210548C18101828174C17402
:103910000020024988820120E4E70000784400206A
:1039200038B504460D4669460548FEF7E1FF281BF9
:10393000401C0099B1FBF0F200FB1210204438BD8E
:103940009803002000200849088048808880C880AB
:103950000881888100210448C18101828174C17479
:103960000020014988827047784400202DE9F04109
:1039700004460D4616461F4600EE105AB8EEC00A21
:1039800084ED050A00EE106AB8EEC00A84ED060A5E
:10399000D4ED060AB0EE600A2046FFF7A7FC0749FF
:1039A00008607A4239460548006801F08FF80349FB
:1039B00008600846008800B2BDE8F0818800002059
:1039C000052001F0A5FD02E0022001F0A1FDFBE7CA
:1039D0000021416000BF09E09FED0F0A10EE102AA0
:1039E00000F1100303EB81031A60491C1429F3DB77
:1039F0009FED090A10EE101A01609FED070A10EE04
:103A0000101A81609FED040A10EE101AC1600021A7
:103A1000C0F8F813704700000000000000BF01204C
:103A200001F088F8FBE7000010B500BF502080F3DC
:103A30001188BFF34F8FBFF36F8F00BF01F080FF7E
:103A400018B14FF080500449086000BF002080F397
:103A5000118800BF10BD000004ED00E000B593B078
:103A6000302107A8FCF74EFD142102A8FCF74AFDFF
:103A700000BF002001902448006840F08050224997
:103A800008600846006800F08050019000BF00BF49
:103A900000BF002001901D48006840F480401B4991
:103AA00008600846006800F48040019000BF00BF35
:103AB000012007900004089002200D9041050E910E
:103AC00019210F914FF4A871109102211191082131
:103AD000129107A8FEF7C8FC08B1FDF711F90F20F5
:103AE000029002200390002004904FF4A050059013
:103AF0004FF480500690052102A8FEF753FB08B151
:103B0000FDF7FEF813B000BD4038024000700040E1
:103B10000548006840F47000034908604FF00060F9
:103B2000014980390860704788ED00E010B5FCF766
:103B3000E9FDFCF725FE00F0B5FC01F0E0FB10BD4F
:103B400010B50248FEF779FF10BD000048070020BD
:103B500010B50268294B98420ED0B0F1804F0BD0BF
:103B6000274B984208D0274B984205D0264B9842C5
:103B700002D0264B984203D122F070024B681A43C0
:103B80001E4B984220D0B0F1804F1DD01C4B984264
:103B90001AD01C4B984217D01B4B984214D01B4B89
:103BA000984211D01A4B98420ED01A4B98420BD023
:103BB000194B984208D0194B984205D0184B98429F
:103BC00002D0184B984203D122F44072CB681A43BA
:103BD00022F080034C6943EA040202608B68C362EE
:103BE0000B688362054B984202D0084B984201D182
:103BF0000B6903630123436110BD00000000014015
:103C00000004004000080040000C00400004014097
:103C100000400140004401400048014000180040BD
:103C2000001C00400020004070B50546AC6B002031
:103C3000E085E0842046FEF7D7FF70BD70B50646EC
:103C40000025B46B20684069C0F3C01594F83900B2
:103C5000212805D125B10020E084204600F060F83D
:103C600020684069C0F3801594F83A00222805D1F5
:103C700025B10020E085204600F032F8E06B40F0EE
:103C80001000E0632046FEF7AFFF70BD70B505463B
:103C9000AC6B2868006800F48070B0B90020E08543
:103CA0002068C06820F480702168C860206840697E
:103CB00020F00100216848612068406920F0400040
:103CC00021684861202084F83A002046FFF7EEFA88
:103CD00070BD70B50446A56B2846FFF7E8FA70BDC5
:103CE0000168C96821F490710268D160016849696E
:103CF00021F0010102685161202180F83A107047DB
:103D000010B504462068C06820F040002168C860F3
:103D1000202084F839002046FFF7CAFA002010BDA1
:103D20000168C96821F0C0010268D160202180F8D3
:103D30003910704770B5044694F83A0022284AD1E9
:103D4000A068B0F5805F13D1A56A206940B92068EA
:103D50004068C0F308002880A06A801CA06219E0B7
:103D600020684068C0B22880A06A401CA06211E0B0
:103D7000206938B920684068C1B2A26A501CA062AC
:103D8000117007E02068406800F07F01A26A501CB3
:103D9000A0621170E08D401E80B2E085C8B9206835
:103DA000C06820F020002168C8602068C06820F446
:103DB00080702168C8602068406920F00100216897
:103DC0004861202084F83A002046FFF76FFA00206F
:103DD00070BD0020FCE70220FAE700002DE9F84F53
:103DE00004462068006920F44050E16808432168D7
:103DF00008612169A068084361690843E1690843D3
:103E000000902068C06849F20C618843009908431B
:103E10002168C8602068406920F44070A1690843A7
:103E200021684861E069B0F5004F75D1E349206829
:103E3000884203D0E249206888426FD1FEF7ACFA8D
:103E4000814602206168A0FB01510B461920A9FBA5
:103E500000712A463846FCF767FA6421B0FBF1F09E
:103E60004FEA001A02206168A0FB01510B4619209D
:103E7000A9FB00712A463846FCF756FA074602208D
:103E80006168A0FB01510B461920A9FB00B12A462D
:103E90005846FCF749FA6421B0FBF1F000EBC00191
:103EA00001EB0010A7EB8000322101EBC000642180
:103EB000B0FBF1F000F0F8000AEB400A0220616864
:103EC000A0FB01510B461920A9FB00712A46384678
:103ED000FCF72AFA074602206168A0FB01510B4655
:103EE0001920A9FB00B12A465846FCF71DFA6421A7
:103EF000B0FBF1F000EBC00101EB0010A7EB80007C
:103F0000322101EBC0006421B0FBF1F000F00700AA
:103F10005044216888604FE16EE0FFE7FEF72CFA1D
:103F2000814602206168A0FB01510B461920A9FBC4
:103F300000712A463846FCF7F7F96421B0FBF1F02E
:103F40004FEA001A02206168A0FB01510B461920BC
:103F5000A9FB00712A463846FCF7E6F9074602201D
:103F60006168A0FB01510B461920A9FB00B12A464C
:103F70005846FCF7D9F96421B0FBF1F000EBC00121
:103F800001EB0010A7EB8000322101EBC00064219F
:103F9000B0FBF1F000F0F8000AEB400A0220616883
:103FA000A0FB01510B461920A9FB00712A46384697
:103FB000FCF7BAF9074602206168A0FB01500346EE
:103FC0001920A9FB00B12A465846FCF7ADF9642137
:103FD000B0FBF1F000EBC00101EB0010A7EB80009B
:103FE000322101EBC0006421B0FBF1F000F00700CA
:103FF000504421688860DFE070492068884203D01F
:104000006F49206888426BD1FEF7C6F981460420CB
:104010006168A0FB01510B461920A9FB00712A46DB
:104020003846FCF781F9824604206168A0FB015103
:104030000B461920A9FB00712A463846FCF774F993
:104040006421B0FBF1F000EBC00101EB0010AAEB22
:104050008000322101EB00106421B0FBF1F000F090
:10406000F00A04206168A0FB015003461920A9FB57
:1040700000712A463846FCF757F96421B0FBF1F08D
:104080000AEB001A04206168A0FB01510B461920BD
:10409000A9FB00712A463846FCF746F9074604207A
:1040A0006168A0FB015003461920A9FB00B12A4614
:1040B0005846FCF739F96421B0FBF1F000EBC00180
:1040C00001EB0010A7EB8000322101EB001064210E
:1040D000B0FBF1F000F00F005044216888606BE005
:1040E000FEF74AF9814604206168A0FB01500346AF
:1040F0001920A9FB00712A463846FCF715F98246BB
:1041000004206168A0FB015003461920A9FB00713F
:104110002A463846FCF708F96421B0FBF1F000EBC1
:10412000C00101EB0010AAEB8000322101EB00106E
:104130006421B0FBF1F000F0F00A04206168A0FBFC
:10414000015003461920A9FB00712A463846FCF7A6
:10415000EBF86421B0FBF1F00AEB001A042061686F
:10416000A0FB017003461920A9FB005001463A4606
:104170002846FCF7D9F8074604206168A0FB0150E7
:1041800003461920A9FB00B12A465846FCF7CCF893
:104190006421B0FBF1F000EBC00101EB0010A7EBD4
:1041A0008000322101EB00106421B0FBF1F000F03F
:1041B0000F00504421688860BDE8F88F001001406E
:1041C00000140140014691F8390021282CD188685B
:1041D000B0F5805F0FD10A6A1088C0F308000B6841
:1041E0005860086918B9086A801C086209E0086A02
:1041F000401C086205E00B6A581C086218780B68BE
:104200005860C88C401E80B2C88458B90868C0681D
:1042100020F080000B68D8600868C06840F040005B
:104220000B68D860002070470220FCE710B50348F7
:10423000FEF7DCFC014800F07FF810BDA803002069
:1042400010B5034800F006F80148FEF7CFFC10BD9A
:10425000E803002010B5044620680068C0F3001091
:1042600000284BD020680068254908602068406815
:1042700008602448406B00682349884204D9C81468
:1042800021494C3908601BE01E48406B00681F49FB
:10429000884204D9C8141C495039086010E01948F4
:1042A000406B006819496039884204D9C81417491D
:1042B000B839C86004E04FF400601449B839886028
:1042C0001048406B0068006820F001000D49496B00
:1042D000096808600B48406B00684068C0F5807052
:1042E000074908600846026809490A4800F03CFB93
:1042F0004FF4807206490348FEF776FF10BD0000B8
:10430000EC000020E803002058640240B86002403E
:1043100004540020045A002010B50248FEF766FC41
:1043200010BD00002804002010B50248FEF75EFC16
:1043300010BD00006804002038B504460020424942
:10434000086042480068006800F0200060B100BFCB
:10435000002000903D480068006800903B480068DD
:104360004068009000BF6EE03948006800F010001F
:10437000002868D000BF0020009034480068006822
:104380000090324800684068009000BF00BF31488C
:104390000068006800F4002058BB2E4800680068E0
:1043A00020F001002B49096808602A48006840682D
:1043B000C0F1240028490880242026490968486063
:1043C00024480068006840F4002022490968086019
:1043D00020480068006840F001001E490968086034
:1043E0001D48008812282ED11C491D4800F01AFFD4
:1043F00029E018480068006820F0010015490968A4
:104400000860144800684068C0F124001249088020
:1044100024201049096848601248006820F40020F0
:10442000104908600B480068006840F00100094925
:104430000968086008480088122804D1074908481C
:10444000243000F0EFFE38BD80024242A803002075
:1044500000100140A80400209E00002078440020A5
:104460008E4400204064024000BFFEE7024800681E
:10447000C0F30220704700000CED00E010B50028EA
:1044800004DB0A07130E054A135406E00A07140E4C
:10449000034A00F00F031B1FD45410BD00E400E0DA
:1044A00018ED00E010B516480068C06840F0100034
:1044B00013490968C8604FF4807212491048FEF72A
:1044C00093FE4FF480721049104800F03DFA401CF2
:1044D00008B9FCF715FC0A48006B0068006820F07A
:1044E00001000749096B096808604FF40072084928
:1044F000084800F029FA401C08B9FCF701FC10BD7F
:10450000E80300200454002004570020045A00202F
:1045100004580020185A002000B587B000F078FE3B
:104520001C2206496846FBF7BBFF0021684600F0E5
:1045300012FB0349086007B000BD00006463000877
:10454000A000002070B504462068C07A401EC5B2A5
:104550002068807A401EC6B205EB45002549084414
:10456000805D84F85C0294F85C02082819D003DCB2
:1045700038B102281DD10AE009280ED00A2818D126
:1045800013E0FFF7DFF92046FCF774F915E001208E
:1045900084F85C02FFF7D6F90FE02046FCF712F929
:1045A0000BE02046FCF74AF907E02046FCF714F937
:1045B00003E0022084F85C0200BF00BF0E4890EDCB
:1045C000000ABDEEC00A10EE100A03B20B4890EDCF
:1045D000000ABDEEC00A10EE100A02B2084890EDC3
:1045E000000ABDEEC00A10EE100A01B2204600F02B
:1045F00043F970BDB4000020B0000020AC000020E2
:10460000A800002010B50446FFF73EF9204600F050
:1046100007F8204600F02AF9204600F0CDF810BD3A
:10462000014600203CE0C0EBC00301F10C0252F84F
:104630002320B2F9022000EE102AB8EEC00AC0EB27
:10464000C00301F10C0202EB830282ED020AC0EB0F
:10465000C00301F10C0252F82320128800EE102A48
:10466000B8EE400AC0EBC00301F10C0202EB83027A
:1046700082ED040A00EB400301F17C0202EB4312DD
:1046800092ED120ADFED080A20EE200AC0EBC0030B
:1046900001F10C0202EB830282ED010A421CD0B24E
:1046A0000428C0DB704700000000FA4310B5044640
:1046B00000F0DCF9206000203A49087010E0394829
:1046C000007800F0C7F937490978C1EBC10204F15D
:1046D0000C0141F8220033480078401C3149087031
:1046E000304800780428EADBFFF7CEF89FED2E0A69
:1046F00004F25D2000F08CF99FED2B0A04F26D208E
:1047000000F086F99FED292ADFED281AB0EE001A95
:10471000F0EE000AB2EE000A04F17C0000F04AFA62
:104720009FED222ADFED211AB0EE001AF0EE000A0A
:10473000B2EE000A04F1DC0000F03CFA9FED1B2A07
:10474000DFED1A1AB0EE001AF0EE000AB2EE000A1F
:1047500004F59E7000F02EFA9FED142ADFED131A77
:10476000B0EE001AF0EE000AB2EE000A04F5CE70C8
:1047700000F020FA9FED0D2ADFED0C1A9FED0C1AC8
:10478000F2EE040A9FED0B0A04F5FE7000F012FA37
:104790000220FCF7B5F8012084F88C022046FFF7D0
:1047A0003FFF10BDDE00002060E5503D000000002E
:1047B000CDCC2C410000C84210B5044694ED050A4A
:1047C000BDEEC00A10EE100A02B294ED060ABDEE6C
:1047D000C00A10EE100A01B241F2883304F17C00E5
:1047E000FFF7C4F8A08494ED0C0ABDEEC00A10EEE9
:1047F000100A02B294ED0D0ABDEEC00A10EE100AC6
:1048000001B241F2883304F1DC00FFF7AFF8A4F8FD
:10481000400094ED130ABDEEC00A10EE100A02B279
:1048200094ED140ABDEEC00A10EE100A01B241F276
:10483000883304F59E70FFF799F8A4F85C0094EDB6
:104840001A0ABDEEC00A10EE100A02B294ED1B0A5D
:10485000BDEEC00A10EE100A01B241F2883304F531
:10486000CE70FFF783F8A4F8780010BD10B50446A9
:104870002046FFF767FE10BD1FB5044603AA02A934
:1048800001A8FCF771F8BDF90400404200EE100ADF
:10489000B8EEC00A04F25D2000F098F8BDF90800F7
:1048A00000EE100AB8EEC00A04F26D2000F08EF897
:1048B00094F85C0208280FD1BDF9040000EE100A3C
:1048C000B8EEC00AF1EE040A20EE200A84EDA00A38
:1048D00094EDA00A84ED060A94F85C0202280FD138
:1048E000BDF9040000EE100AB8EEC00ADFED150AAB
:1048F00020EE200A84EDA00A94EDA00A84ED060AB9
:1049000094F85C02092803D094F85C020A2818D1B4
:10491000BDF90C0000EE100AB8EEC00A84EDA00A42
:1049200094F88C02012803D194EDA00A84ED060AC4
:1049300094F88C0228B994EDA00AB1EE400A84EDF7
:10494000060A1FBD00000000034612B1501E1040B1
:1049500010B14FF0FF307047002058609860196028
:104960009A811A8200BFF6E72DE9F04104460F460E
:104970001546D4E90102801AA289111A284600F0CE
:10498000D2F8054610480560A289521E60681040A2
:10499000A289111A284600F0C6F80646A289521EBE
:1049A000616811402268881832463946FBF733FDAA
:1049B000AA1BB9192068FBF72EFD606828446060C7
:1049C0002846BDE8F0810000F0000020F0EE400A2B
:1049D00010EE901A0160016800EE101AC16801EE35
:1049E000101A20EE010A01EE101AF7EE001A71EE0D
:1049F000C11A416801EE101A01EE810A10EE101A78
:104A0000816081684160816800EE101A7047000083
:104A100000B97047DFED090A10EE901A0160DFED72
:104A2000070A10EE901A416010EE101AC160DFED17
:104A3000030A10EE901A816000BFEAE70000000050
:104A4000B5EEC00AF1EE10FA03D2F1EE400AB0EE74
:104A5000600A7047014601F00300C0EBC000024A43
:104A600002EB800070470000D844002000487047E7
:104A70007844002000B587B01C2206496846FBF741
:104A80000FFD0021684600F066F80349086007B092
:104A900000BD000080630008A400002010B504469B
:104AA000FEF7F2FE2046FCF783FA10BD10B5002198
:104AB0000548A0F8B619A0F84A1B00200249087161
:104AC0000846FCF771F910BD44480020884201DD1A
:104AD000084602E0904200DA10467047FDF774FA8B
:104AE000FEF7BCFFFEF75EFDFEF7B4FCFEF76EFCC2
:104AF000FEF7FEFDFEF736FEFEF750FEFEF716FE51
:104B0000FEF7E6FDFEF784FCFFF710F8FEF7FEFC6B
:104B100000F01CF800BFFEE701460020842901D008
:104B2000CA1C1044704702468A4201D908467047A1
:104B30001046FCE770B5044625460DB1294600E055
:104B40000121084600F0E4FC002070BD10B500F023
:104B50000DFD002010BD7FB504460D46606998B17B
:104B6000A06988B1B4F90800FFF7D6FF0646D4E97A
:104B70000510CDE9006102902B462269D4E90010AE
:104B800000F080FE039013E0B4F90800FFF7C4FFC3
:104B9000064603A8CDE90060238A9AB22B46D4E9E1
:104BA000001000F03DFE012802D0002004B070BDCE
:104BB0000398FBE700B9704780ED000AC0ED010AD9
:104BC00080ED021ADFED172AC0ED052ADFED152A68
:104BD000C0ED062ADFED132AC0ED0C2ADFED112A05
:104BE000C0ED0D2ADFED0F2AC0ED112ADFED0D2AF1
:104BF000C0ED142AC0ED132AC0ED122ADFED092AF8
:104C0000C0ED152AC0ED152AC0ED152ADFED052AE5
:104C1000C0ED0C2AC0ED0E2AC0ED0F2AC0ED102AFF
:104C200000BFC8E7000000002DE9F04105460E4630
:104C30001C4807681C480068001D00F06CFB50B958
:104C40001948006890F82C1001208840174909681D
:104C5000814316480160681C38B936B112480168B2
:104C6000091D134800F0A2FB1AE07C190E480068E9
:104C70004460BC4207D20C480168091D0D48006819
:104C800000F07AFB0CE008480168091D0A4800683A
:104C900000F072FB09480068844201D207480460B2
:104CA000BDE8F0813C0000202800002040000020EA
:104CB00064080020300000202C0000205800002054
:104CC00010B5044600F07EFB23480068401C2249D2
:104CD00008602248006840B920480460084600681F
:104CE00001280DD100F03EF90AE01D48006838B9EE
:104CF0001A480068C06AE16A884201D8174804600F
:104D000018480068401C1749086094F82C100120CE
:104D1000884015490968084313490860E16A01EBB6
:104D20008101124A02EB8100211D00F03FFB00F0DF
:104D300073FB0B48006868B108480068C06AE16A04
:104D4000884207D24FF0805009490860BFF34F8F67
:104D5000BFF36F8F10BD0000380000202800002036
:104D6000440000205400002040000020880700205C
:104D700004ED00E010B516E000F024FB0C48C0681C
:104D8000C468201D00F0C7FA0A480068401E09499F
:104D9000086009480068401E0749086000F03CFBB5
:104DA000204600F00BF8044800680028E4D110BD4C
:104DB00050080020380000203400002010B50446C0
:104DC00094F8510030B9206B00F044FB204600F00D
:104DD00041FB1AE094F85100012803D1204600F06D
:104DE00039FB12E094F85100022801D1012000E0C3
:104DF000002050B900BF502080F31188BFF34F8FBF
:104E0000BFF36F8F00BF00BFFEE710BD30B54FF49A
:104E10007053174800F007042CB1C01D20F00700A4
:104E2000134C041B1B1B0246124C22600024114D24
:104E30006C60D018083820F007000F4C2060002468
:104E40000D4D2D686C600C4D2D682C601146441A78
:104E50004C60094C24680C60084D4C682C60084D6F
:104E60004C682C604FF00044064D2C6030BD0000B3
:104E700078080020640000206C00002074000020EE
:104E8000700000207800002000BFFFF773FF064885
:104E900000680128F9D94FF0805004490860BFF339
:104EA0004F8FBFF36F8FF0E78807002004ED00E01D
:104EB0002DE9FF5F81460E469246DDE90E7B109C90
:104EC000AAF10100216B01EB800828F0070808F027
:104ED000070008B9012000E0002050B900BF5020B1
:104EE00080F31188BFF34F8FBFF36F8F00BF00BFF8
:104EF000FEE786B1002507E0715D04F134004155FD
:104F0000705D00B902E06D1C102DF5D300BF0021CB
:104F10004320015502E0002084F83400072F00D31D
:104F20000627E76267640020A064201D00F021FAD4
:104F300004F1180000F01DFA2461C7F10700A06118
:104F400064620020E06484F8500049464046039AB9
:104F500000F048F92060BBF1000F01D0CBF8004011
:104F6000BDE8FF9F10B5002407E004EB84010F4A61
:104F700002EB810000F0F0F9641C072CF5D30C481B
:104F800000F0EAF90B4800F0E7F90B4800F0E4F90B
:104F90000A4800F0E1F90A4800F0DEF9044809493E
:104FA000086004480849086010BD00008807002018
:104FB00014080020280800203C0800205008002089
:104FC000640800202C0000203000002010B50146AD
:104FD000164800E0006803688B42FBD30246436832
:104FE00013448B4204D143684C6823444360014618
:104FF0000A464B6813440468A34211D10C4C036861
:105000002468A34208D04B680468646823444B605A
:1050100003681B680B6005E0054B1B680B6001E033
:1050200003680B60884200D0016010BD640000205E
:105030006C0000200A490968096809B9012100E0EB
:10504000002121B14FF0FF31064A116006E004490A
:105050000968C968C868034A416811607047000060
:105060002C000020580000200E480068401C08B9A1
:10507000012000E0002050B900BF502080F31188CB
:10508000BFF34F8FBFF36F8F00BF00BFFEE700BFBE
:10509000502080F31188BFF34F8FBFF36F8F00BF95
:1050A00000BFFEE77C0000202DE9F04104464FF0F0
:1050B000000800F0B3FA4648006808B9FFF7A6FEFA
:1050C00044480068204000286BD1D4B1083404F073
:1050D0000700B0B104F00700C0F10800044404F078
:1050E000070008B9012000E0002050B900BF50209F
:1050F00080F31188BFF34F8FBFF36F8F00BF00BFE6
:10510000FEE7002C4DD034480068844249D8334E25
:105110003046056801E02E462D686868A04202D23C
:1051200028680028F7D12A480068854239D03068BD
:1051300000F10808286830606868001B102819D939
:105140002F1907F0070008B9012000E0002050B92E
:1051500000BF502080F31188BFF34F8FBFF36F8FD4
:1051600000BF00BFFEE76868001B78606C603846CF
:10517000FFF72CFF184968680968081A1649086083
:105180000846006816490968884203D21248006838
:10519000134908600F49686809680843686000207F
:1051A000286000F071FC08F0070008B9012000E059
:1051B000002050B900BF502080F31188BFF34F8FFB
:1051C000BFF36F8F00BF00BFFEE74046BDE8F08130
:1051D0006C00002078000020700000206400002097
:1051E00074000020001F4FF080730360001F21F047
:1051F00001030360001F054B036014380260001FA9
:105200006FF0020303602038704700006950000807
:1052100000B524220249A1F12400FEF7DFFA00BD07
:10522000B244002000B101B970470278437842EAE5
:105230000322C2F30A020A804278D210837842EA3B
:105240004312C2F30A024A8082789211C37842EA7A
:105250008302037942EA8322C2F30A028A80027936
:105260005210437942EAC312C2F30A02CA80427959
:10527000C2F301128A72427912119308CB728279B9
:10528000C37942EA032212B28A81027A437A42EA5D
:10529000032213B201F10C02CB81827AC37A42EA73
:1052A000032213B201F10C020B82037B8B74437B4C
:1052B000CB74827BC37B42EA03228A82027C437CDA
:1052C00042EA032212B20A810A88A2F5806212B26F
:1052D0000A804A88A2F5806212B24A808A88A2F5C2
:1052E000806212B28A80CA88A2F5806212B2CA8035
:1052F0000A89A2F5806212B20A8100BF94E710B554
:10530000002400BF14B9FFF707F903E00F2C01D107
:10531000FFF7B0FB10BD01460A69D1E90130986082
:10532000D1E9010358605068884201D18868506013
:10533000002008611068401E10601068704700006F
:10534000034B0360034B0B60802313607047000026
:10535000F40000204801002000F1080141604FF0F6
:10536000FF31816000F10801C1600161002101602D
:10537000704700210161704710B502460B685C1C44
:105380000CB9106907E002F1080000E040684468C9
:1053900024689C42FAD944684C604C68A1608860DB
:1053A00041600A611468641C146010BD42684A6060
:1053B00093688B60936859609160086103685B1C17
:1053C0000360704700BF502080F31188BFF34F8FF8
:1053D000BFF36F8F00BF0E480068401C0C49086087
:1053E00008460068012812D10A480068C0B208B90E
:1053F000012000E0002050B900BF502080F3118848
:10540000BFF34F8FBFF36F8F00BF00BFFEE7704742
:105410007C00002004ED00E00D48006850B900BF9A
:10542000502080F31188BFF34F8FBFF36F8F00BF01
:1054300000BFFEE706480068401E054908600846B0
:10544000006820B9002080F3118800BF00BF7047BA
:105450007C00002070B506463546002E3FD0083D42
:105460002C461F4960680968084008B1012000E027
:10547000002050B900BF502080F31188BFF34F8F38
:10548000BFF36F8F00BF00BFFEE7206808B901209F
:1054900000E0002050B900BF502080F31188BFF316
:1054A0004F8FBFF36F8F00BF00BFFEE70C496068EE
:1054B0000968084098B1206888B909496068096896
:1054C0008843606000F0AAF80649606809680844EB
:1054D000044908602046FFF779FD00F0D5FA70BD59
:1054E000780000207000002000204FF0E0210861CB
:1054F0008861064800684FF47A71B0FBF1F0401EF5
:105500004FF0E02148610720086170472400002027
:1055100070B504460025D4B11248006808B90120CE
:1055200000E0002050B900BF502080F31188BFF385
:105530004F8FBFF36F8F00BF00BFFEE700F06EF824
:1055400000212046FFF770FB00F09EFA05463DB9AA
:105550004FF0805004490860BFF34F8FBFF36F8F47
:1055600070BD00006000002004ED00E010B586B0C2
:1055700000200590049003AA04A905A8FFF7E0FE07
:105580000022DDE904101346CDE9002102901CA1A0
:105590001D48039A00F076F91C4908600846006827
:1055A00008B1012400E00024012C15D100BF5020D7
:1055B00080F31188BFF34F8FBFF36F8F00BF4FF0A1
:1055C000FF30134908600120124908600020124989
:1055D000086000F071F810E0601C08B1012000E0E4
:1055E000002050B900BF502080F31188BFF34F8FC7
:1055F000BFF36F8F00BF00BFFEE706B010BD000015
:1056000049444C4500000000894E00085C00002021
:1056100058000020440000203C00002002480068A0
:10562000401C014908607047600000201D48006868
:1056300018B101201C49086032E000201A490860B6
:105640001A480068B0FA80F0C0F11F0101EB810038
:10565000174A52F8200008B1012000E0002050B99C
:1056600000BF502080F31188BFF34F8FBFF36F8FBF
:1056700000BF00BFFEE701EB81020D4B03EB820090
:1056800042685268426000F108024368934202D1C6
:105690004268526842604268D268064B1A6000BF96
:1056A00070470000600000204C00002040000020F7
:1056B00088070020280000201CB552480068524985
:1056C000884201D0012000E0002050B900BF5020E6
:1056D00080F31188BFF34F8FBFF36F8F00BF00BF00
:1056E000FEE7484800684849491E884201D0012029
:1056F00000E0002050B900BF502080F31188BFF3B4
:105700004F8FBFF36F8F00BF00BFFEE73F490846D2
:1057100000780190FF200A4610700846007800903B
:105720009DF8000000F0F0009DF80020904201D1AB
:10573000012000E0002050B900BF502080F3118804
:10574000BFF34F8FBFF36F8F00BF00BFFEE79DF821
:10575000000000F050002E4A107007202D4A106003
:1057600009E02C480068401E2A4A10609DF800009D
:105770004006000E00909DF8000000F08000802898
:10578000EFD024480068C0F10700042801D10120AF
:1057900000E0002050B900BF502080F31188BFF313
:1057A0004F8FBFF36F8F00BF00BFFEE7194800683F
:1057B0000002184A10601046008800F4E060106093
:1057C000124A019810700F482030006840F47000B1
:1057D0000C49203108600846006840F070400860BD
:1057E000FFF782FE00200C490860FAF741FD0B48E4
:1057F000006840F0404009490860FAF725FD0020A4
:105800001CBD000000ED00E071C20F4100E400E0AB
:1058100080000020840000207C00002034EF00E0A5
:105820002DE9FF4F85B0804689461746DDE912AB6A
:10583000B800FFF739FC064656B15420FFF734FC98
:1058400004460CB1266304E03046FFF703FE00E097
:1058500000248CB1002084F85100CDE900ABCDE9E3
:1058600002403A4649464046089BFFF721FB204646
:10587000FFF726FA012501E04FF0FF35284609B071
:10588000BDE8F08F2DE9F04F85B007468846914678
:105890009A46DDE90EB6109C0EB1012000E0002012
:1058A00050B900BF502080F31188BFF34F8FBFF372
:1058B0006F8F00BF00BFFEE70CB1012000E00020A9
:1058C00050B900BF502080F31188BFF34F8FBFF352
:1058D0006F8F00BF00BFFEE7542003900398542849
:1058E00001D1012000E0002050B900BF502080F31A
:1058F0001188BFF34F8FBFF36F8F00BF00BFFEE76C
:1059000000BFB4B1AEB125462C462E63022085F807
:105910005100002004A953464A46CDE900B1CDE923
:10592000025041463846FFF7C3FA2846FFF7C8F948
:1059300001E000200490049805B0BDE8F08F00005D
:105940002DE9F0414FF0000844480068002877D165
:1059500043480068451C4248056015BB4148006843
:10596000006808B9012000E0002050B900BF5020B5
:1059700080F31188BFF34F8FBFF36F8F00BF00BF5D
:10598000FEE73848076838480068364908603648F6
:10599000076036480068401C34490860FFF74AFB3E
:1059A00000BF3348006885423CD300BF2D480068E3
:1059B000006808B9012000E0002020B14FF0FF305E
:1059C0002B4908602DE027480068C068C4686668F5
:1059D000B54202D22648066023E0201DFFF79BFC5B
:1059E000A06A18B104F11800FFF795FC94F82C1088
:1059F000012088401F49096808431E490860E16A80
:105A000001EB81011C4A02EB8100211DFFF7CEFC56
:105A10001A49E06A0968C96A8842C7D34FF0010889
:105A2000C4E700BF15480068C06A00EB8000124957
:105A300051F82000012801D94FF0010805E0FFE7E7
:105A40000F480068401C0E4908600E48006808B105
:105A50004FF001084046BDE8F081000060000020E2
:105A60003C0000202C0000203000002050000020CE
:105A70005800002040000020880700202800002057
:105A8000480000204C00002070B500240026364855
:105A9000006850B900BF502080F31188BFF34F8FCA
:105AA000BFF36F8F00BF00BFFEE7FFF78BFC2E48F0
:105AB0000068401E2C4908600846006800284FD145
:105AC0002A48006800284BD024E02948C068C468F0
:105AD00004F11800FFF71FFC201DFFF71CFC94F8D1
