:020000040800F2
:1000000040540020E90200088B29000877250008E9
:1000100089290008CB05000809310008000000000C
:10002000000000000000000000000000290200089D
:10003000510A00080000000085020008F52A0008A7
:100040000303000803030008030300080303000878
:100050000303000803030008030300080303000868
:100060000303000803030008030300080303000858
:100070005909000803030008650900080303000884
:10008000710900087D090008030300080303000844
:10009000CD0500080303000803030008030300085C
:1000A0000303000803030008030300080303000818
:1000B000E92B0008030300080303000803030008FA
:1000C00003030008030300080303000803030008F8
:1000D00003030008AD2F0008C52F000831300008C9
:1000E00003030008030300080303000803030008D8
:1000F00003030008030300080303000803030008C8
:1001000003030008030300080303000803030008B7
:1001100003030008030300080303000803030008A7
:100120000303000889090008950900080303000873
:100130000303000803030008030300080303000887
:100140000303000803030008030300080303000877
:1001500003030008A1090008030300083D3000085C
:100160000303000803030008030300080303000857
:100170000303000803030008030300080000000055
:10018000030300080303000800F002F800F03CF845
:100190000AA090E8000C82448344AAF10107DA45E2
:1001A00001D100F031F8AFF2090EBAE80F0013F0F8
:1001B000010F18BFFB1A43F001031847A0480000C5
:1001C000C0480000103A24BF78C878C1FAD8520756
:1001D00024BF30C830C144BF04680C6070470000C1
:1001E0000023002400250026103A28BF78C1FBD840
:1001F000520728BF30C148BF0B6070471FB504F0DD
:10020000A1FB1FBD10B510BD00F0A6F91146FFF708
:10021000F5FF03F015FA00F0C4F903B4FFF7F2FF9D
:1002200003BC00F0CBF900002C4B19680868B0E85B
:10023000F04F80F30988BFF36F8F4FF0000080F319
:10024000118870470000000008480068006880F3CB
:1002500008884FF0000080F3148862B661B6BFF3DF
:100260004F8FBFF36F8F00DF00BF00BF08ED00E0CE
:10027000DFF80C00016841F470010160704700BFB5
:1002800088ED00E0EFF30980BFF36F8F134B1A681E
:100290001EF0100F08BF20ED108A20E9F04F10600B
:1002A00009B44FF0500080F31188BFF34F8FBFF3B4
:1002B0006F8F03F0F1FD4FF0000080F3118809BC4F
:1002C00019680868B0E8F04F1EF0100F08BFB0ECD6
:1002D000108A80F30988BFF36F8F704724000020D5
:1002E000EFF3058070470000094880470948004740
:1002F000FEE7FEE7FEE7FEE7FEE7FEE7FEE7FEE7D6
:10030000FEE7FEE704480549054A064B7047000032
:10031000B92B000889010008404E002040540020FD
:10032000405000204050002053EA020C00F0698049
:100330002DE9F04B4FF00006002B1FBFB3FA83F5F9
:1003400003FA05F424FA05F65E4012BF1643B2FA2A
:1003500082F502FA05F4C5F120051EBF22FA05FC5C
:1003600044EA0C04203556EA044C4FEA144418BF02
:10037000641C4FF000084FF00009904271EB030C31
:1003800039D3002919BFB1FA81F701FA07F6B0FA9B
:1003900080F700FA07F6C7F120071EBF20FA07FC16
:1003A00046EA0C062037B6FBF4FCA7EB0507103F26
:1003B00007F01F0BCBF120060CFA0BFB2CFA06F60C
:1003C00044BFB3460026202FA4BF5E464FF0000B6B
:1003D0005BEA060C08BF4FF0010B19EB0B09ABFBF6
:1003E000027C48EB0608C01B06FB02CC0BFB03CCCF
:1003F00071EB0C01C1E70B46024641464846BDE899
:10040000F08B13B54FF000004FF00001AFF3008008
:10041000BDE81C407047032A40F2308010F0030C06
:1004200000F0158011F8013BBCF1020F624498BF47
:1004300011F801CB00F8013B38BF11F8013BA2F1E4
:10044000040298BF00F801CB38BF00F8013B11F05F
:10045000030300F02580083AC0F0088051F8043BFF
:10046000083A51F804CBA0E80810F5E7121D5CBF6C
:1004700051F8043B40F8043BAFF30080D20724BF9F
:1004800011F8013B11F801CB48BF11F8012B24BF33
:1004900000F8013B00F801CB48BF00F8012B704782
:1004A00010B5203AC0F00B80B1E81850203AA0E80F
:1004B0001850B1E81850A0E81850BFF4F5AF5FEA43
:1004C000027C24BFB1E81850A0E8185044BF18C9F6
:1004D00018C0BDE810405FEA827C24BF51F8043B9D
:1004E00040F8043B08BF7047D20728BF31F8023BF1
:1004F00048BF11F8012B28BF20F8023B48BF00F885
:10050000012B70474FF0000200B513469446964603
:10051000203922BFA0E80C50A0E80C50B1F1200116
:10052000BFF4F7AF090728BFA0E80C5048BF0CC0C4
:100530005DF804EB890028BF40F8042B08BF704722
:1005400048BF20F8022B11F0804F18BF00F8012B94
:100550007047704770477047754600F02BF8AE46FD
:1005600005006946534620F00700854618B020B5BF
:10057000FFF7C8FEBDE820404FF000064FF000072F
:100580004FF000084FF0000B21F00701AC46ACE83B
:10059000C009ACE8C009ACE8C009ACE8C0098D46A8
:1005A000704710B50446AFF300802046BDE8104008
:1005B000FFF733BE00487047E04D00200149182086
:1005C000ABBEFEE7260002007047FEE7014800F0E0
:1005D000F6BB00001C03002010B58AB007AB6A46CA
:1005E000002100F078FB00281CD1009801281BD0C6
:1005F000A0F50070013815D19DF81D009DF81C1064
:1006000000EB01211C4801809DF81F109DF81E2061
:1006100001EB02214180BDF8201049BA81809DF88C
:10062000221081710AB010BD134CBDF81F00703448
:100630009628208002D800F55D7000E08C3820807C
:1006400080B24FF4B471A0614843C11700EB9150E0
:10065000801204F016F89FED091B53EC112B03F0E8
:1006600089FE9FED081B53EC112B04F075F803F085
:10067000D9FF6061D6E7000084440020000000003C
:100680000000F83F000000000000694000B58BB09A
:1006900000200121CDE9060108910090019002900F
:1006A0000390059004906946054800F08DFA0448CF
:1006B00000F05AFD0221024800F006FA0BB000BD1E
:1006C0001C0300203EB5124C4FF400752560002538
:1006D000A560E56008252561040A8DF800408DF8C5
:1006E0000100080A8DF80200100A8DF804008DF848
:1006F0000520180A8DF806008DF803108DF80730D4
:1007000002AB6A460249034800F0F0F93EBD000022
:10071000104500201C030020052003F059FB15485C
:1007200002F0E6FD134C144FDFF85080002641F232
:1007300088394946002002F095F978800D4D02F085
:100740005BF9284602F0AAFD284602F039FD28464A
:1007500002F056FEC8F88462B4F97830B4F95C202F
:10076000B4F94010B4F92400FFF7ACFF022003F005
:100770002FFBDEE728450020B600002000004242A3
:1007800011499FED100A002281EDA00A81EDA10A16
:1007900081ED060A81ED0D0A81ED140A81ED1B0A37
:1007A0008A84A1F84020A1F85C20A1F8782081F883
:1007B0005C22002805D000231A4619461846FFF788
:1007C00081BF704700000000284500202DE9F74F49
:1007D000DFF874810E462DED028B07460188B8F8CC
:1007E0000020B8F80200891A0DB23188DFF85C9158
:1007F000081A04B299F85C02DFF854A1DFF854B18A
:10080000F1EE068AB0EE0C8A092845D100EE105AA6
:10081000B8EEC00A02F0F6FE10EE100A504518DDE0
:1008200000EE105AB8EEC00A02F0ECFE00EE905A4C
:10083000B8F90000B8EEE01AC1EE000A00EE100AA6
:10084000B8EEC00A00EEA80ABDEEC00A10EE100A0B
:10085000388000EE104AB8EEC00A02F0D3FE10EE67
:10086000100A584518DD00EE104AB8EEC00A02F032
:10087000C9FE00EE904AB8F90200B8EEE01AC1EEE7
:10088000000A00EE100AB8EEC00A00EE880ABDEEBB
:10089000C00A10EE100A308099F85C02082845D191
:1008A00000EE105AB8EEC00A02F0ACFE10EE100ACC
:1008B000504518DD00EE105AB8EEC00A02F0A2FE54
:1008C00000EE905AB8F90000B8EEE01AC1EE000A46
:1008D00000EE100AB8EEC00A00EEA80ABDEEC00A8B
:1008E00010EE100A388000EE104AB8EEC00A02F08E
:1008F00089FE10EE100A584518DD00EE104AB8EED9
:10090000C00A02F07FFE00EE904AB8F90200B8EE8D
:10091000E01AC1EE000A00EE100AB8EEC00A00EEBE
:10092000880ABDEEC00A10EE100A30803988A8F897
:1009300000103188A8F8021004990988A8F804105A
:10094000BDEC028BBDE8FE8FBA00002028450020D8
:100950000000B04000006040014800F04BBC0000C7
:1009600074050020014800F045BC0000D4050020BB
:10097000014800F03FBC0000B4040020014800F032
:1009800039BC000014050020014800F033BC000011
:1009900034060020014800F02DBC00005404002063
:1009A000014800F027BC00009406002001681823CD
:1009B000CAB2103AB2FBF3F2054B6FF30901032AF6
:1009C0009B5CC36500D9091D81650846704700001E
:1009D000DC49000810B5014600208B698A6A4FF097
:1009E000C07453B1B3F5005F15D072B1012A0CD0B9
:1009F000022A0AD0032A09D104E01AB1012A06D03A
:100A0000022A03D1C96AC90100D5012010BDC96AF3
:100A1000A142FAD010BD002AF7D0012AF2D0022A52
:100A2000F3D0032AF3D010BD30B50468256825F44F
:100A300080252560046863608368402B036803D0C9
:100A400099600068C26030BD9A600068C16030BDC6
:100A500070470000052003F0BBF9044C002500BFDF
:100A6000C4F89052022003F0B3F9F9E700004242C3
:100A700072B6FEE7052003F0ABF9044C002500BF79
:100A8000C4F88C52022003F0A3F9F9E700004242B7
:100A900010B58021034800F0FBFD03498870C0B207
:100AA00010BD0000000002409C00002010B5402155
:100AB000034800F0EDFD0349C870C0B210BD00004E
:100AC000000002409C00002090F82020012A07D05E
:100AD000022A05D0416A41F4802141620120704719
:100AE000006842690A43426100207047F0B590F8FF
:100AF00020500468A468012D05D0022D03D0416A5E
:100B000041F480215DE014F0406F01D1E50055D53E
:100B1000C4F30164022C03D9416A41F4000150E09E
:100B20000125A5401D608D684FF4C0739DB1CE684E
:100B300035434E6845EAC605066803EB0417F551D0
:100B40004FF4C275076805EB04150E697E51097DE7
:100B5000012905D009E00E88CD6845EA4655EBE746
:100B600001684E5946F480764E511179D5795679FF
:100B700041EA056195792D0445EA062529434FF49C
:100B8000C676056806EB0416A9511178D57841EAB6
:100B90000561957852782D0445EA022211434FF4FD
:100BA000C475026805EB04155151006803EB04118C
:100BB000425842F0010242500020F0BD416A41F427
:100BC000001141620120F0BD10B590F82020012AEB
:100BD00007D0022A05D0416A41F4802141620120F8
:100BE00010BD3B48D0F8002242F00102C0F80022BC
:100BF000D0F8002222F47C52C0F80022D0F8002263
:100C00004B6A42EA0322C0F800220A7D02F01F0369
:100C100001229A40D0F81C329343C0F81C32CB69B1
:100C2000B3B9D0F80C329343C0F80C328C894B68BE
:100C300064F31F434C6900EBC404C4F840320C89D0
:100C40000B6864F31F434C6900EBC404C4F84432DE
:100C5000CB69012B16D1D0F80C321343C0F80C32FB
:100C60000C884B6864F31F434C6900EBC404C4F860
:100C700040320C89CB6864F31F434C6900EBC40419
:100C8000C4F844328B69002BD0F804320ED01343E1
:100C9000C0F804320B69002BD0F8143208D013438B
:100CA000C0F81432096A012904D008E09343EFE741
:100CB0009343F5E7D0F81C121143C0F81C12D0F88A
:100CC000001221F00101C0F80012002010BD000048
:100CD00000640040704730B590F82040012C05D0EA
:100CE000022C03D0416A41F480215DE004680029B0
:100CF00055D02469A40754D04FF4D874056804EB88
:100D000001142D5915F00405956005682D594ED034
:100D1000ED08556005682C5904F00204D4604FF4C6
:100D2000DA74056804EB01142D5905F00F051561FF
:100D300005682D59C5F30725956105682C59240CC4
:100D400054614FF4DC72046802EB0112A4581C7069
:100D50000468A458240A5C700468A458240C9C708D
:100D60000468A258120EDA704FF4DE72046802EBC7
:100D70000112A4581C710468A458240A5C71046808
:100D8000A458240C9C710468A258120EDA710068F1
:100D900081B1016941F020010161002030BDE468AA
:100DA000A8E7416A41F400114162012030BD6D0D98
:100DB0001560AFE7C16841F02001C160EDE72DE9A2
:100DC000F05F0546006800244669D0F80490876803
:100DD000D0F80CB0D0F810A0D0F81880F10748D0A7
:100DE000F90714D001218160B80703D5284600F027
:100DF000E8F90CE0780702D54FF4006407E0380703
:100E000002D54FF4805402E0284600F0D9F9F805E5
:100E100016D529684FF480708860B80503D5284638
:100E200000F0D1F90CE0780502D544F4005407E055
:100E3000380502D544F4804402E0284600F0C2F9A7
:100E4000F80316D529684FF480308860B80303D5BD
:100E5000284600F0BAF90CE0780302D544F40044C7
:100E600007E0380302D544F4803402E0284600F05D
:100E7000ABF9300707D55FEACB6004D529681020AD
:100E800044F40074C86070074FF0080707D55FEAA4
:100E90000B7004D52868C760284600F057F9B007E2
:100EA00006D52868C068800702D0284600F050F9AF
:100EB000700607D55FEACA6004D52968102044F49B
:100EC00080640861B00607D55FEA0A7004D5286817
:100ED0000761284600F044F9F00606D52868006945
:100EE000800702D0284600F03CF9B00308D55FEA3D
:100EF000C96005D5296810204860284600F032F9FD
:100F0000F00307D55FEA097004D5286847602846D2
:100F100000F05CF9300446D55FEA497040D5F00531
:100F200004D55FEAC87001D044F00104B00504D5CF
:100F30005FEA887001D544F00204700504D55FEAC9
:100F4000487001D544F00404300529D518F0700F1D
:100F500026D008F07000402815D006DC102809D0F3
:100F600020280AD0302816D10AE050280ED0602858
:100F700011D10EE044F008040DE044F010040AE042
:100F800044F0200407E044F0400404E044F080040E
:100F900001E044F480742868816921F07001816166
:100FA000296804204860002C05D0686A20436862E4
:100FB0002846FFF78FFEBDE8F09F70B5040003D010
:100FC00094F8200010B104E0012070BD204600F02C
:100FD00081F82068016821F00201016000F062FBE5
:100FE0000546052604E000F05DFB401B0A2811D8E9
:100FF000206840688007F6D42068016841F001014C
:10100000016000F04FFB05460BE000F04BFB401B7E
:101010000A2806D9606A40F40030606284F82060D3
:10102000D2E720684068C007EFD0207E0128206802
:1010300001683DD021F080010160607E01282068B8
:10104000016838D021F040010160A07E01282068AD
:10105000016833D021F020010160E07E0128206882
:1010600001682ED041F010010160207F0128206826
:10107000016829D021F008010160607F0128206803
:10108000016824D021F004010160D4E90201084381
:10109000D4E90412114308436168491E08432168DA
:1010A000C86100206062012084F82000002070BD2B
:1010B00041F08001C0E741F04001C5E741F0200167
:1010C000CAE721F01001CFE741F00801D4E741F071
:1010D0000401D9E710B586B0044614216846FFF72D
:1010E00011FA17492068884227D116480021026862
:1010F00042F000720260006800F000700590114834
:101100001038026842F0080202600068022200F013
:10111000080005900320CDE90210CDE90002092066
:1011200004906946084800F0D7F9002205211420F0
:1011300000F044FB142000F033FB06B010BD0000AB
:101140000064004040380240000C0240704700003C
:101150000249884201D1FFF73FBA70471C030020C3
:10116000704770477047000070B5044690F8200043
:10117000012804D0606A40F40020606218E0022078
:1011800084F820002068016821F00101016000F06E
:1011900089FA05460EE000BF00F084FA401B0A28D9
:1011A00008D9606A40F400306062052084F82000AD
:1011B000012070BD20684068C007EDD1606270BD3D
:1011C000704770477047704770477047704790F896
:1011D0003510022903D08021416501207047052187
:1011E00080F835100068016821F0010101600020DD
:1011F000704700002DE9F84304464FF00009CDF890
:10120000009063484FF41651A56D0068B0FBF1F7EC
:101210002E6894F85C10082000FA01F131420FD0DA
:1012200021680A6852070BD50A6822F004020A6096
:1012300094F85C108840A860606D40F00100606523
:1012400094F85C104FF0010808FA01F0304208D021
:1012500021684969090604D5A860606D40F0020064
:10126000606594F85C1004208840304208D0216802
:101270000968890704D5A860606D40F004006065C6
:1012800094F85C1010208840304218D0216809681A
:10129000090714D5A86020680168490304D50068CF
:1012A000000308D5A16C07E00168C90503D40168F3
:1012B00021F008010160216C09B12046884794F8AB
:1012C0005C1020208840304231D021680968C9066E
:1012D0002DD5A86094F8350005282068016806D04F
:1012E000490347D5006800031DD4616C1CE021F060
:1012F000160101602068416921F080014161206C84
:1013000008B9A06C20B12068016821F008010160D3
:1013100094F85C103F208840A86084F8349084F8EA
:101320003580216D1FE0E16B09B120468847606D73
:1013300000282BD0606DC00714D0052084F835003C
:101340002068016821F0010101600098401C0090B4
:10135000B84203D820680068C007F6D184F83490FA
:1013600084F83580E16C002910D001B02046BDE83A
:10137000F04308470168C905D5D4016821F0100180
:10138000016084F8349084F83580CCE7BDE8F883B8
:10139000200000202DE9F041044600F083F90646C4
:1013A0005CB1002584F83450022084F835002068B0
:1013B000016821F0010101600DE00120BDE8F0812C
:1013C00000F070F9801B052805D9202060650320F6
:1013D00084F83500F2E720680068C007F0D1226881
:1013E000116820480140D4E901031843D4E90336C9
:1013F0003343184363691843A3691843E3691843E7
:10140000236A18430843616A042903D1D4E90B1302
:1014100019430843106020684069666A20F007019C
:1014200030460E43012704280CD1A06A0643E06A27
:1014300040B12046FFF7CEFA20B14020606584F825
:101440003570BAE7206846612046FFF7AFFA94F896
:101450005C203F2191408160656584F835700020F3
:10146000ACE700003F8010F02DE9F0410446866DA6
:1014700090F83400002501280DD0012084F83400B4
:1014800094F835700020012F07D084F8340002252D
:101490002846BDE8F0810220FBE7022784F835707A
:1014A00060652046FFF7C0FA94F85C103F20884042
:1014B000B0602068016841F016010160206C20B125
:1014C0002068016841F0080101602068016841F06E
:1014D00001010160DCE700002DE9F84F00224FF028
:1014E000010803254FF00F0E0B6808FA02F42340A1
:1014F000A3426ED14E68012E05D0022E03D0112ECC
:1015000001D0122E12D186684FEA420C05FA0CF770
:10151000BE43CF6807FA0CF7374387604668A64397
:101520000C79C4F30014944034434460C6685700F7
:1015300005FA07FC8C6826EA0C06BC403443C460FC
:101540004C68022C01D0122C13D1D40800EB840477
:10155000A346D4F8209054074FEAD46A0EFA0AF64C
:1015600029EA06090E6906FA0AF646EA0906CBF8E0
:10157000206006680C7926EA0C0604F00304BC40DF
:10158000344304604C68E40065D5364C266846F464
:1015900080462660246822F0030604F48044009408
:1015A000314C3444A446D4F808489607370F0EFA55
:1015B00007F6B4432D4EB04201D1002624E02C4E54
:1015C000B04201D101261FE02A4EB04202D10226CC
:1015D0001AE040E0284EB04201D1032614E0274E25
:1015E000B04201D104260FE0254EB04201D10526BC
:1015F0000AE0244EB04201D1062605E0224EB04258
:1016000001D1072600E00826BE402643CCF8086832
:101610001E4E34684F689C43FF0300D51C43346062
:101620001A4C241D26684F689E43BF0300D51E43F5
:101630002660164E083634684F689C43FF0200D57A
:101640001C433460114E0C3634684F689C43BF0213
:1016500000D51C433460521C102AFFF445AFBDE88E
:10166000F88F000044380240003001400000024082
:101670000004024000080240000C0240001002403A
:101680000014024000180240001C0240003C0140CF
:101690000069084000D0012070470AB1816170479D
:1016A0000904FBE70148806870470000140000202F
:1016B000024881680278114481607047140000205C
:1016C0000B4810B5016841F400710160016841F4F4
:1016D00080610160016841F480710160032000F0C5
:1016E0008DF8002000F006F800F03EF8002010BD54
:1016F000003C024010B5014688B000221C2000F0DA
:101700005DF81C2000F04CF814480024016841F0FA
:1017100001010160006805A900F00100069068461B
:1017200000F018F900F036F90D494000B0FBF1F176
:101730000C484FF08042491E026040F2E732C0E997
:101740000324C0E9011400F08FFB10B1012008B0A0
:1017500010BD044800F0A4FBF9E700004038024047
:1017600040420F00F40600200C4882B0016841F4AA
:1017700080410160006800F4804000900748001F2D
:10178000016841F0805101600068002200F0805043
:1017900000900F21901E02B000F010B844380240B3
:1017A000002809DB00F01F02012191404009800060
:1017B00000F1E020C0F8001170470000F0B40E4BBB
:1017C0001B680C46C3F30223C3F10705042D00D99F
:1017D0000425191D072901D2002300E0DB1E012684
:1017E00006FA05F1491E214099409E40761E16409A
:1017F0003143F0BC01F089BC0CED00E0064900F07B
:10180000070208684FF6FF03184040EA0220034A27
:1018100010430860704700000CED00E00000FA057E
:101820002DE9F0470E46050065D0DFF81481D8F8A1
:101830000000F7B200F00F00B04207D288F8007045
:10184000D8F8000000F00F00B04254D128683D4C99
:10185000810712D5400703D5206840F4E05020608E
:101860002878000703D5206840F460402060206895
:10187000A96820F0F000084320602878C0072DD028
:10188000304968680839012812D0022813D003288B
:1018900011D00968890700292DDA216821F0030198
:1018A00001432160FFF7FEFE814641F2883A0EE0D7
:1018B00009688903EFE709688901ECE7FFF7F2FEA1
:1018C000A0EB0901514502D90320BDE8F08720684B
:1018D000696800F00C00B0EB810FEFD1D8F8001070
:1018E000404601F00F01B14207D90770006800F0CF
:1018F0000F00B04201D00120E7E72878400705D566
:101900002068E96820F4E050084320602878000748
:1019100006D52068296920F4604040EAC1002060B3
:1019200000F058F82168084AC1F30311515CC8401F
:101930000649086006480068FFF7DCFE0020C4E79F
:10194000003C024008380240E44900082000002022
:10195000180000200F2202600C4A136803F00303F2
:101960004360136803F0F0038360136803F4E053EB
:10197000C36012684FF4E05303EAD20202610448E4
:10198000006800F00F00086070470000083802404F
:10199000003C02400448054900680968044AC1F354
:1019A0008221515CC8407047200000200838024066
:1019B000F44900080448054900680968044AC1F36D
:1019C0004231515CC8407047200000200838024076
:1019D000F4490008154810B5006810F00C021448CE
:1019E00013D01449042A0FD0082A0ED10F4C241FFB
:1019F0002268236802F03F025B0207D52068C0F32B
:101A00008810A0FB010106E0084610BD2168C1F363
:101A10008811A1FB00010023FEF786FC2168C1F3B9
:101A20000141491C4900B0FBF1F010BD08380240EB
:101A30000024F40040787D012DE9F84F04006ED0B9
:101A40002078DFF83C93C007A9F104054AD009F1DA
:101A500004000168C1F38101012908D00068C0F3C6
:101A6000810002280AD1D9F80000400206D5286872
:101A7000800337D560680028E1D033E06068B0F5B6
:101A8000803F10D0B0F5A02F286810D020F480300F
:101A90002860286820F4802028606068A8B1FFF7DB
:101AA00001FE06460DE0286840F48030F4E740F47B
:101AB00080202860F7E700BFFFF7F4FD801B642853
:101AC00073D828688003F7D50CE0FFF7EBFD0646D6
:101AD00005E000BFFFF7E6FD801B6428F0D828680A
:101AE0008003F7D42078DFF89C8280074FF0000A4B
:101AF0003ED5A348001D016811F00C0F08D0006806
:101B0000C0F3810002280BD1D9F80000400207D4AD
:101B10002868800716D5E068012800D112E02BE183
:101B2000E068B8B10120C8F80000FFF7BBFD064629
:101B300005E000BFFFF7B6FD801B0228C0D828686B
:101B40008007F7D52868216920F0F80040EAC10035
:101B500028600DE0C8F800A0FFF7A4FD064604E0E9
:101B6000FFF7A0FD801B02281FD828688007F7D444
:101B70002078000722D5824E83486169703671B1A2
:101B800001210160FFF78EFD074604E0FFF78AFDA3
:101B9000C01B022809D830688007F7D50EE0C0F8CE
:101BA00000A0FFF77FFD074605E082E0FFF77AFD22
:101BB000C01B02287DD830688007F7D42078400702
:101BC00068D5DFF8BCB100270BF13C0BDBF8000057
:101BD000C0000BD4DBF8001041F08051CBF80010AE
:101BE000DBF80000012700F080500090674E30685D
:101BF000C00510D4306840F480703060FFF752FDAB
:101C0000009005E0FFF74EFD0099401A022850D8D9
:101C10003068C005F6D55A4EA0686C3601280FD042
:101C20000528306810D020F001003060306820F0C6
:101C300004003060A068B8B1FFF734FD00900FE0F9
:101C4000306840F00100F4E740F004003060F7E74E
:101C5000FFF728FD0099411A41F28830814266D889
:101C600030688007F4D50EE0FFF71CFD009007E018
:101C7000FFF718FD0099411A41F28830814256D889
:101C800030688007F4D42FB1DBF8001021F08051C8
:101C9000CBF80010A069C8B33949091D0968C1F320
:101CA000810102294AD00228504607D0C8F86000B6
:101CB00000E03CE0FFF7F6FC04463BE04746C8F88E
:101CC0006000FFF7EFFC064605E000BFFFF7EAFC07
:101CD000801B02282BD828688001F7D4D4E907019B
:101CE0000843A16A2A4A490802EB0141626A41EAB3
:101CF0008211084394F82C1040EA0161C9F80010E1
:101D000001203866FFF7CEFC044606E036E000BF4F
:101D1000FFF7C8FC001B022809D828688001F7D506
:101D20002CE000BFFFF7BEFC001B022802D90320F5
:101D3000BDE8F88F28688001F4D41FE00128F7D0AF
:101D4000D9F80000E26900F48001914214D1226ABE
:101D500000F03F0191420FD147F6C071626A014025
:101D6000914209D1A26A00F44031914204D1E16A62
:101D700000F07060884201D00120D9E70020D7E749
:101D80000438024000004742800E47420070004085
:101D90000000FFFF2DE9F0470446007900278A463E
:101DA00001280ED00125257160794FF00009012826
:101DB00009D00420A060012784F804903846BDE8CB
:101DC000F0870220FBE74FF0020884F80580FFF758
:101DD00069FC06460CE000BFFFF764FC801B02288C
:101DE00006D96571C4F8088084F804900120E6E7FC
:101DF00020684068C043C007EED120688068E0607A
:101E0000CAF800006571D7E770B5040003D06079A7
:101E1000002510B105E0012070BD2571204600F0BD
:101E20000DF8022060712068016841F00401016032
:101E300001206071A560002070BD000008B5006839
:101E40000649884208D10648016841F04001016016
:101E5000006800F04000009008BD00000008065037
:101E6000343802407047704710B5040003D094F82E
:101E70003D0010B107E0012010BD002084F83C00B7
:101E8000204600F00CF8022084F83D00211D206857
:101E900000F0B0FE012084F83D00002010BD704726
:101EA0000168CA6842F00102CA600068816801F0F6
:101EB0000701062903D0016841F0010101600020FB
:101EC0007047704770B50446006801694FF000051F
:101ED000C943890715D4C168C943890711D4E91ECC
:101EE000016101202077206880698007204602D0A8
:101EF000FFF7E7FF04E000F098F8204600F096F8BE
:101F0000257720680169C943490717D4C168C943C7
:101F1000490713D46FF00401016102202077206883
:101F2000806910F4407F204602D0FFF7CAFF04E02A
:101F300000F07BF8204600F079F8257720680169E9
:101F4000C943090716D4C168C943090712D46FF001
:101F500008010161042020772068C06980072046BD
:101F600002D0FFF7AEFF04E000F05FF8204600F07B
:101F70005DF8257720680169C943C90617D4C1688F
:101F8000C943C90613D46FF01001016108202077FE
:101F90002068C06910F4407F204602D0FFF791FF0F
:101FA00004E000F042F8204600F040F82577206871
:101FB0000169C943C90708D1C168C943C90704D128
:101FC000891E0161204600F032F820680169C9438A
:101FD000090609D4C168C943090605D46FF0800118
:101FE00001612046FFF73EFF20680169C9434906A9
:101FF00009D4C168C943490605D46FF040010161A5
:10200000204600F01BF820680169C94389060BD4FB
:10201000C168C943890607D46FF0200101612046D9
:10202000BDE87040FFF71FBF70BD70477047006884
:10203000B0F1804F01D1FFF73BBB7047704770474D
:1020400070B5026804461068D168536910F00F0F2C
:1020500052D003F0010501F490762E435FD0C20701
:1020600005D0CA0503D5E26B42F00102E2634207E4
:1020700005D5DA0703D0E26B42F00202E263820781
:1020800005D5DA0703D0E26B42F00402E2630207EF
:1020900007D501F020022A4303D0E26B42F0080288
:1020A000E263E26B002A33D0800604D5880602D5AD
:1020B000204600F06AFE20684069E16BC0F38010A2
:1020C000090700D428B3204600F048FE2068416983
:1020D00049061AD5416921F040014161606BA0B108
:1020E0001B490165606BFFF772F8002810D0606B28
:1020F000016DBDE870400847830610D58B060ED5EC
:102100002046BDE8704000F040BE2046FFF797FF34
:1021100070BD2046FFF793FF0020E06370BD03060B
:1021200006D50B0604D52046BDE8704000F00CBF74
:102130004006F3D54806F1D5D168204621F040018C
:10214000D160202184F8391000F014FA70BD00002D
:10215000BD2C000870B5040004D094F839000025A7
:1021600010B106E0012070BD84F83850204600F020
:1021700023F8242084F839002068C16821F4005134
:10218000C160204600F04CFE2068016921F49041B6
:1021900001612068416921F02A0141612068C1681C
:1021A00041F40051C160E563202084F8390084F8CF
:1021B0003A00002070BD00002DE9F04F87B00446C2
:1021C00014216846FEF79EF9B748B64B1438D4F888
:1021D00000C0DFF8D4E2022103220025071586158E
:1021E0004FF0070B4FF0006A4FF440399C453BD14C
:1021F000DEF800C04CF0100CCEF800C0DEF8003065
:1022000003F010030593036843F0010303600068C3
:1022100000F00100059050028DE82300CDE9032B6A
:102220006946A248FFF758F9DFF88882A04940467E
:1022300002C0E0E802A5E0E8035740F8045C80E84B
:1022400060024046C8F82450FFF7A4F808B1FEF732
:102250000FFCC4F83480002205212520C8F838403E
:10226000FFF7ACFA25205DE08F4BDFF84C821B1F97
:10227000C4455CD1D3F800C000254CF4003CC3F841
:1022800000C01B6803F400330593036843F00803A0
:102290000360006800F00800059060208DE82300CE
:1022A000CDE9032B69468548FFF716F9DFF804B23C
:1022B00083490BF1600B5846B84602C0E0E802A51E
:1022C000E0E803574F4640F8045C80E8E0005846D9
:1022D000CBF82450FFF75EF808B1FEF7C9FB754D47
:1022E0007748C035C4F834B01830CBF83840C5E969
:1022F000000A4020A8600020C5E9030805F1180184
:10230000686181E8C10068622846FFF743F808B1B8
:10231000FEF7AEFB2563002205212620AC63FFF704
:102320004DFA2620FFF73CFA07B0BDE8F08FDFF842
:102330009481C44556D1D3F800C0A8464CF4802CF3
:10234000C3F800C01B6803F480230593036843F0BF
:1023500008030360006800F0080005904FF4407027
:102360008DE82300CDE9032B69465448FFF7B4F804
:1023700055485349BB4660390160C0E901A5C0E931
:10238000035700F1180C4F4645618CE8E0004562A8
:10239000FFF700F808B1FEF76BFB4B4860634A4D4E
:1023A0008463474860353038C5E9000A4020A8609A
:1023B000C5E9038B05F118014046C5F8148081E892
:1023C000C1002846C5F82480FEF7E4FF08B1FEF7F7
:1023D0004FFB2563002205212720AC63FFF7EEF9B0
:1023E00027209FE7394B9C459ED1DEF800C0A846C8
:1023F0004CF0200CCEF800C0DEF8003003F02003D3
:102400000593036843F004030360006800F00400D0
:102410000590C0208DE823000820CDE903206946FF
:102420002B48FFF759F8DFF8A0A021490AF1C00AAC
:102430005046183902C04FF0206BE0E802B5E0E8E2
:10244000035740F8045C80E860025046CAF8245004
:10245000FEF7A0FF08B1FEF70BFB1E4D1448C4F8B1
:1024600034A06030CAF83840C5E9000B4020A860AD
:10247000C5E9038705F118014046C5F8148081E8D5
:1024800041022846C5F82480FEF784FF08B1FEF714
:10249000EFFA2563002205214720AC63FFF78EF990
:1024A00047203FE70010014044380240000002404E
:1024B000406402405404002000440040000C0240EC
:1024C000886002400048004074050020001401406C
:1024D0000008024094060020F8B5044690F83A003F
:1024E00020283CD1C1B3BAB394F83800012836D0C3
:1024F000012084F83800A162A2850025E56322202E
:1025000084F83A00636B1748D863636B1648186405
:10251000636B1648D864606B134605650846666BA6
:10252000216802463046091DFEF79EFF20680168BB
:102530004168009184F83850C16841F48071C160ED
:102540002068416941F0010141612068416941F021
:10255000400141610020F8BDFFE70120FBE70220B8
:10256000F9E70000172D0008532D0008CD2C0008B6
:10257000704770477047FEE7022001F029FC084DC4
:10258000012400BFC5F88042C5F88442C5F88842DE
:10259000C5F88C42C5F89042022001F019FCF1E721
:1025A0000000424210B5D0ED050AB6EE001A234AEB
:1025B00030EEC00A0446514280ED150AD0ED160AED
:1025C00070EE200A90ED110A00EE810A80ED110AEA
:1025D000BDEEC00A10EE100A01F02AF800EE100A53
:1025E000B8EEC01A84ED111AD4ED150A94ED160A4E
:1025F00070EEC01AC4ED121A94ED000A94ED012A8F
:10260000D4ED022A20EE200AB0EE403A02EE010A92
:1026100022EE011A02EEA10A84ED0C0A84ED0E3AB4
:1026200084ED0F1A22EEA11ABDEEC00A84ED101A35
:10263000C4ED160A10EE100A10BD0000F0D8FFFF1E
:102640000F4810B50D4901600321416000214FF48E
:10265000E0228160C0E903124FF4800242610176FA
:1026600041768176C17601774177FEF7A6FC002896
:1026700003D0BDE81040FEF7FBB910BD0064004078
:102680001C030020254808B5016841F48001016061
:10269000016801F480010091016841F400110160BA
:1026A0000068002200F40010009005210C20FFF7C4
:1026B00085F80C20FFF774F8002205210E20FFF7A3
:1026C0007DF80E20FFF76CF8002205211020FFF79F
:1026D00075F81020FFF764F8002205211120FFF79C
:1026E0006DF81120FFF75CF8002205213920FFF773
:1026F00065F83920FFF754F8002205213A20FFF74A
:102700005DF83A20FFF74CF8002205214520FFF73D
:1027100055F8BDE808404520FFF742B83038024080
:1027200010B5A4B01C221C496846FDF7B9FE002173
:10273000684600F0B2FF194C17491C2220601C317A
:1027400007A8FDF7ADFE002107A800F0A6FF12497B
:1027500060601C2238310EA8FDF7A2FE00210EA8F1
:1027600000F09BFF0C49A0601C22543115A8FDF716
:1027700097FE002115A800F090FF0749E0601C2299
:1027800070311CA8FDF78CFE00211CA800F085FF0D
:10279000206124B010BD0000504900080000002056
:1027A0002DE9F04186B014216846FDF7ABFE2F48B5
:1027B0004FF00008016841F010010160016801F06C
:1027C00010010591016841F080010160016801F08C
:1027D00080010591016841F001010160016801F08B
:1027E00001010591016841F008010160016801F0F3
:1027F00008010591016841F004010160016801F0E0
:1028000004010591016841F0020101600068184E61
:1028100000F00200059001221F213046FEF73DFF27
:10282000144F012280213846FEF737FF01241F2074
:10283000CDE90004022569463046CDE90245FEF7A0
:102840004BFEC020CDE90008694602950A48FEF714
:1028500043FE8020CDE9000469463846CDE90245B3
:10286000FEF73AFE06B0BDE8F081000030380240C5
:10287000001002400004024000000240074910B569
:10288000054808600846FFF7BFFA002803D0BDE8F6
:102890001040FEF7EDB810BD0008065044030020BC
:1028A0000D4810B50B4901600C49416000214FF4FF
:1028B00080628160C0E903120C22C0E90521C16178
:1028C000FFF748FC002803D0BDE81040FEF7D0B861
:1028D00010BD00000010014054030020A08601003C
:1028E0000C4810B50A4901604FF4E1314160002104
:1028F00081600C22C160C0E904128161C161FFF7EF
:1029000029FC002803D0BDE81040FEF7B1B810BD87
:1029100000440040940300200C4810B50A490160AF
:102920004FF4E1314160002181600C22C160C0E9B7
:1029300004128161C161FFF70DFC002803D0BDE8DE
:102940001040FEF795B810BD00480040D4030020A9
:102950000C4810B50A4901604FF4E1314160002193
:1029600081600C22C160C0E904128161C161FFF77E
:10297000F1FB002803D0BDE81040FEF779B810BD88
:102980000014014014040020FEE7FEE730B5144BAC
:102990001C68656945F0400565611B68DC6844F0AA
:1029A0001004DC600F4B1C68256825F001052560CC
:1029B0001C682568ED07F7D11D680B4CAC601C68DE
:1029C000E06018680161186842601868016841F4A5
:1029D000802101601868016841F00101016030BD8B
:1029E000540300205404002004100140002801DC9E
:1029F000404200B27047000070B5194CB4F90000B5
:102A0000FFF7F4FF4FF42F75A84217DCB4F902006A
:102A1000FFF7ECFFA84211DCB4F90400FFF7E6FF72
:102A2000A8420BDCB4F90600FFF7E0FFA84205DC82
:102A3000A07A18B1E07A08B1002070BD0020208093
:102A40006080A080E08020810221A172E172A081DB
:102A5000E0812082A074E074A082012070BD00009B
:102A60002444002038B50D46044669460548FFF762
:102A700091F9281B0099401CB1FBF0F200FB1210E9
:102A8000204438BD440300200648002101804180D5
:102A90008180C18001818181C18101828174C17481
:102AA000818270472444002000EE101A70B5B8EE01
:102AB000C00A1C4680ED050A00EE102AB8EEC00AD6
:102AC00080ED060AFFF76EFD044D62422146E86084
:102AD00000F0AEFDE86000B270BD00008400002090
:102AE0005FF0050001F074F90220FBE7012000F01F
:102AF000C8FDFBE710B5502080F31188BFF34F8F5E
:102B0000BFF36F8F01F0C8FA18B104494FF080503D
:102B10000860002080F3118810BD000004ED00E083
:102B200030B593B030216846FDF7ECFC14210CA8B9
:102B3000FDF7E8FC1E480025016841F08051016066
:102B4000006800F0805011901A48016841F48041FB
:102B500001600068022400F4804011900120009080
:102B6000000401908001CDE90640192008904FF43F
:102B7000A870CDE9090408200B906846FEF75CFFB9
:102B800008B172B6FEE70CA90F2081E831004FF4BE
:102B9000A0500F904FF48050109005210CA8FEF724
:102BA0003FFE002801D072B6FEE713B030BD000032
:102BB00040380240007000400548016841F470014F
:102BC000016003494FF000608039086070470000E1
:102BD00088ED00E010B5FDF759FD00F0A7FABDE85B
:102BE000104000F0D7BA00000148FFF76BB90000B1
:102BF000F4060020F0B50268254C264D264E274FDE
:102C0000274B4FF0804CA04209D0604507D0A84226
:102C100005D0B04203D0B84201D0984204D122F08E
:102C2000700E4A6842EA0E02A0421BD0604519D0DD
:102C3000A84217D0B04215D0B84213D0984211D054
:102C4000184DA8420ED0184DA8420BD0174DA842DF
:102C500008D0174DA84205D0164DA84202D0164DF7
:102C6000A84203D122F44075CA682A434D6922F074
:102C700080022A4302608A68C2620A688262A042B5
:102C800001D0984201D10969016301214161F0BD80
:102C9000000001400004004000080040000C00401B
:102CA0000004014000400140004401400048014050
:102CB00000180040001C00400020004010B5806B50
:102CC0000021C185C184FFF7BAF910BD70B5846BCE
:102CD0002068406994F83910C0F3C01000252129FC
:102CE00004D118B1E584204600F046F82068406918
:102CF00094F83A10C0F38010222904D118B1E58568
:102D0000204600F02BF8E06B40F01000E063204616
:102D1000FFF795F970BD10B50146806B0968096829
:102D2000C90513D40021C1850168CA6822F48072E4
:102D3000CA6001684A6922F001024A6101684A6971
:102D400022F040024A61202180F83A10FFF710FC7F
:102D500010BD10B5806BFFF70CFC10BD0168CA6890
:102D600022F49072CA6001684A6922F001024A6145
:102D7000202180F83A1070470168CA6822F0C0022A
:102D8000CA60202180F83910704710B590F83A10C9
:102D9000222901D0022010BD8168B1F5805F11D0D9
:102DA0000169002901681FD0496801F07F03816A29
:102DB0004A1C82620B70C18D491E0904090CC18531
:102DC00018D02BE00269816A002A0268526805D097
:102DD000D2B20A80816A491C8162ECE7C2F3080220
:102DE0000A80816A891CF7E74A68816A4B1C836202
:102DF0000A70E0E70168CA6822F02002CA60016830
:102E0000CA6822F48072CA6001684A6922F001022D
:102E10004A61202180F83A10FFF7AAFB002010BD7C
:102E20002DE9F041044600680169E26821F440514F
:102E3000114301612169A068E26908436169114396
:102E400008432168CA6849F20C639A430243CA6086
:102E500020684169A26921F4407111434161E06930
:102E6000192764253226B0F5004F354A35492068C8
:102E70004FF0000806D0884201D0904236D1FEF7CC
:102E800099FD35E0884201D0904202D1FEF792FDD3
:102E900001E0FEF77FFD61684A18A0FB070148EBDF
:102EA0000803FDF741FA0146B0FBF5F00201B1FB62
:102EB000F5F06FF01803584301EB800006EBC000FB
:102EC000B0FBF5F000F0F80002EB4002B1FBF5F0CA
:102ED000584301EB800006EBC000B0FBF5F000F0BA
:102EE0000700216810448860BDE8F081FEF752FDBC
:102EF00061688B0F8A00A0FB0701FDF715FA0146F8
:102F0000B0FBF5F06FF01802504301EB800006EBC8
:102F10000010B0FBF5F000F0F002B1FBF5F002EBB1
:102F20000012B1FBF5F06FF01803584301EB80007D
:102F300006EB0010B0FBF5F000F00F00D1E7000049
:102F4000001401400010014090F83910212901D0EF
:102F5000022070478168B1F5805F016A0BD04A1C7E
:102F60000262026809785160C18C491E0904090C8B
:102F7000C1840ED017E009880268C1F308015160CE
:102F800001690029016A02D0491C0162ECE7891C31
:102F9000FBE70168CA6822F08002CA600068C16865
:102FA00041F04001C16000207047000010B50448A6
:102FB000FFF746F8BDE81040014800F045B80000B2
:102FC0005403002010B50448FFF73AF8BDE810405C
:102FD000014800F003B800009403002010B5016818
:102FE0000A6810490A600068406808600E48426B31
:102FF0001268136823F001031360406B0068406897
:10300000C0F5807008600A68084901F5C06000F0EA
:10301000ABFABDE810404FF4807204490248FFF754
:103020005BBA0000C000002094030020B8470020D5
:103030000148FFF705B80000D40300200148FEF75F
:10304000FFBF000014040020284918B40020C1F874
:103050008002274800680168890604D50168406835
:10306000009018BC704723490968C906F9D5016862
:103070004068214A0090106801684FF024030C0357
:103080001E49046824F00104046016D414686068C2
:10309000C0F1240080B20880636011680B6843F4BB
:1030A00000230B6011680A6842F001020A601228CE
:1030B000D7D1134901F1160015E010684468C4F136
:1030C0002404A4B20C8043600E48016821F400215E
:1030D00001601068016841F001010160122CC0D14B
:1030E000074901F13A0018BC00F054BD000042420B
:1030F00054030020001001405404002094000020DC
:103100002444002040640240FEE70907090E00281D
:1031100004DB00F1E02080F80014704700F00F009D
:1031200000F1E02080F8141D7047000070B5154CC8
:103130002068C16841F01001C1604FF480752A46D3
:1031400011492046FFF7C8F910492A4601F5407099
:1031500000F0FAF9401C01D1FDF78AFC206B0068F1
:10316000016821F00101016009494FF4007201F585
:10317000057000F0E9F9401C03D1BDE87040FDF78F
:1031800077BC70BD94030020B8470020B84A0020E7
:10319000B84B002000B587B000F0F4FC1C220649B3
:1031A0006846FDF77DF90021684600F076FA03498C
:1031B000086007B000BD0000FC490008980000202E
:1031C00070B505460068324BC17AA3F11004491E60
:1031D000CAB2817A02EB4202491EC9B21A44515C5A
:1031E00085F85C12082943D003DC19B3022904D105
:1031F00033E0092937D00A2902D0022085F85C0281
:1032000094ED030ABDEEC00A10EE100A94ED020A16
:1032100003B2BDEEC00A10EE100A94ED010A02B22C
:10322000BDEEC00A10EE100A01B22846BDE870409B
:1032300000F03EB9FFF728FC0020A884A5F8400064
:10324000A5F85C009FED130AA5F8780084ED030A49
:1032500084ED020A84ED010AD2E7012085F85C02C0
:10326000FFF712FCCCE79FED0C0A84ED030AC7E7D9
:10327000B0F9000000EE100AB8EEC00A84ED010AB1
:10328000FDF706FC2070FDF711FC6070B8E7000048
:10329000AC0000200000000000007A4510B59FED52
:1032A000130A0021C1EBC10200EB8202D368B3F91B
:1032B000024000EE904AF8EEE00AC2ED050A1B88D3
:1032C00000EE903A01EB410300EB4313F8EE600A85
:1032D000491CC9B2C2ED070AD3ED310A042960EED8
:1032E000800AC2ED040ADDD310BD00000000FA43DD
:1032F00070B504462DED028B00F096F93B4D206031
:1033000000202870C0B200F085F901462878C0EB93
:10331000C00204EB8202401CC0B2D16028700428B5
:10332000F0D3FFF769FB9FED328A04F25D20B0EE27
:10333000480A00F05DF9B0EE480A04F26D2000F092
:1033400057F99FED2C8AB0EE001AF0EE000AB0EEAD
:10335000482AF0EE481AB2EE000A04F17C0000F0B0
:10336000C7F9B0EE482AF0EE481AB0EE001AF0EEB7
:10337000000AB2EE000A04F1DC0000F0B9F9B0EE88
:10338000482AF0EE481AB0EE001AF0EE000AB2EE4B
:10339000000A04F59E7000F0ABF9B0EE482AF0EE9A
:1033A000481AB0EE001AF0EE000AB2EE000A04F578
:1033B000CE7000F09DF9B0EE482AF0EE481A9FED6D
:1033C0000E1AF2EE040A9FED0D0A04F5FE7000F0ED
:1033D0008FF90220FDF7D4F9012084F88C022046F1
:1033E000BDEC028BBDE87040FFF758BFB60000206F
:1033F00060E5503D00000000CDCC2C410000C842EB
:1034000070B590ED050A044641F28835BDEEC00A5C
:103410002B4610EE100A94ED060A02B2BDEEC00A69
:1034200010EE100A01B204F17C00FFF73DFBA0840E
:1034300094ED0C0A2B46BDEEC00A10EE100A94ED76
:103440000D0A02B2BDEEC00A10EE100A01B204F17C
:10345000DC00FFF729FBA4F8400094ED130A2B468B
:10346000BDEEC00A10EE100A94ED140A02B2BDEED1
:10347000C00A10EE100A01B204F59E70FFF714FBAB
:10348000A4F85C0094ED1A0A2B46BDEEC00A10EEBB
:10349000100A94ED1B0A02B2BDEEC00A10EE100A2B
:1034A00001B204F5CE70FFF7FFFAA4F8780070BD02
:1034B0001FB5044603AA02A901A8FDF787F9BDF9C3
:1034C0000400404200EE100A04F25D20B8EEC00A8B
:1034D00000F072F8BDF9080000EE100A04F26D2049
:1034E000B8EEC00A00F068F894F85C02082818D01A
:1034F000022821D0092801D00A2811D1BDF90C00D9
:1035000000EE100AB8EEC00A84EDA00A94F88C020E
:10351000012803D0002803D1B1EE400A84ED060A49
:103520001FBDBDF90400F1EE040A00EE100AB8EE6A
:10353000C00A20EE200A01E09FED020A84EDA00AF5
:10354000ECE700000000000012B1531E1A4202D046
:103550004FF0FF3070470023436083600160828139
:1035600002821846704700002DE9F04104460E46DD
:10357000D4E90101431AA189CB1A934200D21A4619
:1035800017460C4A17604A1E10400D1ABD4200D360
:103590003D4621682A4608443146FCF73CFF7A1B29
:1035A00071192068FCF737FF60683844606038465E
:1035B000BDE8F081C400002010EE101AB7EE001A2A
:1035C000016000EE101AC16800EE901A20EE200A89
:1035D00000EE901A416831EE601A00EE901A01EE8A
:1035E000200A10EE101A8160416000EE101A704738
:1035F000002806D00021016010EE102A4160C26050
:1036000081607047B5EEC00AF1EE10FA01D2B1EE5A
:10361000400A704700F003000249C0EBC00001EB14
:1036200080007047844400200048704724440020F4
:10363000884201DD084670479042FCDA1046704728
:10364000FEF73EF8FFF76CFAFFF7AAF8FFF71AF853
:10365000FEF7F6FFFFF724F9FFF75EF9FFF778F9B9
:10366000FFF73EF9FFF70AF9FFF7B4FAFFF758F84A
:1036700000F00EF8FEE701460020842900D0C81CA7
:10368000704710B500B9012000F0A2FB002010BD6A
:1036900010B500F0C3FB002010BD7FB50D460446F9
:1036A0004169B0F9080081B1A16971B1FFF7E3FF89
:1036B000D4E905128DE80700D4E900102B462269F1
:1036C00000F0BFFC039004B070BDFFF7D4FF03A966
:1036D000CDE90001208A2B4682B2D4E9001000F027
:1036E00083FC012801D00020EDE70398EBE7000000
:1036F00000281BD080EC030A9FED0D0A80ED050A1F
:1037000080ED060A80ED0C0A80ED0D0A80ED110AAD
:1037100080ED140A80ED130A80ED120A80ED150A7F
:1037200080ED0E0A80ED0F0A80ED100A7047000050
:10373000000000002DE9F041184C0F46054666696F
:103740002068001D00F080FA38B9206890F82C102D
:1037500001208840A1698143A161681C07D137B16C
:103760002168BDE8F0410E48091D00F0B1BA20689B
:103770003544B5424560216805D2A068BDE8F041F6
:10378000091D00F08DBA6068091D00F089FA206BF0
:10379000854200D22563BDE8F081000024000020AE
:1037A000100800202DE9F041054600F09DFA2E4C4E
:1037B0002069401C206120682C4F10B1E06940B3A3
:1037C0002DE025602069012829D1002606EB86001E
:1037D00007EB800000F056FA761C072EF6D323483C
:1037E0008C3000F04FFA2148A03000F04BFA1F480F
:1037F000B43000F047FA1D48C83000F043FA1B48C7
:10380000DC3000F03FFA19488C3060601430A06062
:1038100005E02068E96AC06A884200D82560E06A4D
:10382000401CE062E96A0120A26988401043A0615F
:1038300001EB810007EB8000291D00F049FA00F040
:1038400073FAE06900280CD02068E96AC06A8842EF
:1038500007D207494FF080500860BFF34F8FBFF386
:103860006F8FBDE8F08100002400002034070020A5
:1038700004ED00E010B5044690F8510058B101285D
:103880000CD002280FD0502080F31188BFF34F8F47
:10389000BFF36F8FFEE7206B00F05AFA2046BDE8B9
:1038A000104000F055BA10BD10484FF47051420757
:1038B00006D0C01D0D4920F00700411AC1F5705116
:1038C0000B4A00230144C2E900030839103A21F0F1
:1038D000070111604B600B600B1AC0E90013936085
:1038E0004FF000405360D060704700002408002073
:1038F00070000020144E154CA6F1C8074FF08058F8
:10390000DFF84C9012E000BF00F0EEF9F068C568F7
:10391000281D00F099F92069401E2061E068401ED2
:10392000E06000F001FA2846FFF7A4FFE0680028F5
:10393000EAD138680128F9D9C9F80080BFF34F8F60
:10394000BFF36F8FF2E70000FC0700202400002087
:1039500004ED00E02DE9F0479A46DDE9098481464F
:103960006FF00303206B03EB82021044089E20F0EB
:103970000707780707D0502080F31188BFF34F8FD7
:10398000BFF36F8FFEE7002561B1002023180A5CAA
:1039900083F834200A5C12B1401C1028F6D384F856
:1039A000435001E084F83450072E00D30626E66227
:1039B000C4E91165201D00F070F904F1180000F051
:1039C0006CF92461C6F107006462A061E56484F8C3
:1039D000505052464946384600F0BEF82060B8F1D3
:1039E000000F01D0C8F80040BDE8F08730B511499C
:1039F00000E011460A688242FBD34B685C1884429F
:103A000003D1406818444860084643681C18944233
:103A100009D1084C103C2468A24209D052681A44CB
:103A200042600A6812680260814200D0086030BDBE
:103A30000460F9E77000002006484168096829B170
:103A40004168C968C9684968016370474FF0FF3130
:103A5000FAE700002400002008484068401C4FF0AE
:103A6000500080F3118804D0BFF34F8FBFF36F8FE6
:103A7000FEE7BFF34F8FBFF36F8FFEE778000020A4
:103A80002DE9F0410546002700F0FEF9314E30687F
:103A900008B9FFF709FFF06805424BD1C5B30835F7
:103AA00068070ED005F00700C0F10800054468075C
:103AB00007D0502080F31188BFF34F8FBFF36F8F73
:103AC000FEE72DB37068854234D822481030014695
:103AD0000C6801E020460C466168A94202D22168C8
:103AE0000029F7D131688C4224D007682168016031
:103AF00060680837411B10290FD96019420708D0A8
:103B0000502080F31188BFF34F8FBFF36F8FFEE714
:103B100010E041606560FFF769FF61687068401AF6
:103B20007060B268904200D2B060F068014300203B
:103B3000C4E9000100F014FB780707D0502080F39F
:103B40001188BFF34F8FBFF36F8FFEE73846BDE894
:103B5000F08100006000002010B5031F4FF080745A
:103B60001C601B1F21F001011960191F044B0B6021
:103B700014390A60091F6FF0020244380A6010BD50
:103B8000593A000802492422A1F12400FEF7FEBEA2
:103B90005E440020F0B5002855D0002953D00278AB
:103BA000437842EA0322C2F30A020A804378847807
:103BB000DB0843EA4413C3F30A034B808478C578D7
:103BC000A40944EA8504057944EA8524C4F30A0477
:103BD0008C80057946796D0845EAC615C5F30A0556
:103BE000CD804679C6F301168E724679B609CE723B
:103BF0008679C77946EA07268E81067A477A46EAA9
:103C00000726CE81867AC77A46EA07260E82067B89
:103C10008E74467BCE74867BC77B46EA07268E82EF
:103C2000067C407CA2F580620A80A3F580634B800D
:103C3000A4F5806446EA00208C80A5F58065CD80DF
:103C4000A0F580600881F0BDD0E9013201699A6079
:103C5000D0E901235A604A68824201D182684A60F1
:103C6000002202610868401E086008687047000072
:103C7000034B036003F1540008608020106070471C
:103C8000C800002000F108014FF0FF32C0E9011226
:103C9000C16001610021016070470021016170472E
:103CA00030B50B685A1C02D000F1080202E002692C
:103CB00004E02246546825689D42FAD953684B6057
:103CC00099608A60516008610168491C016030BDDB
:103CD00042684A6093688B6093685960916008619C
:103CE0000168491C01607047502080F31188BFF3C0
:103CF0004F8FBFF36F8F0A494868401C4860012806
:103D00000CD10848006810F0FF0F07D0502080F356
:103D10001188BFF34F8FBFF36F8FFEE7704700002E
:103D20007800002004ED00E00849486828B1401EF2
:103D3000486001D180F311887047502080F31188CA
:103D4000BFF34F8FBFF36F8FFEE7000078000020B6
:103D500070B5002827D0144DA0F108046168E86808
:103D6000014207D1502080F31188BFF34F8FBFF37A
:103D70006F8FFEE722683AB1502080F31188BFF3BD
:103D80004F8FBFF36F8FFEE78143616000F07CF8D7
:103D900060686968084468602046FFF727FEBDE850
:103DA000704000F0DDB970BD600000204FF0E020F1
:103DB00000210161816105494FF47A720968B1FB04
:103DC000F2F1491E41610721016170472000002086
:103DD00010B5020014D00F48806B38B1502080F32A
:103DE0001188BFF34F8FBFF36F8FFEE700F04CF8E1
:103DF00000211046FFF79EFC00F0B2F9002807D121
:103E000005494FF080500860BFF34F8FBFF36F8FAD
:103E100010BD00002400002004ED00E010B586B0C5
:103E20000024039405AA04A903A80494FFF720FF23
:103E3000DDE903010094CDE9011000230EA1104833
:103E4000059A00F0FEF80F490028486311D0502071
:103E500080F31188BFF34F8FBFF36F8F4FF0FF30A8
:103E600008630120C8614C6106B0BDE8104000F055
:103E700041B806B010BD000049444C4500000000A8
:103E8000F5380008240000200248816B491C81633A
:103E900070470000240000201448816B11B10121FB
:103EA00041627047002141628169B1FA81F1C1F13B
:103EB0001F0101EB81020E4951F822306BB101EB79
:103EC000820101F108034A6852684A609A4201D1AE
:103ED00052684A60D16801607047502080F31188B1
:103EE000BFF34F8FBFF36F8FFEE700002400002069
:103EF000340700201CB537480168374A914207D182
:103F0000502080F31188BFF34F8FBFF36F8FFEE710
:103F100000683149491E884207D1502080F311883A
:103F2000BFF34F8FBFF36F8FFEE72C4908780190E6
:103F3000FF20087008788DF800009DF800009DF8BB
:103F4000002000F0F000904207D0502080F311884C
:103F5000BFF34F8FBFF36F8FFEE79DF80000204B3C
:103F600000F0500018700720986005E09DF80020D0
:103F700052008DF80020401E9DF800201206F5D456
:103F80009860032807D0502080F31188BFF34F8F2B
:103F9000BFF36F8FFEE74FF4407098600198087090
:103FA0000C482030016841F470010160016841F063
:103FB00070410160FFF7FAFE00205860FCF758F9E5
:103FC0000848016841F040410160FCF73DF90020DC
:103FD0001CBD000000ED00E071C20F4100E400E0F4
:103FE0007800002034EF00E02DE9FF5F8346DDE933
:103FF0000E87994616468A469000FFF741FD050058
:104000001CD05420FFF73CFD040014D00020256391
:1040100084F85100CDE90240CDE900874B46324695
:1040200051465846FFF796FC2046FFF7BBFB0120A0
:1040300004B0BDE8F09F2846FFF78AFE4FF0FF303E
:10404000F6E7F0B585B0DDE90B640A9DA6B1DCB1F9
:10405000542700972663022684F85160002604AF97
:10406000CDE90246CDE90057FFF774FC2046FFF783
:1040700099FB049805B0F0BD502080F31188BFF380
:104080004F8FBFF36F8FFEE7502080F31188BFF38F
:104090004F8FBFF36F8FFEE72DE9F0412E4C0027C5
:1040A000A06B40B1206A401C2062606A00B1012709
:1040B0003846BDE8F0816669761C666113D1606898
:1040C000006838B1502080F31188BFF34F8FBFF3E1
:1040D0006F8FFEE76068A1686160A060A06A401C05
:1040E000A062FFF7A9FC206BDFF87080864209D33D
:1040F0006068006880B16068C068C56868688642AA
:104100000DD220632068C06A00EB800158F82100BE
:104110000128CAD90127C8E74FF0FF30F1E7281D71
:10412000FFF792FDA86A18B105F11800FFF78CFDA2
:10413000E86A0121A26981401143A16100EB80017D
:1041400008EB8100291DFFF7C3FDE86A2168C96AF1
:104150008842CDD30127CBE724000020340700207C
:104160002DE9F0472C4D00242746A86B38B1FFF706
:10417000BBFDA86B401EA863A86B40B146E0502071
:1041800080F31188BFF34F8FBFF36F8FFEE729696C
:10419000224E0120D1B3A6F1B40980463068E8B1BF
:1041A000F068C46804F11800FFF74EFD201DFFF70A
:1041B0004BFDE06AAA6908FA00F11143A96100EB1E
:1041C000800109EB8100211DFFF782FDE06A29686B
:1041D000C96A8842E2D3C5F82480DFE70CB1FFF753
:1041E0002BFC2C6A44B14646FFF756FF00B16E62C5
:1041F000641EF9D100202862686A38B10849012795
:1042000038070860BFF34F8FBFF36F8FFFF78CFD48
:104210003846BDE8F087000024000020E8070020B1
:1042200004ED00E010B591EA030F48BF83F00043AE
:1042300000F1A682841A71EB030C05D2121943EB2C
:104240000C03001B61EB0C01DFF824E14FEA115471
:10425000A4EB135C1EEA430F18BF9EEA445F73D0C1
:1042600023EA0E03DCF1200E21EA045143F480130B
:1042700032D322FA0CFE10EB0E0023FA0CFE41EBB7
:104280000E01CCF1200E03FA0EFE10EB0E0051F1E0
:104290000001B1F5801FCCF1200E32D201EB0451A8
:1042A00012FA0EF2BDE8104058BF7047401C38BFEC
:1042B0005FEA420218BF7047002814BF20F00100D7
:1042C00041F100014FEA410313F5001F38BF704769
:1042D000A1F1C04100F03ABA012A43EB0302ACF16C
:1042E000200CDCF11F0E32BF4FF0000E23FA0CF34E
:1042F00010EB030041EB0451B4EB115FD0D0A1EB04
:10430000045101F5801149085FEA300001EB0451C6
:104310000ED350F1000038BF12FA0EFE08D1BDE8EE
:104320001040C9E7401C38BF5FEA4202CAD1C3E768
:10433000BDE810404FEA410313F5001F38BF704736
:10434000A1F1C04100F002BA9EEA445F08D011EA30
:104350005E0FBDE8104004BF01F00041002070472F
:10436000BDE8104070B500F0A3F900BF64FBBE3E8D
:104370000000E0FF2DE9C04130B4DFF8A0C23CEA04
:10438000111418BF3CEA131400F0EC8081EA030515
:104390001CEA111444EAD57418BF1CEA131500F086
:1043A000C780A4EB05044FF0004545EAC12145EA6A
:1043B000C32341EA505143EA525304F17F749942B6
:1043C00004F500344FEAC0204FEAC22208BF9042F1
:1043D00000F09C804FEA13650FF24016765D4FEABD
:1043E000134506FB05F7C7F1807706FB07F74FEA91
:1043F000D737A7FB03687642C8F58038A7FB06CEFF
:1044000038BFA8F1010807FB08E64FF0000EA6FB35
:10441000028CE6FB03CEDCF1000CCEF1004E38BF7F
:10442000AEF1010EA6FB0C584FF000074FF000054F
:10443000E6FB0E87A1FB08C6A0FB07CE16EB0E0617
:1044400045F10005E1FB076515F1E04E7EBFA4F5DF
:1044500080345FEA46066D4116F1800745F100059C
:104460004FEA17274FEA066647EA0567A6F1DE46D8
:10447000B6F1805F4FEA15251FD9384624F0010CAC
:1044800005EBC471BCF1FE6F01EB0C1102D8F0BC5E
:10449000BDE8008124425CBF01F5801E9EEAC47F16
:1044A00002D4F0BCBDE80081244238D4F0BCA1F1B4
:1044B000C041BDE8004100F049B94FEAD22242EACA
:1044C00043524FEAD323A7FB02864FEAD02040EAAB
:1044D000415007FB03661EEA0E0F4FEAD12105FB90
:1044E000026658BFA6EB0056B6EB00564FEA520ED6
:1044F0004EEAC37E18EB0E0E56EB530EBDD518EBED
:1045000002085E417F1C55F10005B6E74FF48015A7
:104510004FF000074FF000064FF00008ADE7F0BC89
:104520004FF0000001F1C04101F00041BDE8008101
:1045300011EA0C1F0CEA131500D00CE013EA0C1F53
:1045400000F025804FF00000F0BC81EA030101F08B
:104550000041BDE80081F0BCBDE8004181EA0301F3
:1045600000F0F4B8F0BCBDE8004170B500F0A0F870
:10457000097EFC3E00F007B881EA03014FF000001D
:1045800001F00041704781EA030100F0DFB8F0BCA0
:10459000BDE800414FF0000021497047FFFDFBF9E5
:1045A000F7F5F4F2F0EEEDEBE9E8E6E4E3E1E0DE66
:1045B000DDDBDAD8D7D5D4D3D1D0CFCDCCCBCAC8D8
:1045C000C7C6C5C4C2C1C0BFBEBDBCBBBAB9B8B7FF
:1045D000B6B5B4B3B2B1B0AFAEADACABAAA9A8A8F2
:1045E000A7A6A5A4A3A3A2A1A09F9F9E9D9C9C9BC0
:1045F0009A9999989797969595949393929191906B
:104600008F8F8E8E8D8C8C8B8B8A898988888787FB
:104610008685858484838382828181800000FF0770
:104620000000F87F4FEA41034FEA5353A3F580633C
:10463000D3F11E03C8BFD3F1210C0CDD4FF00042B3
:1046400042EAC12242EA505232FA03FC8CEAE17C8F
:10465000ACEBE1707047102BC4BF0020704703F52E
:10466000787CBCF1FF3F04D06FF0004282EA210069
:10467000704770B500F01CF8499224800020704704
:10468000F2E710F0004248BF4042B0FA80F310FA5F
:1046900003F10AD0C3F11D0303F580634FEA4150D3
:1046A00002EB035202EBD12170474FF0000070473C
:1046B0000EF1020E2EF0030E5EF8046B364205D4A6
:1046C000012A43EB030515F5001F12D8012841EB21
:1046D000010C1CF5001F0CD80ED14FEAD17C15F54A
:1046E000001F0CEB4C0C0CF1020C08BF4CEBD37C04
:1046F00004E04FF0080C01E04FEAD37C0CEB4C05D2
:1047000026FA05F606F00706B6F1040C06D20EEB03
:10471000860CBDE870404CF0010C6047DFE80CF0FF
:10472000090B02024FF000414FF00000A1F50021FB
:1047300070BD19461046012851EB010418BFD4F58D
:10474000001484BF002001F0004170BD0808A0F5EE
:1047500000114FEA3101704791EA030F10B581F063
:1047600000413FF567AD83F0004300F009B8000059
:1047700010B591EA030F48BF83F000433FF55AADEF
:10478000841A71EB030C07D212198CF0004C43EB26
:104790000C03001B61EB0C01DFF8A4E14FEA11549C
:1047A000A4EB135C1EEA430F18BF9EEA445F00F0BF
:1047B000B08023EA6E03524221EA0451C3EB6E0338
:1047C00038BF5B1EDCF1200E25D322FA0CFE10EB65
:1047D0000E0043FA0CFE41EB0E01CCF1200E03FA61
:1047E0000EFE10EB0E0051F10001CCF1200E29D489
:1047F00012FA0EF201EB0451BDE8104058BF7047A9
:10480000401C1CBFB2F1004F704700280CBF491C70
:1048100020F00100704712EB020E43EB030218BFB9
:104820004FF0010E4EEA4202ACF1200CDCF11E0EFC
:1048300054D943FA0CFE10EB0E0051F1FF31CCF1CC
:104840001E0ED5D50EF1010E12FA0EFE404141EBBF
:10485000010101EB445C5FEA5C5C10D910EBDE7097
:1048600001EB045138BFBEF1004FBDE8104018BF46
:10487000704700280CBF491C20F00100704730D25F
:104880004FEAD42C11F5001124F400641BD0B1FAC6
:1048900081F20B3AA41AA41ED2F12003914030FAFF
:1048A00003F31943904001EBCC71002C01EB045150
:1048B000BDE81040A8BF704701F1C0414FF00000B3
:1048C00001F000417047B0FA80F310FA03F100D113
:1048D00010BDE41A173C4805C90AE4E701EB04518E
:1048E00010BD491001EB0451BDE810404FEA300003
:1048F00002E04FF0000170474A0008BF0042F8D0C4
:10490000B2F5001F28BF704701F000414FF00000D2
:1049100070479EEA445F07D011EA5E0FBDE8104081
:1049200004BF002100207047BDE8104070B5FFF7BC
:10493000BFFE00BF40DFF63E83F0004110467047E7
:104940000000E0FF4FF04070E1EE100A70470000F9
:10495000444A0008ED2A00080000000000000000A2
:10496000800000000000000000000000384A00083D
:10497000750A00080100000000000000800000002F
:104980000000000000000000244A0008550A00084A
:10499000FFFF000000000000800000000000000099
:1049A00000000000184A0008E12A00080200000088
:1049B0000000000080000000000000000000000077
:1049C000304A000879250008FDFF000000000000C3
:1049D000800000000000000000000000000610162B
:1049E0000006101600000000000000000102030491
:1049F000060708090000000001020304504A0008ED
:104A0000190700080300000000000000C8000000B3
:104A10000000000000000000534146455441534B44
:104A2000000000004465746563745441534B0000FA
:104A30004C65645461736B00466972655461736BB5
:104A40000000000064656661756C745461736B00EE
:104A5000436861737369735461736B007C4A000827
:104A600000000020C8000000C4010008444B0008FA
:104A7000C800002078530000E0010008000000009A
:104A80000000000000000000000000000000000026
:104A90000100000010000000000000000024F400ED
:104AA0000000000000000000000000000000000006
:104AB00000000000000000000000000000000000F6
:104AC00000000000000000000000000000000000E6
:104AD00000000000000000000000000000000000D6
:104AE00000000000000000000000000000000000C6
:104AF0000000000000000000AAAAAAAA000000000E
:104B000000000000000000000000000000000000A5
:104B10000000000000000000000000000000000095
:104B20000000000000000000090208080208090255
:104B3000080000000000000000000000000000006D
:044B40000000000071
:040000050800018965
:00000001FF
