:020000040800F2
:1000000000540020E9020008772700089F23000819
:1000100075270008CB050008C92E00080000000065
:10002000000000000000000000000000290200089D
:100030003D0900080000000085020008B128000802
:100040000303000803030008030300080303000878
:100050000303000803030008030300080303000868
:100060000303000803030008030300080303000858
:1000700045080008030300085108000803030008AE
:100080005D0800086908000803030008030300086E
:10009000CD0500080303000803030008030300085C
:1000A0000303000803030008030300080303000818
:1000B000A92900080303000803030008030300083C
:1000C00003030008030300080303000803030008F8
:1000D000030300086D2D0008852D0008F12D000890
:1000E00003030008030300080303000803030008D8
:1000F00003030008030300080303000803030008C8
:1001000003030008030300080303000803030008B7
:1001100003030008030300080303000803030008A7
:10012000030300087508000881080008030300089D
:100130000303000803030008030300080303000887
:100140000303000803030008030300080303000877
:10015000030300088D08000803030008FD2D0008B4
:100160000303000803030008030300080303000857
:100170000303000803030008030300080000000055
:10018000030300080303000800F002F800F03CF845
:100190000AA090E8000C82448344AAF10107DA45E2
:1001A00001D100F031F8AFF2090EBAE80F0013F0F8
:1001B000010F18BFFB1A43F001031847183F000056
:1001C000383F0000103A24BF78C878C1FAD85207E7
:1001D00024BF30C830C144BF04680C6070470000C1
:1001E0000023002400250026103A28BF78C1FBD840
:1001F000520728BF30C148BF0B6070471FB503F0DE
:10020000DDFE1FBD10B510BD00F0A6F91146FFF7C9
:10021000F5FF03F0E3F800F0C4F903B4FFF7F2FFD1
:1002200003BC00F0CBF900002C4B19680868B0E85B
:10023000F04F80F30988BFF36F8F4FF0000080F319
:10024000118870470000000008480068006880F3CB
:1002500008884FF0000080F3148862B661B6BFF3DF
:100260004F8FBFF36F8F00DF00BF00BF08ED00E0CE
:10027000DFF80C00016841F470010160704700BFB5
:1002800088ED00E0EFF30980BFF36F8F134B1A681E
:100290001EF0100F08BF20ED108A20E9F04F10600B
:1002A00009B44FF0500080F31188BFF34F8FBFF3B4
:1002B0006F8F03F0BDFC4FF0000080F3118809BC84
:1002C00019680868B0E8F04F1EF0100F08BFB0ECD6
:1002D000108A80F30988BFF36F8F704724000020D5
:1002E000EFF3058070470000094880470948004740
:1002F000FEE7FEE7FEE7FEE7FEE7FEE7FEE7FEE7D6
:10030000FEE7FEE704480549054A064B7047000032
:100310007529000889010008004E002000540020C3
:10032000005000200050002053EA020C00F06980C9
:100330002DE9F04B4FF00006002B1FBFB3FA83F5F9
:1003400003FA05F424FA05F65E4012BF1643B2FA2A
:1003500082F502FA05F4C5F120051EBF22FA05FC5C
:1003600044EA0C04203556EA044C4FEA144418BF02
:10037000641C4FF000084FF00009904271EB030C31
:1003800039D3002919BFB1FA81F701FA07F6B0FA9B
:1003900080F700FA07F6C7F120071EBF20FA07FC16
:1003A00046EA0C062037B6FBF4FCA7EB0507103F26
:1003B00007F01F0BCBF120060CFA0BFB2CFA06F60C
:1003C00044BFB3460026202FA4BF5E464FF0000B6B
:1003D0005BEA060C08BF4FF0010B19EB0B09ABFBF6
:1003E000027C48EB0608C01B06FB02CC0BFB03CCCF
:1003F00071EB0C01C1E70B46024641464846BDE899
:10040000F08B13B54FF000004FF00001AFF3008008
:10041000BDE81C407047032A40F2308010F0030C06
:1004200000F0158011F8013BBCF1020F624498BF47
:1004300011F801CB00F8013B38BF11F8013BA2F1E4
:10044000040298BF00F801CB38BF00F8013B11F05F
:10045000030300F02580083AC0F0088051F8043BFF
:10046000083A51F804CBA0E80810F5E7121D5CBF6C
:1004700051F8043B40F8043BAFF30080D20724BF9F
:1004800011F8013B11F801CB48BF11F8012B24BF33
:1004900000F8013B00F801CB48BF00F8012B704782
:1004A00010B5203AC0F00B80B1E81850203AA0E80F
:1004B0001850B1E81850A0E81850BFF4F5AF5FEA43
:1004C000027C24BFB1E81850A0E8185044BF18C9F6
:1004D00018C0BDE810405FEA827C24BF51F8043B9D
:1004E00040F8043B08BF7047D20728BF31F8023BF1
:1004F00048BF11F8012B28BF20F8023B48BF00F885
:10050000012B70474FF0000200B513469446964603
:10051000203922BFA0E80C50A0E80C50B1F1200116
:10052000BFF4F7AF090728BFA0E80C5048BF0CC0C4
:100530005DF804EB890028BF40F8042B08BF704722
:1005400048BF20F8022B11F0804F18BF00F8012B94
:100550007047704770477047754600F02BF8AE46FD
:1005600005006946534620F00700854618B020B5BF
:10057000FFF7C8FEBDE820404FF000064FF000072F
:100580004FF000084FF0000B21F00701AC46ACE83B
:10059000C009ACE8C009ACE8C009ACE8C0098D46A8
:1005A000704710B50446AFF300802046BDE8104008
:1005B000FFF733BE00487047A04D002001491820C6
:1005C000ABBEFEE7260002007047FEE7014800F0E0
:1005D00050BB00000803002000B58BB000200121B3
:1005E000CDE90601089100900190029003900590DA
:1005F00004906946054800F041FA044800F034FDD3
:100600000221024800F0BAF90BB000BD0803002037
:100610003EB5124C4FF4007525600025A560E560DD
:1006200008252561040A8DF800408DF80100080AAC
:100630008DF80200100A8DF804008DF80520180AC4
:100640008DF806008DF803108DF8073002AB6A466E
:100650000249034800F0A4F93EBD000060440020B8
:1006600008030020052003F07FFA114802F00EFD78
:100670000F4C104F00260E4D02F0B4F8284602F041
:10068000DBFC284602F07AFC284602F087FDC7F81A
:100690008462B4F97830B4F95C20B4F94010B4F94C
:1006A0002400FFF7B5FF022003F05EFAE3E7000045
:1006B000E8440020000042422DE9F74FDFF8748142
:1006C0000E462DED028B07460188B8F80020B8F8D9
:1006D0000200891A0DB23188DFF85C91081A04B261
:1006E00099F85C02DFF854A1DFF854B1F1EE068A04
:1006F000B0EE0C8A092845D100EE105AB8EEC00AB7
:1007000002F04EFE10EE100A504518DD00EE105AB1
:10071000B8EEC00A02F044FE00EE905AB8F90000AC
:10072000B8EEE01AC1EE000A00EE100AB8EEC00AF8
:1007300000EEA80ABDEEC00A10EE100A388000EEE6
:10074000104AB8EEC00A02F02BFE10EE100A58450F
:1007500018DD00EE104AB8EEC00A02F021FE00EEED
:10076000904AB8F90200B8EEE01AC1EE000A00EEB5
:10077000100AB8EEC00A00EE880ABDEEC00A10EEFC
:10078000100A308099F85C02082845D100EE105A12
:10079000B8EEC00A02F004FE10EE100A504518DD53
:1007A00000EE105AB8EEC00A02F0FAFD00EE905AC0
:1007B000B8F90000B8EEE01AC1EE000A00EE100A27
:1007C000B8EEC00A00EEA80ABDEEC00A10EE100A8C
:1007D000388000EE104AB8EEC00A02F0E1FD10EEDB
:1007E000100A584518DD00EE104AB8EEC00A02F0B3
:1007F000D7FD00EE904AB8F90200B8EEE01AC1EE5B
:10080000000A00EE100AB8EEC00A00EE880ABDEE3B
:10081000C00A10EE100A30803988A8F8001031881C
:10082000A8F8021004990988A8F80410BDEC028BFE
:10083000BDE8FE8FA4000020E84400200000B04086
:1008400000006040014800F055BC00005005002049
:10085000014800F04FBC0000B0050020014800F046
:1008600049BC000090040020014800F043BC000097
:10087000F0040020014800F03DBC000010060020FC
:10088000014800F037BC000030040020014800F0AF
:1008900031BC00007006002001681823CAB2103A6B
:1008A000B2FBF3F2054B6FF30901032A9B5CC365AE
:1008B00000D9091D816508467047000054400008B2
:1008C00010B5014600208B698A6A4FF0C07453B19D
:1008D000B3F5005F15D072B1012A0CD0022A0AD0FC
:1008E000032A09D104E01AB1012A06D0022A03D151
:1008F000C96AC90100D5012010BDC96AA142FAD058
:1009000010BD002AF7D0012AF2D0022AF3D0032A20
:10091000F3D010BD30B50468256825F48025256026
:10092000046863608368402B036803D099600068A3
:10093000C26030BD9A600068C16030BD7047000081
:10094000052003F011F9044C002500BFC4F89052B3
:10095000022003F009F9F9E70000424272B6FEE70F
:10096000052003F001F9044C002500BFC4F88C52A7
:10097000022003F0F9F8F9E70000424290F8202045
:10098000012A07D0022A05D0416A41F48021416240
:1009900001207047006842690A43426100207047A5
:1009A000F0B590F820500468A468012D05D0022D00
:1009B00003D0416A41F480215DE014F0406F01D121
:1009C000E50055D5C4F30164022C03D9416A41F412
:1009D000000150E00125A5401D608D684FF4C073F3
:1009E0009DB1CE6835434E6845EAC605066803EBFF
:1009F0000417F5514FF4C275076805EB04150E692D
:100A00007E51097D012905D009E00E88CD6845EAAF
:100A10004655EBE701684E5946F480764E51117900
:100A2000D579567941EA056195792D0445EA06257F
:100A300029434FF4C676056806EB0416A9511178D0
:100A4000D57841EA0561957852782D0445EA02226D
:100A500011434FF4C475026805EB04155151006849
:100A600003EB0411425842F0010242500020F0BD55
:100A7000416A41F4001141620120F0BD10B590F8C7
:100A80002020012A07D0022A05D0416A41F48021A2
:100A90004162012010BD3B48D0F8002242F0010223
:100AA000C0F80022D0F8002222F47C52C0F80022C4
:100AB000D0F800224B6A42EA0322C0F800220A7DE5
:100AC00002F01F0301229A40D0F81C329343C0F871
:100AD0001C32CB69B3B9D0F80C329343C0F80C3256
:100AE0008C894B6864F31F434C6900EBC404C4F861
:100AF00040320C890B6864F31F434C6900EBC4045B
:100B0000C4F84432CB69012B16D1D0F80C32134310
:100B1000C0F80C320C884B6864F31F434C6900EB3F
:100B2000C404C4F840320C89CB6864F31F434C6999
:100B300000EBC404C4F844328B69002BD0F80432B3
:100B40000ED01343C0F804320B69002BD0F81432D6
:100B500008D01343C0F81432096A012904D008E010
:100B60009343EFE79343F5E7D0F81C121143C0F825
:100B70001C12D0F8001221F00101C0F80012002070
:100B800010BD000000640040704730B590F8204070
:100B9000012C05D0022C03D0416A41F480215DE094
:100BA0000468002955D02469A40754D04FF4D874A0
:100BB000056804EB01142D5915F0040595600568CE
:100BC0002D594ED0ED08556005682C5904F00204EB
:100BD000D4604FF4DA74056804EB01142D5905F064
:100BE0000F05156105682D59C5F307259561056841
:100BF0002C59240C54614FF4DC72046802EB01128E
:100C0000A4581C700468A458240A5C700468A45892
:100C1000240C9C700468A258120EDA704FF4DE7235
:100C2000046802EB0112A4581C710468A458240A39
:100C30005C710468A458240C9C710468A258120EBC
:100C4000DA71006881B1016941F020010161002081
:100C500030BDE468A8E7416A41F400114162012017
:100C600030BD6D0D1560AFE7C16841F02001C16076
:100C7000EDE72DE9F05F0546006800244669D0F8ED
:100C800004908768D0F80CB0D0F810A0D0F8188085
:100C9000F10748D0F90714D001218160B80703D5C6
:100CA000284600F00EFA0CE0780702D54FF40064F5
:100CB00007E0380702D54FF4805402E0284600F0E0
:100CC000FFF9F80516D529684FF480708860B805DB
:100CD00003D5284600F0F7F90CE0780502D544F476
:100CE000005407E0380502D544F4804402E0284669
:100CF00000F0E8F9F80316D529684FF480308860D1
:100D0000B80303D5284600F0E0F90CE0780302D5DB
:100D100044F4004407E0380302D544F4803402E090
:100D2000284600F0D1F9300707D55FEACB6004D53B
:100D30002968102044F40074C86070074FF0080759
:100D400007D55FEA0B7004D52868C760284600F015
:100D500057F9B00706D52868C068800702D0284632
:100D600000F050F9700607D55FEACA6004D529681B
:100D7000102044F480640861B00607D55FEA0A7069
:100D800004D528680761284600F06AF9F00606D500
:100D900028680069800702D0284600F062F9B00395
:100DA00008D55FEAC96005D5296810204860284643
:100DB00000F058F9F00307D55FEA097004D52868F8
:100DC0004760284600F082F9300446D55FEA497052
:100DD00040D5F00504D55FEAC87001D044F00104A5
:100DE000B00504D55FEA887001D544F002047005AF
:100DF00004D55FEA487001D544F00404300529D5D4
:100E000018F0700F26D008F07000402815D006DCCE
:100E1000102809D020280AD0302816D10AE05028FE
:100E20000ED0602811D10EE044F008040DE044F02B
:100E300010040AE044F0200407E044F0400404E019
:100E400044F0800401E044F480742868816921F052
:100E500070018161296804204860002C05D0686A0F
:100E6000204368622846FFF78FFEBDE8F09F70B50B
:100E7000040003D094F8200010B104E0012070BDFC
:100E8000204600F081F82068016821F0020101602D
:100E900000F084FB0546052604E000F07FFB401BC4
:100EA0000A2811D8206840688007F6D420680168B5
:100EB00041F00101016000F071FB05460BE000F01C
:100EC0006DFB401B0A2806D9606A40F4003060625E
:100ED00084F82060D2E720684068C007EFD0207E09
:100EE0000128206801683DD021F080010160607E0A
:100EF00001282068016838D021F040010160A07EFF
:100F000001282068016833D021F020010160E07ED3
:100F10000128206801682ED041F010010160207F77
:100F200001282068016829D021F008010160607F54
:100F300001282068016824D021F004010160D4E96F
:100F400002010843D4E90412114308436168491EB1
:100F500008432168C86100206062012084F82000F5
:100F6000002070BD41F08001C0E741F04001C5E7BD
:100F700041F02001CAE721F01001CFE741F008015C
:100F8000D4E741F00401D9E710B586B00446142136
:100F90006846FFF7B7FA17492068884227D11648F4
:100FA0000021026842F000720260006800F00070E8
:100FB000059011481038026842F00802026000688B
:100FC000022200F0080005900320CDE90210CDE9CF
:100FD0000002092004906946084800F0FDF900224B
:100FE0000521142000F066FB142000F055FB06B02C
:100FF00010BD00000064004040380240000C024078
:101000007047000000B5144989B0884221D107AB70
:101010006A460021FFF7B9FD00281AD10098A0F513
:101020000070013815D19DF81D009DF81C1000EBD3
:1010300001210A4801809DF81F109DF81E2001EB38
:1010400002214180BDF8201049BA81809DF822100C
:10105000817109B000BD0000080300207844002021
:10106000704770477047000070B5044690F8200044
:10107000012804D0606A40F40020606218E0022079
:1010800084F820002068016821F00101016000F06F
:1010900085FA05460EE000BF00F080FA401B0A28E2
:1010A00008D9606A40F400306062052084F82000AE
:1010B000012070BD20684068C007EDD1606270BD3E
:1010C000704770477047704770477047704790F897
:1010D0003510022903D08021416501207047052188
:1010E00080F835100068016821F0010101600020DE
:1010F000704700002DE9F84304464FF00009CDF891
:10110000009063484FF41651A56D0068B0FBF1F7ED
:101110002E6894F85C10082000FA01F131420FD0DB
:1011200021680A6852070BD50A6822F004020A6097
:1011300094F85C108840A860606D40F00100606524
:1011400094F85C104FF0010808FA01F0304208D022
:1011500021684969090604D5A860606D40F0020065
:10116000606594F85C1004208840304208D0216803
:101170000968890704D5A860606D40F004006065C7
:1011800094F85C1010208840304218D0216809681B
:10119000090714D5A86020680168490304D50068D0
:1011A000000308D5A16C07E00168C90503D40168F4
:1011B00021F008010160216C09B12046884794F8AC
:1011C0005C1020208840304231D021680968C9066F
:1011D0002DD5A86094F8350005282068016806D050
:1011E000490347D5006800031DD4616C1CE021F061
:1011F000160101602068416921F080014161206C85
:1012000008B9A06C20B12068016821F008010160D4
:1012100094F85C103F208840A86084F8349084F8EB
:101220003580216D1FE0E16B09B120468847606D74
:1012300000282BD0606DC00714D0052084F835003D
:101240002068016821F0010101600098401C0090B5
:10125000B84203D820680068C007F6D184F83490FB
:1012600084F83580E16C002910D001B02046BDE83B
:10127000F04308470168C905D5D4016821F0100181
:10128000016084F8349084F83580CCE7BDE8F883B9
:10129000200000202DE9F041044600F07FF90646C9
:1012A0005CB1002584F83450022084F835002068B1
:1012B000016821F0010101600DE00120BDE8F0812D
:1012C00000F06CF9801B052805D9202060650320FB
:1012D00084F83500F2E720680068C007F0D1226882
:1012E000116820480140D4E901031843D4E90336CA
:1012F0003343184363691843A3691843E3691843E8
:10130000236A18430843616A042903D1D4E90B1303
:1013100019430843106020684069666A20F007019D
:1013200030460E43012704280CD1A06A0643E06A28
:1013300040B12046FFF7C4FA20B14020606584F830
:101340003570BAE7206846612046FFF7A5FA94F8A1
:101350005C203F2191408160656584F835700020F4
:10136000ACE700003F8010F02DE9F0410446866DA7
:1013700090F83400002501280DD0012084F83400B5
:1013800094F835700020012F07D084F8340002252E
:101390002846BDE8F0810220FBE7022784F835707B
:1013A00060652046FFF7B6FA94F85C103F2088404D
:1013B000B0602068016841F016010160206C20B126
:1013C0002068016841F0080101602068016841F06F
:1013D00001010160DCE700002DE9F84F00224FF029
:1013E000010803254FF00F0E0B6808FA02F42340A2
:1013F000A3426ED14E68012E05D0022E03D0112ECD
:1014000001D0122E12D186684FEA420C05FA0CF771
:10141000BE43CF6807FA0CF7374387604668A64398
:101420000C79C4F30014944034434460C6685700F8
:1014300005FA07FC8C6826EA0C06BC403443C460FD
:101440004C68022C01D0122C13D1D40800EB840478
:10145000A346D4F8209054074FEAD46A0EFA0AF64D
:1014600029EA06090E6906FA0AF646EA0906CBF8E1
:10147000206006680C7926EA0C0604F00304BC40E0
:10148000344304604C68E40065D5364C266846F465
:1014900080462660246822F0030604F48044009409
:1014A000314C3444A446D4F808489607370F0EFA56
:1014B00007F6B4432D4EB04201D1002624E02C4E55
:1014C000B04201D101261FE02A4EB04202D10226CD
:1014D0001AE040E0284EB04201D1032614E0274E26
:1014E000B04201D104260FE0254EB04201D10526BD
:1014F0000AE0244EB04201D1062605E0224EB04259
:1015000001D1072600E00826BE402643CCF8086833
:101510001E4E34684F689C43FF0300D51C43346063
:101520001A4C241D26684F689E43BF0300D51E43F6
:101530002660164E083634684F689C43FF0200D57B
:101540001C433460114E0C3634684F689C43BF0214
:1015500000D51C433460521C102AFFF445AFBDE88F
:10156000F88F000044380240003001400000024083
:101570000004024000080240000C0240001002403B
:101580000014024000180240001C0240003C0140D0
:101590000AB1816170470904FBE7000001488068D7
:1015A000704700001400002002488168027811444E
:1015B00081607047140000200B4810B5016841F4A9
:1015C00000710160016841F480610160016841F4CB
:1015D00080710160032000F08DF8002000F006F813
:1015E00000F03EF8002010BD003C024010B501465E
:1015F00088B000221C2000F05DF81C2000F04CF8A0
:1016000014480024016841F001010160006805A947
:1016100000F001000690684600F018F900F036F975
:101620000D494000B0FBF1F10C484FF08042491EDB
:10163000026040F2E732C0E90324C0E9011400F07F
:1016400027FB10B1012008B010BD044800F03CFB9E
:10165000F9E700004038024040420F00D006002069
:101660000C4882B0016841F480410160006800F4D8
:10167000804000900748001F016841F080510160E0
:101680000068002200F0805000900F21901E02B0F0
:1016900000F010B844380240002809DB00F01F02B7
:1016A000012191404009800000F1E020C0F80011C4
:1016B00070470000F0B40E4B1B680C46C3F30223C6
:1016C000C3F10705042D00D90425191D072901D2EE
:1016D000002300E0DB1E012606FA05F1491E214029
:1016E00099409E40761E16403143F0BC01F0EDBBA0
:1016F0000CED00E0064900F0070208684FF6FF0312
:10170000184040EA0220034A104308607047000076
:101710000CED00E00000FA052DE9F0470E4605004B
:1017200065D0DFF81481D8F80000F7B200F00F00A0
:10173000B04207D288F80070D8F8000000F00F001F
:10174000B04254D128683D4C810712D5400703D5DB
:10175000206840F4E05020602878000703D5206816
:1017600040F4604020602068A96820F0F000084341
:1017700020602878C0072DD03049686808390128D2
:1017800012D0022813D0032811D009688907002934
:101790002DDA216821F0030101432160FFF7FEFEED
:1017A000814641F2883A0EE009688903EFE709684B
:1017B0008901ECE7FFF7F2FEA0EB0901514502D9E0
:1017C0000320BDE8F0872068696800F00C00B0EBEA
:1017D000810FEFD1D8F80010404601F00F01B1425F
:1017E00007D90770006800F00F00B04201D0012057
:1017F000E7E72878400705D52068E96820F4E0503D
:10180000084320602878000706D52068296920F45D
:10181000604040EAC100206000F058F82168084AA2
:10182000C1F30311515CC8400649086006480068CE
:10183000FFF7DCFE0020C4E7003C0240083802400D
:101840005C40000820000020180000200F220260E9
:101850000C4A136803F003034360136803F0F003BA
:101860008360136803F4E053C36012684FF4E053DD
:1018700003EAD20202610448006800F00F00086029
:101880007047000008380240003C02400448054907
:1018900000680968044AC1F38221515CC84070475E
:1018A00020000020083802406C4000080448054928
:1018B00000680968044AC1F34231515CC84070476E
:1018C00020000020083802406C400008154810B580
:1018D000006810F00C02144813D01449042A0FD0E9
:1018E000082A0ED10F4C241F2268236802F03F0201
:1018F0005B0207D52068C0F38810A0FB010106E059
:10190000084610BD2168C1F38811A1FB0001002326
:10191000FEF70AFD2168C1F30141491C4900B0FBF3
:10192000F1F010BD083802400024F40040787D0139
:101930002DE9F84F04006ED02078DFF83C93C00703
:10194000A9F104054AD009F104000168C1F381013D
:10195000012908D00068C0F3810002280AD1D9F813
:101960000000400206D52868800337D5606800284B
:10197000E1D033E06068B0F5803F10D0B0F5A02F23
:10198000286810D020F480302860286820F4802057
:1019900028606068A8B1FFF701FE06460DE02868E0
:1019A00040F48030F4E740F480202860F7E700BF7F
:1019B000FFF7F4FD801B642873D828688003F7D5EF
:1019C0000CE0FFF7EBFD064605E000BFFFF7E6FD84
:1019D000801B6428F0D828688003F7D42078DFF8CB
:1019E0009C8280074FF0000A3ED5A348001D016885
:1019F00011F00C0F08D00068C0F3810002280BD151
:101A0000D9F80000400207D42868800716D5E0689E
:101A1000012800D112E02BE1E068B8B10120C8F83C
:101A20000000FFF7BBFD064605E000BFFFF7B6FD6F
:101A3000801B0228C0D828688007F7D5286821694C
:101A400020F0F80040EAC10028600DE0C8F800A0CE
:101A5000FFF7A4FD064604E0FFF7A0FD801B022867
:101A60001FD828688007F7D42078000722D5824E37
:101A700083486169703671B101210160FFF78EFD05
:101A8000074604E0FFF78AFDC01B022809D830682A
:101A90008007F7D50EE0C0F800A0FFF77FFD0746EE
:101AA00005E082E0FFF77AFDC01B02287DD8306890
:101AB0008007F7D42078400768D5DFF8BCB100274D
:101AC0000BF13C0BDBF80000C0000BD4DBF800107E
:101AD00041F08051CBF80010DBF80000012700F046
:101AE00080500090674E3068C00510D4306840F4D4
:101AF00080703060FFF752FD009005E0FFF74EFD6B
:101B00000099401A022850D83068C005F6D55A4EC0
:101B1000A0686C3601280FD00528306810D020F05E
:101B200001003060306820F004003060A068B8B177
:101B3000FFF734FD00900FE0306840F00100F4E75B
:101B400040F004003060F7E7FFF728FD0099411AE4
:101B500041F28830814266D830688007F4D50EE0C3
:101B6000FFF71CFD009007E0FFF718FD0099411AF0
:101B700041F28830814256D830688007F4D42FB1C2
:101B8000DBF8001021F08051CBF80010A069C8B339
:101B90003949091D0968C1F3810102294AD0022887
:101BA000504607D0C8F8600000E03CE0FFF7F6FCC4
:101BB00004463BE04746C8F86000FFF7EFFC0646E6
:101BC00005E000BFFFF7EAFC801B02282BD828683D
:101BD0008001F7D4D4E907010843A16A2A4A4908D9
:101BE00002EB0141626A41EA8211084394F82C1029
:101BF00040EA0161C9F8001001203866FFF7CEFC09
:101C0000044606E036E000BFFFF7C8FC001B0228D0
:101C100009D828688001F7D52CE000BFFFF7BEFC8B
:101C2000001B022802D90320BDE8F88F2868800134
:101C3000F4D41FE00128F7D0D9F80000E26900F4DD
:101C40008001914214D1226A00F03F0191420FD1EC
:101C500047F6C071626A0140914209D1A26A00F45C
:101C60004031914204D1E16A00F07060884201D0B5
:101C70000120D9E70020D7E704380240000047429E
:101C8000800E4742007000400000FFFF7047704721
:101C900010B5040003D094F83D0010B107E0012016
:101CA00010BD002084F83C00204600F00CF8022013
:101CB00084F83D00211D206800F07CFE012084F89E
:101CC0003D00002010BD70470168CA6842F0010263
:101CD000CA600068816801F00701062903D0016825
:101CE00041F00101016000207047704770B5044663
:101CF000006801694FF00005C943890715D4C16820
:101D0000C943890711D4E91E0161012020772068A9
:101D100080698007204602D0FFF7E7FF04E000F06B
:101D200098F8204600F096F8257720680169C943A5
:101D3000490717D4C168C943490713D46FF0040198
:101D40000161022020772068806910F4407F2046DE
:101D500002D0FFF7CAFF04E000F07BF8204600F055
:101D600079F8257720680169C943090716D4C16845
:101D7000C943090712D46FF00801016104202077DC
:101D80002068C0698007204602D0FFF7AEFF04E05C
:101D900000F05FF8204600F05DF8257720680169C3
:101DA000C943C90617D4C168C943C90613D46FF023
:101DB00010010161082020772068C06910F4407F7D
:101DC000204602D0FFF791FF04E000F042F82046E1
:101DD00000F040F8257720680169C943C90708D198
:101DE000C168C943C90704D1891E0161204600F0BA
:101DF00032F820680169C943090609D4C168C9439A
:101E0000090605D46FF0800101612046FFF73EFF0F
:101E100020680169C943490609D4C168C943490614
:101E200005D46FF040010161204600F01BF82068E6
:101E30000169C94389060BD4C168C943890607D41F
:101E40006FF0200101612046BDE87040FFF71FBF21
:101E500070BD704770470068B0F1804F01D1FFF747
:101E6000A3BB70477047704770B50268044610689E
:101E7000D168536910F00F0F52D003F0010501F43F
:101E800090762E435FD0C20705D0CA0503D5E26B1A
:101E900042F00102E263420705D5DA0703D0E26BA4
:101EA00042F00202E263820705D5DA0703D0E26B53
:101EB00042F00402E263020707D501F020022A4340
:101EC00003D0E26B42F00802E263E26B002A33D0F7
:101ED000800604D5880602D5204600F036FE20682C
:101EE0004069E16BC0F38010090700D428B3204695
:101EF00000F014FE2068416949061AD5416921F0B5
:101F000040014161606BA0B11B490165606BFFF747
:101F1000DEF8002810D0606B016DBDE87040084706
:101F2000830610D58B060ED52046BDE8704000F024
:101F30000CBE2046FFF797FF70BD2046FFF793FFCA
:101F40000020E06370BD030606D50B0604D52046CD
:101F5000BDE8704000F0D8BE4006F3D54806F1D584
:101F6000D168204621F04001D160202184F8391049
:101F700000F014FA70BD00007D2A000870B504005E
:101F800004D094F83900002510B106E0012070BD9E
:101F900084F83850204600F023F8242084F83900D3
:101FA0002068C16821F40051C160204600F018FE8D
:101FB0002068016921F4904101612068416921F0A4
:101FC0002A0141612068C16841F40051C160E563A4
:101FD000202084F8390084F83A00002070BD000009
:101FE0002DE9F04F87B0044614216846FEF78AFABF
:101FF000B748B64B1438D4F800C0DFF8D4E2022159
:1020000003220025071586154FF0070B4FF0006AD5
:102010004FF440399C453BD1DEF800C04CF0100C29
:10202000CEF800C0DEF8003003F01003059303681B
:1020300043F001030360006800F0010005905002C6
:102040008DE82300CDE9032B6946A248FFF7C4F9C8
:10205000DFF88882A049404602C0E0E802A5E0E837
:10206000035740F8045C80E860024046C8F82450FA
:10207000FFF710F908B1FEF771FCC4F834800022B4
:1020800005212520C8F83840FFF714FB25205DE026
:102090008F4BDFF84C821B1FC4455CD1D3F800C0C6
:1020A00000254CF4003CC3F800C01B6803F4003367
:1020B0000593036843F008030360006800F008001C
:1020C000059060208DE82300CDE9032B6946854803
:1020D000FFF782F9DFF804B283490BF1600B584631
:1020E000B84602C0E0E802A5E0E803574F4640F8D2
:1020F000045C80E8E0005846CBF82450FFF7CAF8AB
:1021000008B1FEF72BFC754D7748C035C4F834B0E4
:102110001830CBF83840C5E9000A4020A8600020FC
:10212000C5E9030805F11801686181E8C10068622A
:102130002846FFF7AFF808B1FEF710FC2563002230
:1021400005212620AC63FFF7B5FA2620FFF7A4FA95
:1021500007B0BDE8F08FDFF89481C44556D1D3F8BD
:1021600000C0A8464CF4802CC3F800C01B6803F4E0
:1021700080230593036843F008030360006800F0C0
:10218000080005904FF440708DE82300CDE9032B43
:1021900069465448FFF720F955485349BB46603912
:1021A0000160C0E901A5C0E9035700F1180C4F46D2
:1021B00045618CE8E0004562FFF76CF808B1FEF776
:1021C000CDFB4B4860634A4D8463474860353038E7
:1021D000C5E9000A4020A860C5E9038B05F1180194
:1021E0004046C5F8148081E8C1002846C5F824801F
:1021F000FFF750F808B1FEF7B1FB25630022052177
:102200002720AC63FFF756FA27209FE7394B9C4500
:102210009ED1DEF800C0A8464CF0200CCEF800C0DD
:10222000DEF8003003F020030593036843F0040355
:102230000360006800F004000590C0208DE82300D2
:102240000820CDE9032069462B48FFF7C5F8DFF8E1
:10225000A0A021490AF1C00A5046183902C04FF027
:10226000206BE0E802B5E0E8035740F8045C80E842
:1022700060025046CAF82450FFF70CF808B1FEF788
:102280006DFB1E4D1448C4F834A06030CAF83840C5
:10229000C5E9000B4020A860C5E9038705F11801D6
:1022A0004046C5F8148081E841022846C5F82480DC
:1022B000FEF7F0FF08B1FEF751FB25630022052170
:1022C0004720AC63FFF7F6F947203FE700100140D5
:1022D00044380240000002404064024030040020C4
:1022E00000440040000C024088600240004800406A
:1022F0005005002000140140000802407006002034
:10230000F8B5044690F83A0020283CD1C1B3BAB3DE
:1023100094F83800012836D0012084F83800A162F2
:10232000A2850025E563222084F83A00636B1748F4
:10233000D863636B16481864636B1648D864606B87
:10234000134605650846666B216802463046091D3E
:10235000FFF70AF8206801684168009184F8385056
:10236000C16841F48071C1602068416941F0010198
:1023700041612068416941F0400141610020F8BDA0
:10238000FFE70120FBE70220F9E70000D72A000859
:10239000132B00088D2A0008704770477047FEE72E
:1023A000022001F0E1FB084D012400BFC5F8804286
:1023B000C5F88442C5F88842C5F88C42C5F89042F9
:1023C000022001F0D1FBF1E70000424210B5D0ED50
:1023D000050A254A044630EEC00A514280ED150A2E
:1023E000D0ED110A30EE800A80ED110ABDEEC00A70
:1023F00010EE100A00F0EAFF00EE100AF8EEC00A34
:10240000C4ED110A94ED130A84ED140A94ED120A36
:1024100084ED130A94ED151A94ED160A71EE401A24
:10242000C4ED121A94ED000A94ED012A94ED023ADB
:1024300020EE010AF0EE402A02EE200A62EE200AA7
:1024400003EE210A84ED0C0AC4ED0E2AC4ED0F0A36
:1024500063EE210ABDEEC00AC4ED100A84ED161A1F
:1024600010EE100A10BD0000F0D8FFFF0F4810B5A5
:102470000D4901600321416000214FF4E022816099
:10248000C0E903124FF48002426101764176817601
:10249000C17601774177FEF7EAFC002803D0BDE85A
:1024A0001040FEF75BBA10BD006400400803002036
:1024B000254808B5016841F480010160016801F414
:1024C00080010091016841F4001101600068002260
:1024D00000F40010009005210C20FFF7EBF80C2011
:1024E000FFF7DAF8002205210E20FFF7E3F80E20AF
:1024F000FFF7D2F8002205211020FFF7DBF81020AB
:10250000FFF7CAF8002205211120FFF7D3F81120A8
:10251000FFF7C2F8002205213920FFF7CBF8392058
:10252000FFF7BAF8002205213A20FFF7C3F83A2056
:10253000FFF7B2F8002205214520FFF7BBF8BDE800
:1025400008404520FFF7A8B83038024010B5A4B0C5
:102550001C221C496846FDF7A3FF0021684600F0D5
:1025600068FF194C17491C2220601C3107A8FDF791
:1025700097FF002107A800F05CFF124960601C2251
:1025800038310EA8FDF78CFF00210EA800F051FF96
:102590000C49A0601C22543115A8FDF781FF0021D1
:1025A00015A800F046FF0749E0601C2270311CA806
:1025B000FDF776FF00211CA800F03BFF206124B04E
:1025C00010BD0000C83F000800000020F0B587B033
:1025D00014216846FDF796FF2948016841F0100173
:1025E0000160016801F010010591016841F080016E
:1025F0000160016801F080010591016841F0080166
:102600000160016801F008010591016841F00401D1
:102610000160016801F004010591016841F00101C8
:102620000160016801F001010591016841F00201BA
:1026300001600068134E00F00200059001221F2186
:102640003046FEF7A5FF104F012280213846FEF7E5
:102650009FFF01241F20CDE9000402256946304672
:10266000CDE90245FEF7B8FE8020CDE900046946B9
:102670003846CDE90245FEF7AFFE07B0F0BD0000D9
:102680003038024000100240000402400D4810B5EE
:102690000B4901600C49416000214FF48062816068
:1026A000C0E903120C22C0E90521C161FFF766FCF5
:1026B000002803D0BDE81040FEF750B910BD00005F
:1026C0000010014030030020A08601000C4810B526
:1026D0000A4901604FF4E1314160002181600C2220
:1026E000C160C0E904128161C161FFF747FC0028A5
:1026F00003D0BDE81040FEF731B910BD00440040E2
:10270000700300200C4810B50A4901604FF4E13114
:102710004160002181600C22C160C0E90412816126
:10272000C161FFF72BFC002803D0BDE81040FEF785
:1027300015B910BD00480040B00300200C4810B58A
:102740000A4901604FF4E1314160002181600C22AF
:10275000C160C0E904128161C161FFF70FFC00286C
:1027600003D0BDE81040FEF7F9B810BD00140140D9
:10277000F0030020FEE7FEE730B5144B1C686569E6
:1027800045F0400565611B68DC6844F01004DC60BE
:102790000F4B1C68256825F0010525601C6825681D
:1027A000ED07F7D11D680B4CAC601C68E060186841
:1027B0000161186842601868016841F48021016075
:1027C0001868016841F00101016030BD300300204C
:1027D0003004002004100140002801DC404200B217
:1027E0007047000070B5194CB4F90000FFF7F4FF12
:1027F0004FF42F75A84217DCB4F90200FFF7ECFF85
:10280000A84211DCB4F90400FFF7E6FFA8420BDC94
:10281000B4F90600FFF7E0FFA84205DCA07A18B182
:10282000E07A08B1002070BD002020806080A08088
:10283000E08020810221A172E172A081E0812082EA
:10284000A074E074A082012070BD0000004400204C
:1028500006480021018041808180C1800181818101
:10286000C18101828174C17481827047004400205B
:1028700000EE101A10B5B8EEC00A1C4680ED050A2D
:1028800000EE102AB8EEC00A80ED060AFFF79EFDA2
:102890006242214600F09AFD00B210BD5FF00500D3
:1028A00001F062F90220FBE7012000F0B6FDFBE732
:1028B00010B5502080F31188BFF34F8FBFF36F8F97
:1028C00001F0B6FA18B104494FF0805008600020BA
:1028D00080F3118810BD000004ED00E030B593B026
:1028E00030216846FDF70EFE14210CA8FDF70AFE04
:1028F0001E480025016841F080510160006800F029
:10290000805011901A48016841F4804101600068CC
:10291000022400F4804011900120009000040190F6
:102920008001CDE90640192008904FF4A870CDE948
:10293000090404200B906846FEF7FAFF08B172B64E
:10294000FEE70CA90F2081E831004FF4A0500F9052
:102950004FF48050109005210CA8FEF7DDFE0028F2
:1029600001D072B6FEE713B030BD0000403802401F
:10297000007000400548016841F47001016003499E
:102980004FF00060803908607047000088ED00E07B
:1029900010B500F0C3FFFDF71FFE00F0A7FABDE879
:1029A000104000F0D7BA00000148FFF79FB90000BF
:1029B000D0060020F0B50268254C264D264E274F44
:1029C000274B4FF0804CA04209D0604507D0A84269
:1029D00005D0B04203D0B84201D0984204D122F0D1
:1029E000700E4A6842EA0E02A0421BD0604519D020
:1029F000A84217D0B04215D0B84213D0984211D097
:102A0000184DA8420ED0184DA8420BD0174DA84221
:102A100008D0174DA84205D0164DA84202D0164D39
:102A2000A84203D122F44075CA682A434D6922F0B6
:102A300080022A4302608A68C2620A688262A042F7
:102A400001D0984201D10969016301214161F0BDC2
:102A5000000001400004004000080040000C00405D
:102A60000004014000400140004401400048014092
:102A700000180040001C00400020004010B5806B92
:102A80000021C185C184FFF7EEF910BD70B5846BDC
:102A90002068406994F83910C0F3C010002521293E
:102AA00004D118B1E584204600F046F8206840695A
:102AB00094F83A10C0F38010222904D118B1E585AA
:102AC000204600F02BF8E06B40F01000E063204659
:102AD000FFF7C9F970BD10B50146806B0968096838
:102AE000C90513D40021C1850168CA6822F4807227
:102AF000CA6001684A6922F001024A6101684A69B4
:102B000022F040024A61202180F83A10FFF744FC8D
:102B100010BD10B5806BFFF740FC10BD0168CA689E
:102B200022F49072CA6001684A6922F001024A6187
:102B3000202180F83A1070470168CA6822F0C0026C
:102B4000CA60202180F83910704710B590F83A100B
:102B5000222901D0022010BD8168B1F5805F11D01B
:102B60000169002901681FD0496801F07F03816A6B
:102B70004A1C82620B70C18D491E0904090CC18573
:102B800018D02BE00269816A002A0268526805D0D9
:102B9000D2B20A80816A491C8162ECE7C2F3080262
:102BA0000A80816A891CF7E74A68816A4B1C836244
:102BB0000A70E0E70168CA6822F02002CA60016872
:102BC000CA6822F48072CA6001684A6922F0010270
:102BD0004A61202180F83A10FFF7DEFB002010BD8B
:102BE0002DE9F041044600680169E26821F4405192
:102BF000114301612169A068E269084361691143D9
:102C000008432168CA6849F20C639A430243CA60C8
:102C100020684169A26921F4407111434161E06972
:102C2000192764253226B0F5004F354A354920680A
:102C30004FF0000806D0884201D0904236D1FEF70E
:102C400035FE35E0884201D0904202D1FEF72EFEDB
:102C500001E0FEF71BFE61684A18A0FB070148EB84
:102C60000803FDF761FB0146B0FBF5F00201B1FB83
:102C7000F5F06FF01803584301EB800006EBC0003D
:102C8000B0FBF5F000F0F80002EB4002B1FBF5F00C
:102C9000584301EB800006EBC000B0FBF5F000F0FC
:102CA0000700216810448860BDE8F081FEF7EEFD62
:102CB00061688B0F8A00A0FB0701FDF735FB014619
:102CC000B0FBF5F06FF01802504301EB800006EB0B
:102CD0000010B0FBF5F000F0F002B1FBF5F002EBF4
:102CE0000012B1FBF5F06FF01803584301EB8000C0
:102CF00006EB0010B0FBF5F000F00F00D1E700008C
:102D0000001401400010014090F83910212901D031
:102D1000022070478168B1F5805F016A0BD04A1CC0
:102D20000262026809785160C18C491E0904090CCD
:102D3000C1840ED017E009880268C1F30801516010
:102D400001690029016A02D0491C0162ECE7891C73
:102D5000FBE70168CA6822F08002CA600068C168A7
:102D600041F04001C16000207047000010B50448E8
:102D7000FFF77AF8BDE81040014800F045B80000C0
:102D80003003002010B50448FFF76EF8BDE810408E
:102D9000014800F003B800007003002010B501687E
:102DA0000A6810490A600068406808600E48426B73
:102DB0001268136823F001031360406B00684068D9
:102DC000C0F5807008600A68084901F5C06000F02D
:102DD00099FABDE810404FF4807204490248FFF7A9
:102DE0008FBA0000AC00002070030020784700205C
:102DF0000148FFF739B80000B00300200148FFF791
:102E000033B80000F0030020284918B40020C1F8AE
:102E10008002274800680168890604D50168406877
:102E2000009018BC704723490968C906F9D50168A4
:102E30004068214A0090106801684FF024030C0399
:102E40001E49046824F00104046016D41468606804
:102E5000C0F1240080B20880636011680B6843F4FD
:102E600000230B6011680A6842F001020A60122810
:102E7000D7D1134901F1160015E010684468C4F178
:102E80002404A4B20C8043600E48016821F40021A0
:102E900001601068016841F001010160122CC0D18D
:102EA000074901F13A0018BC00F040BD0000424261
:102EB0003003002000100140300400208400002076
:102EC0000044002040640240FEE70907090E002884
:102ED00004DB00F1E02080F80014704700F00F00E0
:102EE00000F1E02080F8141D7047000070B5154C0B
:102EF0002068C16841F01001C1604FF480752A4616
:102F000011492046FFF7FCF910492A4601F54070A7
:102F100000F0E8F9401C01D1FDF720FD206B0068AE
:102F2000016821F00101016009494FF4007201F5C7
:102F3000057000F0D7F9401C03D1BDE87040FDF7E3
:102F40000DBD70BD7003002078470020784A002036
:102F5000784B002000B587B01C2206496846FDF773
:102F60009FFA0021684600F064FA0349086007B040
:102F700000BD0000744000088800002070B50446C1
:102F800000682B4BC17AA3F10C05491ECAB2817AA5
:102F900002EB4202491EC9B21A44515C84F85C1229
:102FA00008293CD003DC19B3022904D131E00929F6
:102FB00004D00A2902D0022084F85C0295ED020AAE
:102FC000BDEEC00A10EE100A95ED010A03B2BDEE87
:102FD000C00A10EE100A95ED000A02B2BDEEC00A5A
:102FE00010EE100A01B22046BDE8704000F02EB984
:102FF000FFF72EFC0020A084A4F84000A4F85C0099
:103000009FED0C0AA4F8780085ED020A85ED010A0F
:103010000BE0012084F85C02FFF71AFCCEE7B0F960
:10302000020000EE100AB8EEC00A85ED000AC5E7FE
:10303000980000200000000010B59FED130A002149
:10304000C1EBC10200EB8202D368B3F9024000EE8B
:10305000904AF8EEE00AC2ED050A1B8800EE903AAD
:1030600001EB410300EB4313F8EE600A491CC9B2BF
:10307000C2ED070AD3ED310A042960EE800AC2EDE1
:10308000040ADDD310BD00000000FA4370B5044609
:103090002DED028B00F096F93B4D002620602E703E
:1030A000287800F085F901462878C0EBC00204EBCF
:1030B0008202401CC0B2D16028700428F0D3FFF710
:1030C00091FB9FED328A04F25D20B0EE480A00F0D9
:1030D0005DF9B0EE480A04F26D2000F057F99FED5B
:1030E0002C8AB0EE001AF0EE000AB0EE482AF0EE9C
:1030F000481AB2EE000A04F17C0000F0C5F9B0EE07
:10310000482AF0EE481AB0EE001AF0EE000AB2EECD
:10311000000A04F1DC0000F0B7F9B0EE482AF0EE46
:10312000481AB0EE001AF0EE000AB2EE000A04F5FA
:103130009E7000F0A9F9B0EE482AF0EE481AB0EE01
:10314000001AF0EE000AB2EE000A04F5CE7000F0AC
:103150009BF9B0EE482AF0EE481A9FED0E1AF2EEF7
:10316000040A9FED0D0A04F5FE7000F08DF984F855
:103170005C62012084F88C022046BDEC028BBDE825
:103180007040FFF759BF0000A200002060E5503DED
:1031900000000000CDCC2C410000C84270B590ED7D
:1031A000050A044641F28835BDEEC00A2B4610EEF2
:1031B000100A94ED060A02B2BDEEC00A10EE100A23
:1031C00001B204F17C00FFF753FBA08494ED0C0ADC
:1031D0002B46BDEEC00A10EE100A94ED0D0A02B2A5
:1031E000BDEEC00A10EE100A01B204F1DC00FFF7D8
:1031F0003FFBA4F8400094ED130A2B46BDEEC00A35
:1032000010EE100A94ED140A02B2BDEEC00A10EEE0
:10321000100A01B204F59E70FFF72AFBA4F85C00C7
:1032200094ED1A0A2B46BDEEC00A10EE100A94ED7A
:103230001B0A02B2BDEEC00A10EE100A01B204F57C
:10324000CE70FFF715FBA4F8780070BD1FB50446DB
:1032500003AA02A901A8FDF72FFABDF90400404214
:1032600000EE100A04F25D20B8EEC00A00F072F819
:10327000BDF9080000EE100A04F26D20B8EEC00A95
:1032800000F068F894F85C02082818D0022821D0D1
:10329000092801D00A2811D1BDF90C0000EE100A4E
:1032A000B8EEC00A84EDA00A94F88C02012803D07D
:1032B000002803D1B1EE400A84ED060A1FBDBDF916
:1032C0000400F1EE040A00EE100AB8EEC00A20EE87
:1032D000200A01E09FED020A84EDA00AECE700005D
:1032E0000000000012B1531E1A4202D04FF0FF300E
:1032F0007047002343608360016082810282184628
:10330000704700002DE9F04104460E46D4E9010162
:10331000431AA189CB1A934200D21A4617460C4A87
:1033200017604A1E10400D1ABD4200D33D46216869
:103330002A4608443146FDF76EF87A1B7119206859
:10334000FDF769F86068384460603846BDE8F08190
:10335000B000002010EE101AB7EE001A016000EE67
:10336000101AC16800EE901A20EE200A00EE901AA2
:10337000416831EE601A00EE901A01EE200A10EE5C
:10338000101A8160416000EE101A7047002806D0C4
:103390000021016010EE102A4160C2608160704718
:1033A000B5EEC00AF1EE10FA01D2B1EE400A704754
:1033B00000F003000249C0EBC00001EB8000704741
:1033C000784400200048704700440020884201DD16
:1033D000084670479042FCDA10467047FEF7ECF85A
:1033E000FFF77CFAFFF7F2F8FFF762F8FFF73EF815
:1033F000FFF74CF9FFF786F9FFF7A0F9FFF766F939
:10340000FFF7C6FAFFF7A2F800F00EF8FEE7014654
:103410000020842900D0C81C704710B500B90120D5
:1034200000F0A2FB002010BD10B500F0C3FB00208F
:1034300010BD7FB50D4604464169B0F9080081B161
:10344000A16971B1FFF7E3FFD4E905128DE8070028
:10345000D4E900102B46226900F0BFFC039004B0B1
:1034600070BDFFF7D4FF03A9CDE90001208A2B46E8
:1034700082B2D4E9001000F083FC012801D00020C2
:10348000EDE70398EBE7000000281BD080EC030A6F
:103490009FED0D0A80ED050A80ED060A80ED0C0A0D
:1034A00080ED0D0A80ED110A80ED140A80ED130AFB
:1034B00080ED120A80ED150A80ED0E0A80ED0F0AEC
:1034C00080ED100A70470000000000002DE9F04177
:1034D000184C0F46054666692068001D00F080FA0A
:1034E00038B9206890F82C1001208840A1698143E8
:1034F000A161681C07D137B12168BDE8F0410E48D1
:10350000091D00F0B1BA20683544B5424560216814
:1035100005D2A068BDE8F041091D00F08DBA6068D1
:10352000091D00F089FA206B854200D22563BDE8B1
:10353000F081000024000020EC0700202DE9F0417C
:10354000054600F09DFA2E4C2069401C2061206841
:103550002C4F10B1E06940B32DE0256020690128AF
:1035600029D1002606EB860007EB800000F056FA12
:10357000761C072EF6D323488C3000F04FFA2148F2
:10358000A03000F04BFA1F48B43000F047FA1D4855
:10359000C83000F043FA1B48DC3000F03FFA19480D
:1035A0008C3060601430A06005E02068E96AC06A71
:1035B000884200D82560E06A401CE062E96A012088
:1035C000A26988401043A06101EB810007EB8000F5
:1035D000291D00F049FA00F073FAE06900280CD0C8
:1035E0002068E96AC06A884207D207494FF08050D4
:1035F0000860BFF34F8FBFF36F8FBDE8F08100000D
:10360000240000201007002004ED00E010B504465F
:1036100090F8510058B101280CD002280FD050204A
:1036200080F31188BFF34F8FBFF36F8FFEE7206BDE
:1036300000F05AFA2046BDE8104000F055BA10BD1F
:1036400010484FF47051420706D0C01D0D4920F0BC
:103650000700411AC1F570510B4A00230144C2E929
:1036600000030839103A21F0070111604B600B602C
:103670000B1AC0E9001393604FF000405360D06014
:10368000704700000008002070000020144E154C08
:10369000A6F1C8074FF08058DFF84C9012E000BF49
:1036A00000F0EEF9F068C568281D00F099F920696E
:1036B000401E2061E068401EE06000F001FA2846EC
:1036C000FFF7A4FFE0680028EAD138680128F9D99B
:1036D000C9F80080BFF34F8FBFF36F8FF2E7000090
:1036E000D80700202400002004ED00E02DE9F04779
:1036F0009A46DDE9098481466FF00303206B03EBF2
:1037000082021044089E20F00707780707D0502057
:1037100080F31188BFF34F8FBFF36F8FFEE7002553
:1037200061B1002023180A5C83F834200A5C12B1CE
:10373000401C1028F6D384F8435001E084F834503C
:10374000072E00D30626E662C4E91165201D00F0AD
:1037500070F904F1180000F06CF92461C6F107005B
:103760006462A061E56484F8505052464946384688
:1037700000F0BEF82060B8F1000F01D0C8F800409A
:10378000BDE8F08730B5114900E011460A68824271
:10379000FBD34B685C18844203D1406818444860EE
:1037A000084643681C18944209D1084C103C246810
:1037B000A24209D052681A4442600A681268026044
:1037C000814200D0086030BD0460F9E7700000203D
:1037D00006484168096829B14168C968C9684968EB
:1037E000016370474FF0FF31FAE70000240000202A
:1037F00008484068401C4FF0500080F3118804D006
:10380000BFF34F8FBFF36F8FFEE7BFF34F8FBFF351
:103810006F8FFEE7780000202DE9F0410546002774
:1038200000F0FEF9314E306808B9FFF709FFF06883
:1038300005424BD1C5B3083568070ED005F0070027
:10384000C0F108000544680707D0502080F31188B4
:10385000BFF34F8FBFF36F8FFEE72DB370688542C4
:1038600034D82248103001460C6801E020460C464E
:103870006168A94202D221680029F7D131688C42DF
:1038800024D007682168016060680837411B10294F
:103890000FD96019420708D0502080F31188BFF378
:1038A0004F8FBFF36F8FFEE710E041606560FFF759
:1038B00069FF61687068401A7060B268904200D217
:1038C000B060F06801430020C4E9000100F014FB7F
:1038D000780707D0502080F31188BFF34F8FBFF3D4
:1038E0006F8FFEE73846BDE8F081000060000020E1
:1038F00010B5031F4FF080741C601B1F21F00101E5
:103900001960191F044B0B6014390A60091F6FF00E
:10391000020244380A6010BDF1370008024924222F
:10392000A1F12400FEF728BF3A440020F0B500289A
:1039300055D0002953D00278437842EA0322C2F3DB
:103940000A020A8043788478DB0843EA4413C3F30D
:103950000A034B808478C578A40944EA8504057974
:1039600044EA8524C4F30A048C80057946796D08FD
:1039700045EAC615C5F30A05CD804679C6F301169A
:103980008E724679B609CE728679C77946EA0726DD
:103990008E81067A477A46EA0726CE81867AC77AEA
:1039A00046EA07260E82067B8E74467BCE74867BA3
:1039B000C77B46EA07268E82067C407CA2F58062A1
:1039C0000A80A3F580634B80A4F5806446EA00205A
:1039D0008C80A5F58065CD80A0F580600881F0BD64
:1039E000D0E9013201699A60D0E901235A604A683E
:1039F000824201D182684A60002202610868401E4A
:103A00000860086870470000034B036003F154002E
:103A10000860802010607047B400002000F10801A9
:103A20004FF0FF32C0E90112C16001610021016065
:103A3000704700210161704730B50B685A1C02D0F5
:103A400000F1080202E0026904E022465468256899
:103A50009D42FAD953684B6099608A605160086151
:103A60000168491C016030BD42684A6093688B6000
:103A700093685960916008610168491C0160704752
:103A8000502080F31188BFF34F8FBFF36F8F0A4927
:103A90004868401C486001280CD10848006810F0B4
:103AA000FF0F07D0502080F31188BFF34F8FBFF373
:103AB0006F8FFEE7704700007800002004ED00E003
:103AC0000849486828B1401E486001D180F3118838
:103AD0007047502080F31188BFF34F8FBFF36F8F73
:103AE000FEE700007800002070B5002827D0144DB4
:103AF000A0F108046168E868014207D1502080F312
:103B00001188BFF34F8FBFF36F8FFEE722683AB182
:103B1000502080F31188BFF34F8FBFF36F8FFEE704
:103B20008143616000F07CF86068696808446860FF
:103B30002046FFF727FEBDE8704000F0DDB970BDFC
:103B4000600000204FF0E020002101618161054903
:103B50004FF47A720968B1FBF2F1491E4161072105
:103B6000016170472000002010B5020014D00F48FA
:103B7000806B38B1502080F31188BFF34F8FBFF3B3
:103B80006F8FFEE700F04CF800211046FFF79EFC17
:103B900000F0B2F9002807D105494FF080500860C5
:103BA000BFF34F8FBFF36F8F10BD000024000020C4
:103BB00004ED00E010B586B00024039405AA04A922
:103BC00003A80494FFF720FFDDE903010094CDE989
:103BD000011000230EA11048059A00F0FEF80F49CD
:103BE0000028486311D0502080F31188BFF34F8F15
:103BF000BFF36F8F4FF0FF3008630120C8614C6145
:103C000006B0BDE8104000F041B806B010BD00009D
:103C100049444C45000000008D3600082400002077
:103C20000248816B491C816370470000240000201A
:103C30001448816B11B1012141627047002141623A
:103C40008169B1FA81F1C1F11F0101EB81020E49D5
:103C500051F822306BB101EB820101F108034A688F
:103C600052684A609A4201D152684A60D168016044
:103C70007047502080F31188BFF34F8FBFF36F8FD1
:103C8000FEE7000024000020100700201CB5374884
:103C90000168374A914207D1502080F31188BFF361
:103CA0004F8FBFF36F8FFEE700683149491E88428E
:103CB00007D1502080F31188BFF34F8FBFF36F8F70
:103CC000FEE72C4908780190FF20087008788DF8ED
:103CD00000009DF800009DF8002000F0F0009042E8
:103CE00007D0502080F31188BFF34F8FBFF36F8F41
:103CF000FEE79DF80000204B00F0500018700720F0
:103D0000986005E09DF8002052008DF80020401ECC
:103D10009DF800201206F5D49860032807D05020A3
:103D200080F31188BFF34F8FBFF36F8FFEE74FF41F
:103D300040709860019808700C482030016841F488
:103D400070010160016841F070410160FFF7FAFE07
:103D500000205860FCF78CFA0848016841F04041A7
:103D60000160FCF771FA00201CBD000000ED00E0CE
:103D700071C20F4100E400E07800002034EF00E061
:103D80002DE9FF5F8346DDE90E87994616468A4690
:103D90009000FFF741FD05001CD05420FFF73CFDCB
:103DA000040014D00020256384F85100CDE90240BE
:103DB000CDE900874B46324651465846FFF796FC00
:103DC0002046FFF7BBFB012004B0BDE8F09F28466A
:103DD000FFF78AFE4FF0FF30F6E7F0B585B0DDE97A
:103DE0000B640A9DA6B1DCB1542700972663022616
:103DF00084F85160002604AFCDE90246CDE90057B2
:103E0000FFF774FC2046FFF799FB049805B0F0BD5E
:103E1000502080F31188BFF34F8FBFF36F8FFEE701
:103E2000502080F31188BFF34F8FBFF36F8FFEE7F1
:103E30002DE9F0412E4C0027A06B40B1206A401CB8
:103E40002062606A00B101273846BDE8F0816669EA
:103E5000761C666113D16068006838B1502080F329
:103E60001188BFF34F8FBFF36F8FFEE76068A168C3
:103E70006160A060A06A401CA062FFF7A9FC206BF3
:103E8000DFF87080864209D36068006880B160689E
:103E9000C068C568686886420DD220632068C06A21
:103EA00000EB800158F821000128CAD90127C8E792
:103EB0004FF0FF30F1E7281DFFF792FDA86A18B117
:103EC00005F11800FFF78CFDE86A0121A269814025
:103ED0001143A16100EB800108EB8100291DFFF770
:103EE000C3FDE86A2168C96A8842CDD30127CBE7C0
:103EF00024000020100700202DE9F0472C4D00245D
:103F00002746A86B38B1FFF7BBFDA86B401EA8631E
:103F1000A86B40B146E0502080F31188BFF34F8F6B
:103F2000BFF36F8FFEE72969224E0120D1B3A6F1BE
:103F3000B40980463068E8B1F068C46804F118003C
:103F4000FFF74EFD201DFFF74BFDE06AAA6908FA56
:103F500000F11143A96100EB800109EB8100211DF3
:103F6000FFF782FDE06A2968C96A8842E2D3C5F892
:103F70002480DFE70CB1FFF72BFC2C6A44B14646E6
:103F8000FFF756FF00B16E62641EF9D1002028626F
:103F9000686A38B10849012738070860BFF34F8FB6
:103FA000BFF36F8FFFF78CFD3846BDE8F087000048
:103FB00024000020C407002004ED00E04FF0407012
:103FC000E1EE100A70470000BC400008A928000874
:103FD0000000000000000000800000000000000061
:103FE00000000000B0400008610900080100000066
:103FF0000000000080000000000000000000000041
:104000009C40000841090008FFFF0000000000007C
:104010008000000000000000000000009040000848
:104020009D28000802000000000000008000000041
:104030000000000000000000A8400008A1230008C4
:10404000FDFF0000000000008000000000000000F4
:104050000000000000061016000610160000000008
:104060000000000001020304060708090000000028
:1040700001020304C84000086506000803000000B0
:1040800000000000C8000000000000000000000068
:10409000534146455441534B00000000446574654C
:1040A00063745441534B00004C65645461736B005E
:1040B000466972655461736B000000006465666157
:1040C000756C745461736B004368617373697354E6
:1040D00061736B00F440000800000020B400000091
:1040E000C4010008A8410008B40000204C5300009F
:1040F000E0010008000000000000000000000000D7
:10410000000000000000000001000000100000009E
:10411000000000000024F400000000000000000087
:10412000000000000000000000000000000000008F
:10413000000000000000000000000000000000007F
:10414000000000000000000000000000000000006F
:10415000000000000000000000000000000000005F
:10416000000000000000000000000000000000004F
:10417000AAAAAAAA00000000000000000000000097
:104180000000000000000000000000000902080814
:104190000008090208000000000000000000000004
:0841A000000000000000000017
:040000050800018965
:00000001FF
